{
  "_format": "hh-sol-artifact-1",
  "contractName": "EscrowFactoryV2Upgradeable",
  "sourceName": "contracts/EscrowFactoryV2Upgradeable.sol",
  "abi": [
    {
      "anonymous": false,
      "inputs": [
        {
          "indexed": false,
          "internalType": "address",
          "name": "previousAdmin",
          "type": "address"
        },
        {
          "indexed": false,
          "internalType": "address",
          "name": "newAdmin",
          "type": "address"
        }
      ],
      "name": "AdminChanged",
      "type": "event"
    },
    {
      "anonymous": false,
      "inputs": [
        {
          "indexed": true,
          "internalType": "address",
          "name": "beacon",
          "type": "address"
        }
      ],
      "name": "BeaconUpgraded",
      "type": "event"
    },
    {
      "anonymous": false,
      "inputs": [
        {
          "indexed": true,
          "internalType": "address",
          "name": "escrowAddress",
          "type": "address"
        },
        {
          "indexed": true,
          "internalType": "address",
          "name": "company",
          "type": "address"
        },
        {
          "indexed": false,
          "internalType": "uint256",
          "name": "targetAmount",
          "type": "uint256"
        },
        {
          "indexed": false,
          "internalType": "uint256",
          "name": "deadline",
          "type": "uint256"
        },
        {
          "indexed": false,
          "internalType": "uint256",
          "name": "timestamp",
          "type": "uint256"
        },
        {
          "indexed": false,
          "internalType": "string",
          "name": "campaignName",
          "type": "string"
        },
        {
          "indexed": false,
          "internalType": "string",
          "name": "campaignDescription",
          "type": "string"
        }
      ],
      "name": "EscrowCreated",
      "type": "event"
    },
    {
      "anonymous": false,
      "inputs": [
        {
          "indexed": false,
          "internalType": "uint8",
          "name": "version",
          "type": "uint8"
        }
      ],
      "name": "Initialized",
      "type": "event"
    },
    {
      "anonymous": false,
      "inputs": [
        {
          "indexed": true,
          "internalType": "address",
          "name": "previousOwner",
          "type": "address"
        },
        {
          "indexed": true,
          "internalType": "address",
          "name": "newOwner",
          "type": "address"
        }
      ],
      "name": "OwnershipTransferred",
      "type": "event"
    },
    {
      "anonymous": false,
      "inputs": [
        {
          "indexed": true,
          "internalType": "address",
          "name": "implementation",
          "type": "address"
        }
      ],
      "name": "Upgraded",
      "type": "event"
    },
    {
      "inputs": [
        {
          "internalType": "uint256",
          "name": "",
          "type": "uint256"
        }
      ],
      "name": "allEscrows",
      "outputs": [
        {
          "internalType": "address",
          "name": "",
          "type": "address"
        }
      ],
      "stateMutability": "view",
      "type": "function"
    },
    {
      "inputs": [
        {
          "internalType": "address",
          "name": "",
          "type": "address"
        },
        {
          "internalType": "uint256",
          "name": "",
          "type": "uint256"
        }
      ],
      "name": "companyEscrows",
      "outputs": [
        {
          "internalType": "address",
          "name": "",
          "type": "address"
        }
      ],
      "stateMutability": "view",
      "type": "function"
    },
    {
      "inputs": [
        {
          "internalType": "address",
          "name": "_company",
          "type": "address"
        },
        {
          "internalType": "address",
          "name": "_masterWallet",
          "type": "address"
        },
        {
          "internalType": "uint256",
          "name": "_targetAmount",
          "type": "uint256"
        },
        {
          "internalType": "uint256",
          "name": "_durationInDays",
          "type": "uint256"
        },
        {
          "internalType": "string",
          "name": "_campaignName",
          "type": "string"
        },
        {
          "internalType": "string",
          "name": "_campaignDescription",
          "type": "string"
        }
      ],
      "name": "createEscrow",
      "outputs": [
        {
          "internalType": "address",
          "name": "escrowAddress",
          "type": "address"
        }
      ],
      "stateMutability": "nonpayable",
      "type": "function"
    },
    {
      "inputs": [
        {
          "internalType": "address",
          "name": "",
          "type": "address"
        }
      ],
      "name": "escrowToCompany",
      "outputs": [
        {
          "internalType": "address",
          "name": "",
          "type": "address"
        }
      ],
      "stateMutability": "view",
      "type": "function"
    },
    {
      "inputs": [],
      "name": "getAllEscrows",
      "outputs": [
        {
          "internalType": "address[]",
          "name": "",
          "type": "address[]"
        }
      ],
      "stateMutability": "view",
      "type": "function"
    },
    {
      "inputs": [
        {
          "internalType": "address",
          "name": "_company",
          "type": "address"
        }
      ],
      "name": "getCompanyEscrows",
      "outputs": [
        {
          "internalType": "address[]",
          "name": "",
          "type": "address[]"
        }
      ],
      "stateMutability": "view",
      "type": "function"
    },
    {
      "inputs": [
        {
          "internalType": "address",
          "name": "_escrow",
          "type": "address"
        }
      ],
      "name": "getEscrowCompany",
      "outputs": [
        {
          "internalType": "address",
          "name": "",
          "type": "address"
        }
      ],
      "stateMutability": "view",
      "type": "function"
    },
    {
      "inputs": [],
      "name": "getEscrowCount",
      "outputs": [
        {
          "internalType": "uint256",
          "name": "",
          "type": "uint256"
        }
      ],
      "stateMutability": "view",
      "type": "function"
    },
    {
      "inputs": [
        {
          "internalType": "address",
          "name": "owner_",
          "type": "address"
        }
      ],
      "name": "initialize",
      "outputs": [],
      "stateMutability": "nonpayable",
      "type": "function"
    },
    {
      "inputs": [],
      "name": "owner",
      "outputs": [
        {
          "internalType": "address",
          "name": "",
          "type": "address"
        }
      ],
      "stateMutability": "view",
      "type": "function"
    },
    {
      "inputs": [],
      "name": "proxiableUUID",
      "outputs": [
        {
          "internalType": "bytes32",
          "name": "",
          "type": "bytes32"
        }
      ],
      "stateMutability": "view",
      "type": "function"
    },
    {
      "inputs": [],
      "name": "renounceOwnership",
      "outputs": [],
      "stateMutability": "nonpayable",
      "type": "function"
    },
    {
      "inputs": [
        {
          "internalType": "address",
          "name": "newOwner",
          "type": "address"
        }
      ],
      "name": "transferOwnership",
      "outputs": [],
      "stateMutability": "nonpayable",
      "type": "function"
    },
    {
      "inputs": [
        {
          "internalType": "address",
          "name": "newImplementation",
          "type": "address"
        }
      ],
      "name": "upgradeTo",
      "outputs": [],
      "stateMutability": "nonpayable",
      "type": "function"
    },
    {
      "inputs": [
        {
          "internalType": "address",
          "name": "newImplementation",
          "type": "address"
        },
        {
          "internalType": "bytes",
          "name": "data",
          "type": "bytes"
        }
      ],
      "name": "upgradeToAndCall",
      "outputs": [],
      "stateMutability": "payable",
      "type": "function"
    },
    {
      "inputs": [],
      "name": "version",
      "outputs": [
        {
          "internalType": "string",
          "name": "",
          "type": "string"
        }
      ],
      "stateMutability": "pure",
      "type": "function"
    }
  ],
  "bytecode": "0x60a06040523060805234801561001457600080fd5b5061001d610022565b6100e1565b600054610100900460ff161561008e5760405162461bcd60e51b815260206004820152602760248201527f496e697469616c697a61626c653a20636f6e747261637420697320696e697469604482015266616c697a696e6760c81b606482015260840160405180910390fd5b60005460ff908116146100df576000805460ff191660ff9081179091556040519081527f7f26b83ff96e1f2b6a682f133852f6798a09c465da95921460cefb38474024989060200160405180910390a15b565b608051612a30610118600039600081816103bd01528181610409015281816105290152818161056c01526106080152612a306000f3fe608060405260043610620001075760003560e01c80636e55959c1162000095578063c4d66de81162000060578063c4d66de814620002f4578063edfe967e1462000319578063ef7ee7b9146200033e578063f2fde38b146200036357600080fd5b80636e55959c146200026a578063715018a614620002a45780638da5cb5b14620002bc5780639a6ac36f14620002dc57600080fd5b8063440d7aac11620000d6578063440d7aac14620001d35780634f1ef286146200020757806352d1902d146200021e57806354fd4d50146200023657600080fd5b806301dbfac0146200010c57806316b1513514620001665780631d3afee614620001875780633659cfe614620001ac575b600080fd5b3480156200011957600080fd5b50620001496200012b36600462000fc1565b6001600160a01b03908116600090815260cb60205260409020541690565b6040516001600160a01b0390911681526020015b60405180910390f35b3480156200017357600080fd5b5060c9545b6040519081526020016200015d565b3480156200019457600080fd5b5062000149620001a636600462000fdf565b62000388565b348015620001b957600080fd5b50620001d1620001cb36600462000fc1565b620003b3565b005b348015620001e057600080fd5b50620001f8620001f236600462000fc1565b620004a7565b6040516200015d919062000ff9565b620001d1620002183660046200105e565b6200051f565b3480156200022b57600080fd5b5062000178620005fb565b3480156200024357600080fd5b5060408051808201825260028152613b1960f11b602082015290516200015d919062001152565b3480156200027757600080fd5b50620001496200028936600462000fc1565b60cb602052600090815260409020546001600160a01b031681565b348015620002b157600080fd5b50620001d1620006b1565b348015620002c957600080fd5b506033546001600160a01b031662000149565b348015620002e957600080fd5b50620001f8620006c9565b3480156200030157600080fd5b50620001d16200031336600462000fc1565b6200072d565b3480156200032657600080fd5b50620001496200033836600462001187565b6200085c565b3480156200034b57600080fd5b50620001496200035d36600462001200565b62000895565b3480156200037057600080fd5b50620001d16200038236600462000fc1565b620009dc565b60c981815481106200039957600080fd5b6000918252602090912001546001600160a01b0316905081565b6001600160a01b037f0000000000000000000000000000000000000000000000000000000000000000163003620004075760405162461bcd60e51b8152600401620003fe90620012af565b60405180910390fd5b7f00000000000000000000000000000000000000000000000000000000000000006001600160a01b031662000452600080516020620029b4833981519152546001600160a01b031690565b6001600160a01b0316146200047b5760405162461bcd60e51b8152600401620003fe90620012fb565b620004868162000a58565b60408051600080825260208201909252620004a49183919062000a62565b50565b6001600160a01b038116600090815260ca60209081526040918290208054835181840281018401909452808452606093928301828280156200051357602002820191906000526020600020905b81546001600160a01b03168152600190910190602001808311620004f4575b50505050509050919050565b6001600160a01b037f00000000000000000000000000000000000000000000000000000000000000001630036200056a5760405162461bcd60e51b8152600401620003fe90620012af565b7f00000000000000000000000000000000000000000000000000000000000000006001600160a01b0316620005b5600080516020620029b4833981519152546001600160a01b031690565b6001600160a01b031614620005de5760405162461bcd60e51b8152600401620003fe90620012fb565b620005e98262000a58565b620005f78282600162000a62565b5050565b6000306001600160a01b037f000000000000000000000000000000000000000000000000000000000000000016146200069d5760405162461bcd60e51b815260206004820152603860248201527f555550535570677261646561626c653a206d757374206e6f742062652063616c60448201527f6c6564207468726f7567682064656c656761746563616c6c00000000000000006064820152608401620003fe565b50600080516020620029b483398151915290565b620006bb62000bdf565b620006c7600062000c3b565b565b606060c98054806020026020016040519081016040528092919081815260200182805480156200072357602002820191906000526020600020905b81546001600160a01b0316815260019091019060200180831162000704575b5050505050905090565b600054610100900460ff16158080156200074e5750600054600160ff909116105b806200076a5750303b1580156200076a575060005460ff166001145b620007cf5760405162461bcd60e51b815260206004820152602e60248201527f496e697469616c697a61626c653a20636f6e747261637420697320616c72656160448201526d191e481a5b9a5d1a585b1a5e995960921b6064820152608401620003fe565b6000805460ff191660011790558015620007f3576000805461ff0019166101001790555b620007fd62000c8d565b6200080762000cc1565b6200081282620009dc565b8015620005f7576000805461ff0019169055604051600181527f7f26b83ff96e1f2b6a682f133852f6798a09c465da95921460cefb38474024989060200160405180910390a15050565b60ca60205281600052604060002081815481106200087957600080fd5b6000918252602090912001546001600160a01b03169150829050565b6000808989898989898989604051620008ae9062000f96565b620008c198979695949392919062001370565b604051809103906000f080158015620008de573d6000803e3d6000fd5b5060c9805460018181019092557f66be4f155c5ef2ebd3772b228f2f00681e4ed5826cdb3b1943cc11ad15ad1d280180546001600160a01b038085166001600160a01b031992831681179093558e16600081815260ca60209081526040808320805497880181558352818320909601805485168617905584825260cb905293909320805490911683179055919350839250907f7b0c45389b4b4e5347cc1c5fb835db3275329fb950d9cb7b69fc6da70b83f4b98a620009a18b62015180620013e7565b620009ad904262001401565b428b8b8b8b604051620009c7979695949392919062001417565b60405180910390a35098975050505050505050565b620009e662000bdf565b6001600160a01b03811662000a4d5760405162461bcd60e51b815260206004820152602660248201527f4f776e61626c653a206e6577206f776e657220697320746865207a65726f206160448201526564647265737360d01b6064820152608401620003fe565b620004a48162000c3b565b620004a462000bdf565b7f4910fdfa16fed3260ed0e7147f7cc6da11a60208b5b9406d12a635614ffd91435460ff161562000a9d5762000a988362000ceb565b505050565b826001600160a01b03166352d1902d6040518163ffffffff1660e01b8152600401602060405180830381865afa92505050801562000afa575060408051601f3d908101601f1916820190925262000af79181019062001462565b60015b62000b5f5760405162461bcd60e51b815260206004820152602e60248201527f45524331393637557067726164653a206e657720696d706c656d656e7461746960448201526d6f6e206973206e6f74205555505360901b6064820152608401620003fe565b600080516020620029b4833981519152811462000bd15760405162461bcd60e51b815260206004820152602960248201527f45524331393637557067726164653a20756e737570706f727465642070726f786044820152681a58589b195555525160ba1b6064820152608401620003fe565b5062000a9883838362000d8a565b6033546001600160a01b03163314620006c75760405162461bcd60e51b815260206004820181905260248201527f4f776e61626c653a2063616c6c6572206973206e6f7420746865206f776e65726044820152606401620003fe565b603380546001600160a01b038381166001600160a01b0319831681179093556040519116919082907f8be0079c531659141344cd1fd0a4f28419497f9722a3daafe3b4186f6b6457e090600090a35050565b600054610100900460ff1662000cb75760405162461bcd60e51b8152600401620003fe906200147c565b620006c762000dbb565b600054610100900460ff16620006c75760405162461bcd60e51b8152600401620003fe906200147c565b6001600160a01b0381163b62000d5a5760405162461bcd60e51b815260206004820152602d60248201527f455243313936373a206e657720696d706c656d656e746174696f6e206973206e60448201526c1bdd08184818dbdb9d1c9858dd609a1b6064820152608401620003fe565b600080516020620029b483398151915280546001600160a01b0319166001600160a01b0392909216919091179055565b62000d958362000df0565b60008251118062000da35750805b1562000a985762000db5838362000e32565b50505050565b600054610100900460ff1662000de55760405162461bcd60e51b8152600401620003fe906200147c565b620006c73362000c3b565b62000dfb8162000ceb565b6040516001600160a01b038216907fbc7cd75a20ee27fd9adebab32041f755214dbc6bffa90cc0225b39da2e5c2d3b90600090a250565b606062000e5a8383604051806060016040528060278152602001620029d46027913962000e63565b90505b92915050565b6060600080856001600160a01b03168560405162000e829190620014c7565b600060405180830381855af49150503d806000811462000ebf576040519150601f19603f3d011682016040523d82523d6000602084013e62000ec4565b606091505b509150915062000ed78683838762000ee1565b9695505050505050565b6060831562000f5557825160000362000f4d576001600160a01b0385163b62000f4d5760405162461bcd60e51b815260206004820152601d60248201527f416464726573733a2063616c6c20746f206e6f6e2d636f6e74726163740000006044820152606401620003fe565b508162000f61565b62000f61838362000f69565b949350505050565b81511562000f7a5781518083602001fd5b8060405162461bcd60e51b8152600401620003fe919062001152565b6114ce80620014e683390190565b80356001600160a01b038116811462000fbc57600080fd5b919050565b60006020828403121562000fd457600080fd5b62000e5a8262000fa4565b60006020828403121562000ff257600080fd5b5035919050565b6020808252825182820181905260009190848201906040850190845b818110156200103c5783516001600160a01b03168352928401929184019160010162001015565b50909695505050505050565b634e487b7160e01b600052604160045260246000fd5b600080604083850312156200107257600080fd5b6200107d8362000fa4565b9150602083013567ffffffffffffffff808211156200109b57600080fd5b818501915085601f830112620010b057600080fd5b813581811115620010c557620010c562001048565b604051601f8201601f19908116603f01168101908382118183101715620010f057620010f062001048565b816040528281528860208487010111156200110a57600080fd5b8260208601602083013760006020848301015280955050505050509250929050565b60005b83811015620011495781810151838201526020016200112f565b50506000910152565b6020815260008251806020840152620011738160408501602087016200112c565b601f01601f19169190910160400192915050565b600080604083850312156200119b57600080fd5b620011a68362000fa4565b946020939093013593505050565b60008083601f840112620011c757600080fd5b50813567ffffffffffffffff811115620011e057600080fd5b602083019150836020828501011115620011f957600080fd5b9250929050565b60008060008060008060008060c0898b0312156200121d57600080fd5b620012288962000fa4565b97506200123860208a0162000fa4565b96506040890135955060608901359450608089013567ffffffffffffffff808211156200126457600080fd5b620012728c838d01620011b4565b909650945060a08b01359150808211156200128c57600080fd5b506200129b8b828c01620011b4565b999c989b5096995094979396929594505050565b6020808252602c908201527f46756e6374696f6e206d7573742062652063616c6c6564207468726f7567682060408201526b19195b1959d85d1958d85b1b60a21b606082015260800190565b6020808252602c908201527f46756e6374696f6e206d7573742062652063616c6c6564207468726f7567682060408201526b6163746976652070726f787960a01b606082015260800190565b81835281816020850137506000828201602090810191909152601f909101601f19169091010190565b6001600160a01b03898116825288166020820152604081018790526060810186905260c060808201819052600090620013ad908301868862001347565b82810360a0840152620013c281858762001347565b9b9a5050505050505050505050565b634e487b7160e01b600052601160045260246000fd5b808202811582820484141762000e5d5762000e5d620013d1565b8082018082111562000e5d5762000e5d620013d1565b87815286602082015285604082015260a0606082015260006200143f60a08301868862001347565b82810360808401526200145481858762001347565b9a9950505050505050505050565b6000602082840312156200147557600080fd5b5051919050565b6020808252602b908201527f496e697469616c697a61626c653a20636f6e7472616374206973206e6f74206960408201526a6e697469616c697a696e6760a81b606082015260800190565b60008251620014db8184602087016200112c565b919091019291505056fe6101206040523480156200001257600080fd5b50604051620014ce380380620014ce833981016040819052620000359162000210565b6001600160a01b0386166200005d5760405163e6c4247b60e01b815260040160405180910390fd5b6001600160a01b038516620000855760405163e6c4247b60e01b815260040160405180910390fd5b83600003620000a757604051631f2a200560e01b815260040160405180910390fd5b82600003620000c957604051631f2a200560e01b815260040160405180910390fd5b6001600160a01b03808716608052851660a0523360c05260e0849052620000f48362015180620002c9565b620001009042620002e9565b6101005260026200011283826200038e565b5060036200012182826200038e565b505050505050506200045a565b80516001600160a01b03811681146200014657600080fd5b919050565b634e487b7160e01b600052604160045260246000fd5b600082601f8301126200017357600080fd5b81516001600160401b03808211156200019057620001906200014b565b604051601f8301601f19908116603f01168101908282118183101715620001bb57620001bb6200014b565b81604052838152602092508683858801011115620001d857600080fd5b600091505b83821015620001fc5785820183015181830184015290820190620001dd565b600093810190920192909252949350505050565b60008060008060008060c087890312156200022a57600080fd5b62000235876200012e565b955062000245602088016200012e565b6040880151606089015160808a015192975090955093506001600160401b03808211156200027257600080fd5b620002808a838b0162000161565b935060a08901519150808211156200029757600080fd5b50620002a689828a0162000161565b9150509295509295509295565b634e487b7160e01b600052601160045260246000fd5b8082028115828204841417620002e357620002e3620002b3565b92915050565b80820180821115620002e357620002e3620002b3565b600181811c908216806200031457607f821691505b6020821081036200033557634e487b7160e01b600052602260045260246000fd5b50919050565b601f8211156200038957600081815260208120601f850160051c81016020861015620003645750805b601f850160051c820191505b81811015620003855782815560010162000370565b5050505b505050565b81516001600160401b03811115620003aa57620003aa6200014b565b620003c281620003bb8454620002ff565b846200033b565b602080601f831160018114620003fa5760008415620003e15750858301515b600019600386901b1c1916600185901b17855562000385565b600085815260208120601f198616915b828110156200042b578886015182559484019460019091019084016200040a565b50858210156200044a5787850151600019600388901b60f8161c191681555b5050505050600190811b01905550565b60805160a05160c05160e05161010051610fbf6200050f6000396000818161012a0152818161041501528181610725015281816107460152818161077101528181610854015281816108a50152818161097d0152610b0b015260008181610268015281816104f9015281816105cc01528181610704015281816107d5015281816108030152610c6a015260006102c10152600081816105a101528181610cbb0152610d3e015260006104ab0152610fbf6000f3fe6080604052600436106101235760003560e01c80634bb278f3116100a0578063b5545a3c11610064578063b5545a3c1461053d578063c5c4744c14610552578063d7bb99ba14610568578063ec4cd0cf14610570578063fc0d01171461058f57600080fd5b80634bb278f3146104845780636904c94d146104995780638d4e4083146104cd578063953b8fb8146104e7578063af157c191461051b57600080fd5b806321eff7fc116100e757806321eff7fc146103a857806322f3e2d4146103de57806329dcb0cf146104035780633cb5d1001461043757806342e94c901461045757600080fd5b806302d05d3f146102af5780630724fda9146103005780631055051514610322578063110842cb146103705780631931136c1461038557600080fd5b366102aa577f000000000000000000000000000000000000000000000000000000000000000042111561016957604051638320b48360e01b815260040160405180910390fd5b60015460ff161561018d5760405163475a253560e01b815260040160405180910390fd5b3360009081526004602052604081205490036101e657600580546001810182556000919091527f036b6384b5eca791c62761152d0c79bb0604c104a5fb6f4eb0703f3154bb3db00180546001600160a01b031916331790555b3360009081526004602052604081208054349290610205908490610e06565b925050819055503460008082825461021d9190610e06565b909155505060005460405133917fd2dff949d20e874cc6ba1dcefb840fb8cf6000a4197bfb69accfea5a32443ff59161025e91348252602082015260400190565b60405180910390a27f00000000000000000000000000000000000000000000000000000000000000006000541015801561029b575060015460ff16155b156102a8576102a86105c3565b005b600080fd5b3480156102bb57600080fd5b506102e37f000000000000000000000000000000000000000000000000000000000000000081565b6040516001600160a01b0390911681526020015b60405180910390f35b34801561030c57600080fd5b50610315610667565b6040516102f79190610e1f565b34801561032e57600080fd5b506103376106f5565b60408051978852602088019690965294860193909352606085019190915215156080840152151560a083015260c082015260e0016102f7565b34801561037c57600080fd5b506103156107c4565b34801561039157600080fd5b5061039a6107d1565b6040519081526020016102f7565b3480156103b457600080fd5b5061039a6103c3366004610e6d565b6001600160a01b031660009081526004602052604090205490565b3480156103ea57600080fd5b506103f3610840565b60405190151581526020016102f7565b34801561040f57600080fd5b5061039a7f000000000000000000000000000000000000000000000000000000000000000081565b34801561044357600080fd5b506102e3610452366004610e9d565b610879565b34801561046357600080fd5b5061039a610472366004610e6d565b60046020526000908152604090205481565b34801561049057600080fd5b506102a86108a3565b3480156104a557600080fd5b506102e37f000000000000000000000000000000000000000000000000000000000000000081565b3480156104d957600080fd5b506001546103f39060ff1681565b3480156104f357600080fd5b5061039a7f000000000000000000000000000000000000000000000000000000000000000081565b34801561052757600080fd5b5061053061090f565b6040516102f79190610eb6565b34801561054957600080fd5b506102a8610971565b34801561055e57600080fd5b5061039a60005481565b6102a8610b09565b34801561057c57600080fd5b506001546103f390610100900460ff1681565b34801561059b57600080fd5b506102e37f000000000000000000000000000000000000000000000000000000000000000081565b600180546000547f000000000000000000000000000000000000000000000000000000000000000081101561010090810261ffff19909316929092178317928390556040517f17be444bdf6f73dfd4057f6fb3494ab4a8591399b8703be2bd797f27cf86ff999361064593900460ff1691909115158252602082015260400190565b60405180910390a1600154610100900460ff161561066557610665610caa565b565b6002805461067490610f03565b80601f01602080910402602001604051908101604052809291908181526020018280546106a090610f03565b80156106ed5780601f106106c2576101008083540402835291602001916106ed565b820191906000526020600020905b8154815290600101906020018083116106d057829003601f168201915b505050505081565b600080600080600080600080547f00000000000000000000000000000000000000000000000000000000000000007f00000000000000000000000000000000000000000000000000000000000000007f0000000000000000000000000000000000000000000000000000000000000000421161079a57610795427f0000000000000000000000000000000000000000000000000000000000000000610f3d565b61079d565b60005b600154600554949c939b50919950975060ff80821697506101009091041694509092509050565b6003805461067490610f03565b60007f00000000000000000000000000000000000000000000000000000000000000006000036108015750600090565b7f000000000000000000000000000000000000000000000000000000000000000060005460646108319190610f50565b61083b9190610f67565b905090565b60015460009060ff1615801561083b5750507f000000000000000000000000000000000000000000000000000000000000000042111590565b6005818154811061088957600080fd5b6000918252602090912001546001600160a01b0316905081565b7f000000000000000000000000000000000000000000000000000000000000000042116108e35760405163640d014560e11b815260040160405180910390fd5b60015460ff16156109075760405163475a253560e01b815260040160405180910390fd5b6106656105c3565b6060600580548060200260200160405190810160405280929190818152602001828054801561096757602002820191906000526020600020905b81546001600160a01b03168152600190910190602001808311610949575b5050505050905090565b60015460ff166109c3577f000000000000000000000000000000000000000000000000000000000000000042116109bb5760405163640d014560e11b815260040160405180910390fd5b6109c36105c3565b600154610100900460ff16156109ec57604051638f8e29a560e01b815260040160405180910390fd5b3360009081526004602052604081205490819003610a1d57604051631971fbf360e21b815260040160405180910390fd5b336000908152600460205260408120819055610a37610da4565b9050600080548284610a499190610f50565b610a539190610f67565b90506000610a618285610f3d565b604051909150600090339083908381818185875af1925050503d8060008114610aa6576040519150601f19603f3d011682016040523d82523d6000602084013e610aab565b606091505b5050905080610acd576040516312171d8360e31b815260040160405180910390fd5b60405182815233907fa171b6942063c6f2800ce40a780edce37baa2b618571b11eedd1e69e626e7d769060200160405180910390a25050505050565b7f0000000000000000000000000000000000000000000000000000000000000000421115610b4a57604051638320b48360e01b815260040160405180910390fd5b34600003610b6b57604051631f2a200560e01b815260040160405180910390fd5b60015460ff1615610b8f5760405163475a253560e01b815260040160405180910390fd5b336000908152600460205260408120549003610be857600580546001810182556000919091527f036b6384b5eca791c62761152d0c79bb0604c104a5fb6f4eb0703f3154bb3db00180546001600160a01b031916331790555b3360009081526004602052604081208054349290610c07908490610e06565b9250508190555034600080828254610c1f9190610e06565b909155505060005460405133917fd2dff949d20e874cc6ba1dcefb840fb8cf6000a4197bfb69accfea5a32443ff591610c6091348252602082015260400190565b60405180910390a27f000000000000000000000000000000000000000000000000000000000000000060005410158015610c9d575060015460ff16155b15610665576106656105c3565b600080546040516001600160a01b037f00000000000000000000000000000000000000000000000000000000000000001691908381818185875af1925050503d8060008114610d15576040519150601f19603f3d011682016040523d82523d6000602084013e610d1a565b606091505b5050905080610d3c576040516312171d8360e31b815260040160405180910390fd5b7f00000000000000000000000000000000000000000000000000000000000000006001600160a01b03167f221c08a06b07a64803b3787861a3f276212fcccb51c2e6234077a9b8cb13047a600054604051610d9991815260200190565b60405180910390a250565b6000806103e8600054610db79190610f67565b905066038d7ea4c6800067016345785d8a000081831015610dd9575092915050565b80831115610de8579392505050565b509092915050565b634e487b7160e01b600052601160045260246000fd5b80820180821115610e1957610e19610df0565b92915050565b600060208083528351808285015260005b81811015610e4c57858101830151858201604001528201610e30565b506000604082860101526040601f19601f8301168501019250505092915050565b600060208284031215610e7f57600080fd5b81356001600160a01b0381168114610e9657600080fd5b9392505050565b600060208284031215610eaf57600080fd5b5035919050565b6020808252825182820181905260009190848201906040850190845b81811015610ef75783516001600160a01b031683529284019291840191600101610ed2565b50909695505050505050565b600181811c90821680610f1757607f821691505b602082108103610f3757634e487b7160e01b600052602260045260246000fd5b50919050565b81810381811115610e1957610e19610df0565b8082028115828204841417610e1957610e19610df0565b600082610f8457634e487b7160e01b600052601260045260246000fd5b50049056fea2646970667358221220e2639401a73de0c8d18013520e5a2e43b06fc1ebe9647c2deee519aee80c059e64736f6c63430008140033360894a13ba1a3210667c828492db98dca3e2076cc3735a920a3ca505d382bbc416464726573733a206c6f772d6c6576656c2064656c65676174652063616c6c206661696c6564a26469706673582212200dfffcc01be388f382639396cde9dc3e723588e7c98b54405f0e4d36453099ac64736f6c63430008140033",
  "linkReferences": {},
  "deployedLinkReferences": {}
}