{
  "_format": "hh-sol-artifact-1",
  "contractName": "EscrowFactory",
  "sourceName": "contracts/EscrowFactory.sol",
  "abi": [
    {
      "anonymous": false,
      "inputs": [
        {
          "indexed": true,
          "internalType": "address",
          "name": "escrowAddress",
          "type": "address"
        },
        {
          "indexed": true,
          "internalType": "address",
          "name": "company",
          "type": "address"
        },
        {
          "indexed": false,
          "internalType": "uint256",
          "name": "targetAmount",
          "type": "uint256"
        },
        {
          "indexed": false,
          "internalType": "uint256",
          "name": "deadline",
          "type": "uint256"
        },
        {
          "indexed": false,
          "internalType": "uint256",
          "name": "timestamp",
          "type": "uint256"
        }
      ],
      "name": "EscrowCreated",
      "type": "event"
    },
    {
      "inputs": [
        {
          "internalType": "uint256",
          "name": "",
          "type": "uint256"
        }
      ],
      "name": "allEscrows",
      "outputs": [
        {
          "internalType": "address",
          "name": "",
          "type": "address"
        }
      ],
      "stateMutability": "view",
      "type": "function"
    },
    {
      "inputs": [
        {
          "internalType": "address",
          "name": "",
          "type": "address"
        },
        {
          "internalType": "uint256",
          "name": "",
          "type": "uint256"
        }
      ],
      "name": "companyEscrows",
      "outputs": [
        {
          "internalType": "address",
          "name": "",
          "type": "address"
        }
      ],
      "stateMutability": "view",
      "type": "function"
    },
    {
      "inputs": [
        {
          "internalType": "address",
          "name": "_company",
          "type": "address"
        },
        {
          "internalType": "uint256",
          "name": "_targetAmount",
          "type": "uint256"
        },
        {
          "internalType": "uint256",
          "name": "_durationInDays",
          "type": "uint256"
        }
      ],
      "name": "createEscrow",
      "outputs": [
        {
          "internalType": "address",
          "name": "escrowAddress",
          "type": "address"
        }
      ],
      "stateMutability": "nonpayable",
      "type": "function"
    },
    {
      "inputs": [
        {
          "internalType": "address",
          "name": "",
          "type": "address"
        }
      ],
      "name": "escrowToCompany",
      "outputs": [
        {
          "internalType": "address",
          "name": "",
          "type": "address"
        }
      ],
      "stateMutability": "view",
      "type": "function"
    },
    {
      "inputs": [],
      "name": "getAllEscrows",
      "outputs": [
        {
          "internalType": "address[]",
          "name": "",
          "type": "address[]"
        }
      ],
      "stateMutability": "view",
      "type": "function"
    },
    {
      "inputs": [
        {
          "internalType": "address",
          "name": "_company",
          "type": "address"
        }
      ],
      "name": "getCompanyEscrows",
      "outputs": [
        {
          "internalType": "address[]",
          "name": "",
          "type": "address[]"
        }
      ],
      "stateMutability": "view",
      "type": "function"
    },
    {
      "inputs": [
        {
          "internalType": "address",
          "name": "_escrow",
          "type": "address"
        }
      ],
      "name": "getEscrowCompany",
      "outputs": [
        {
          "internalType": "address",
          "name": "",
          "type": "address"
        }
      ],
      "stateMutability": "view",
      "type": "function"
    },
    {
      "inputs": [],
      "name": "getEscrowCount",
      "outputs": [
        {
          "internalType": "uint256",
          "name": "",
          "type": "uint256"
        }
      ],
      "stateMutability": "view",
      "type": "function"
    },
    {
      "inputs": [
        {
          "internalType": "address",
          "name": "_escrow",
          "type": "address"
        }
      ],
      "name": "getEscrowDetails",
      "outputs": [
        {
          "internalType": "address",
          "name": "company",
          "type": "address"
        },
        {
          "internalType": "uint256",
          "name": "totalRaised",
          "type": "uint256"
        },
        {
          "internalType": "uint256",
          "name": "targetAmount",
          "type": "uint256"
        },
        {
          "internalType": "uint256",
          "name": "deadline",
          "type": "uint256"
        },
        {
          "internalType": "bool",
          "name": "isFinalized",
          "type": "bool"
        },
        {
          "internalType": "bool",
          "name": "isSuccessful",
          "type": "bool"
        }
      ],
      "stateMutability": "view",
      "type": "function"
    }
  ],
  "bytecode": "0x608060405234801561001057600080fd5b50611835806100206000396000f3fe608060405234801561001057600080fd5b50600436106100935760003560e01c8063440d7aac11610066578063440d7aac146101535780636e55959c146101735780639a6ac36f1461019c578063e2ecb311146101a4578063edfe967e146101b757600080fd5b806301dbfac01461009857806316b15135146100e15780631d3afee6146100f257806329415a5914610105575b600080fd5b6100c46100a63660046106d3565b6001600160a01b039081166000908152600260205260409020541690565b6040516001600160a01b0390911681526020015b60405180910390f35b6000546040519081526020016100d8565b6100c46101003660046106f7565b6101ca565b6101186101133660046106d3565b6101f4565b604080516001600160a01b039097168752602087019590955293850192909252606084015215156080830152151560a082015260c0016100d8565b6101666101613660046106d3565b610464565b6040516100d89190610710565b6100c46101813660046106d3565b6002602052600090815260409020546001600160a01b031681565b6101666104da565b6100c46101b236600461075d565b61053c565b6100c46101c5366004610792565b610676565b600081815481106101da57600080fd5b6000918252602090912001546001600160a01b0316905081565b6000806000806000806000879050806001600160a01b0316636904c94d6040518163ffffffff1660e01b8152600401602060405180830381865afa158015610240573d6000803e3d6000fd5b505050506040513d601f19601f8201168201806040525081019061026491906107be565b9650806001600160a01b031663c5c4744c6040518163ffffffff1660e01b8152600401602060405180830381865afa1580156102a4573d6000803e3d6000fd5b505050506040513d601f19601f820116820180604052508101906102c891906107db565b9550806001600160a01b031663953b8fb86040518163ffffffff1660e01b8152600401602060405180830381865afa158015610308573d6000803e3d6000fd5b505050506040513d601f19601f8201168201806040525081019061032c91906107db565b9450806001600160a01b03166329dcb0cf6040518163ffffffff1660e01b8152600401602060405180830381865afa15801561036c573d6000803e3d6000fd5b505050506040513d601f19601f8201168201806040525081019061039091906107db565b9350806001600160a01b0316638d4e40836040518163ffffffff1660e01b8152600401602060405180830381865afa1580156103d0573d6000803e3d6000fd5b505050506040513d601f19601f820116820180604052508101906103f491906107f4565b9250806001600160a01b031663ec4cd0cf6040518163ffffffff1660e01b8152600401602060405180830381865afa158015610434573d6000803e3d6000fd5b505050506040513d601f19601f8201168201806040525081019061045891906107f4565b91505091939550919395565b6001600160a01b0381166000908152600160209081526040918290208054835181840281018401909452808452606093928301828280156104ce57602002820191906000526020600020905b81546001600160a01b031681526001909101906020018083116104b0575b50505050509050919050565b6060600080548060200260200160405190810160405280929190818152602001828054801561053257602002820191906000526020600020905b81546001600160a01b03168152600190910190602001808311610514575b5050505050905090565b60008084848460405161054e906106ae565b6001600160a01b03909316835260208301919091526040820152606001604051809103906000f080158015610587573d6000803e3d6000fd5b5060008054600181810183557f290decd9548b62a8d60345a988386fc84ba6bc95484008f6362f93160ef3e56390910180546001600160a01b038086166001600160a01b031992831681179093558a168085526020848152604080872080549687018155875281872090950180548416851790558386526002905292909320805490931682179092559193508392507f55a9934455dc11a1b6228c92642169a0abbbaa81df9b1b559a7f0969d5eb5c6b86610645876201518061082c565b61064f9042610849565b604080519283526020830191909152429082015260600160405180910390a3509392505050565b6001602052816000526040600020818154811061069257600080fd5b6000918252602090912001546001600160a01b03169150829050565b610fa38061085d83390190565b6001600160a01b03811681146106d057600080fd5b50565b6000602082840312156106e557600080fd5b81356106f0816106bb565b9392505050565b60006020828403121561070957600080fd5b5035919050565b6020808252825182820181905260009190848201906040850190845b818110156107515783516001600160a01b03168352928401929184019160010161072c565b50909695505050505050565b60008060006060848603121561077257600080fd5b833561077d816106bb565b95602085013595506040909401359392505050565b600080604083850312156107a557600080fd5b82356107b0816106bb565b946020939093013593505050565b6000602082840312156107d057600080fd5b81516106f0816106bb565b6000602082840312156107ed57600080fd5b5051919050565b60006020828403121561080657600080fd5b815180151581146106f057600080fd5b634e487b7160e01b600052601160045260246000fd5b808202811582820484141761084357610843610816565b92915050565b808201808211156108435761084361081656fe6101006040523480156200001257600080fd5b5060405162000fa338038062000fa38339810160408190526200003591620000df565b6001600160a01b0383166200005d5760405163e6c4247b60e01b815260040160405180910390fd5b816000036200007f57604051631f2a200560e01b815260040160405180910390fd5b80600003620000a157604051631f2a200560e01b815260040160405180910390fd5b6001600160a01b0383166080523360a05260c0829052620000c681620151806200013a565b620000d290426200015a565b60e0525062000170915050565b600080600060608486031215620000f557600080fd5b83516001600160a01b03811681146200010d57600080fd5b602085015160409095015190969495509392505050565b634e487b7160e01b600052601160045260246000fd5b808202811582820484141762000154576200015462000124565b92915050565b8082018082111562000154576200015462000124565b60805160a05160c05160e051610d896200021a60003960008181610109015281816103bd0152818161060b0152818161062c015281816106570152818161072d0152818161077e0152818161085601526109a9015260008181610247015281816104a101528181610540015281816105ea015281816106ae015281816106dc0152610b08015260006102a001526000818161045301528181610b590152610bdc0152610d896000f3fe6080604052600436106101025760003560e01c80634bb278f311610095578063af157c1911610064578063af157c19146104c3578063b5545a3c146104e5578063c5c4744c146104fa578063d7bb99ba14610510578063ec4cd0cf1461051857600080fd5b80634bb278f31461042c5780636904c94d146104415780638d4e408314610475578063953b8fb81461048f57600080fd5b806322f3e2d4116100d157806322f3e2d41461038657806329dcb0cf146103ab5780633cb5d100146103df57806342e94c90146103ff57600080fd5b806302d05d3f1461028e57806310550515146102df5780631931136c1461032d57806321eff7fc1461035057600080fd5b36610289577f000000000000000000000000000000000000000000000000000000000000000042111561014857604051638320b48360e01b815260040160405180910390fd5b60015460ff161561016c5760405163475a253560e01b815260040160405180910390fd5b3360009081526002602052604081205490036101c557600380546001810182556000919091527fc2575a0e9e593c00f959f8c92f12db2869c3395a3b0502d05e2516446f71f85b0180546001600160a01b031916331790555b33600090815260026020526040812080543492906101e4908490610c58565b92505081905550346000808282546101fc9190610c58565b909155505060005460405133917fd2dff949d20e874cc6ba1dcefb840fb8cf6000a4197bfb69accfea5a32443ff59161023d91348252602082015260400190565b60405180910390a27f00000000000000000000000000000000000000000000000000000000000000006000541015801561027a575060015460ff16155b1561028757610287610537565b005b600080fd5b34801561029a57600080fd5b506102c27f000000000000000000000000000000000000000000000000000000000000000081565b6040516001600160a01b0390911681526020015b60405180910390f35b3480156102eb57600080fd5b506102f46105db565b60408051978852602088019690965294860193909352606085019190915215156080840152151560a083015260c082015260e0016102d6565b34801561033957600080fd5b506103426106aa565b6040519081526020016102d6565b34801561035c57600080fd5b5061034261036b366004610c71565b6001600160a01b031660009081526002602052604090205490565b34801561039257600080fd5b5061039b610719565b60405190151581526020016102d6565b3480156103b757600080fd5b506103427f000000000000000000000000000000000000000000000000000000000000000081565b3480156103eb57600080fd5b506102c26103fa366004610ca1565b610752565b34801561040b57600080fd5b5061034261041a366004610c71565b60026020526000908152604090205481565b34801561043857600080fd5b5061028761077c565b34801561044d57600080fd5b506102c27f000000000000000000000000000000000000000000000000000000000000000081565b34801561048157600080fd5b5060015461039b9060ff1681565b34801561049b57600080fd5b506103427f000000000000000000000000000000000000000000000000000000000000000081565b3480156104cf57600080fd5b506104d86107e8565b6040516102d69190610cba565b3480156104f157600080fd5b5061028761084a565b34801561050657600080fd5b5061034260005481565b6102876109a7565b34801561052457600080fd5b5060015461039b90610100900460ff1681565b600180546000547f000000000000000000000000000000000000000000000000000000000000000081101561010090810261ffff19909316929092178317928390556040517f17be444bdf6f73dfd4057f6fb3494ab4a8591399b8703be2bd797f27cf86ff99936105b993900460ff1691909115158252602082015260400190565b60405180910390a1600154610100900460ff16156105d9576105d9610b48565b565b600080600080600080600080547f00000000000000000000000000000000000000000000000000000000000000007f00000000000000000000000000000000000000000000000000000000000000007f000000000000000000000000000000000000000000000000000000000000000042116106805761067b427f0000000000000000000000000000000000000000000000000000000000000000610d07565b610683565b60005b600154600354949c939b50919950975060ff80821697506101009091041694509092509050565b60007f00000000000000000000000000000000000000000000000000000000000000006000036106da5750600090565b7f0000000000000000000000000000000000000000000000000000000000000000600054606461070a9190610d1a565b6107149190610d31565b905090565b60015460009060ff161580156107145750507f000000000000000000000000000000000000000000000000000000000000000042111590565b6003818154811061076257600080fd5b6000918252602090912001546001600160a01b0316905081565b7f000000000000000000000000000000000000000000000000000000000000000042116107bc5760405163640d014560e11b815260040160405180910390fd5b60015460ff16156107e05760405163475a253560e01b815260040160405180910390fd5b6105d9610537565b6060600380548060200260200160405190810160405280929190818152602001828054801561084057602002820191906000526020600020905b81546001600160a01b03168152600190910190602001808311610822575b5050505050905090565b60015460ff1661089c577f000000000000000000000000000000000000000000000000000000000000000042116108945760405163640d014560e11b815260040160405180910390fd5b61089c610537565b600154610100900460ff16156108c557604051638f8e29a560e01b815260040160405180910390fd5b33600090815260026020526040812054908190036108f657604051631971fbf360e21b815260040160405180910390fd5b336000818152600260205260408082208290555190919083908381818185875af1925050503d8060008114610947576040519150601f19603f3d011682016040523d82523d6000602084013e61094c565b606091505b505090508061096e576040516312171d8360e31b815260040160405180910390fd5b60405182815233907fa171b6942063c6f2800ce40a780edce37baa2b618571b11eedd1e69e626e7d769060200160405180910390a25050565b7f00000000000000000000000000000000000000000000000000000000000000004211156109e857604051638320b48360e01b815260040160405180910390fd5b34600003610a0957604051631f2a200560e01b815260040160405180910390fd5b60015460ff1615610a2d5760405163475a253560e01b815260040160405180910390fd5b336000908152600260205260408120549003610a8657600380546001810182556000919091527fc2575a0e9e593c00f959f8c92f12db2869c3395a3b0502d05e2516446f71f85b0180546001600160a01b031916331790555b3360009081526002602052604081208054349290610aa5908490610c58565b9250508190555034600080828254610abd9190610c58565b909155505060005460405133917fd2dff949d20e874cc6ba1dcefb840fb8cf6000a4197bfb69accfea5a32443ff591610afe91348252602082015260400190565b60405180910390a27f000000000000000000000000000000000000000000000000000000000000000060005410158015610b3b575060015460ff16155b156105d9576105d9610537565b600080546040516001600160a01b037f00000000000000000000000000000000000000000000000000000000000000001691908381818185875af1925050503d8060008114610bb3576040519150601f19603f3d011682016040523d82523d6000602084013e610bb8565b606091505b5050905080610bda576040516312171d8360e31b815260040160405180910390fd5b7f00000000000000000000000000000000000000000000000000000000000000006001600160a01b03167f221c08a06b07a64803b3787861a3f276212fcccb51c2e6234077a9b8cb13047a600054604051610c3791815260200190565b60405180910390a250565b634e487b7160e01b600052601160045260246000fd5b80820180821115610c6b57610c6b610c42565b92915050565b600060208284031215610c8357600080fd5b81356001600160a01b0381168114610c9a57600080fd5b9392505050565b600060208284031215610cb357600080fd5b5035919050565b6020808252825182820181905260009190848201906040850190845b81811015610cfb5783516001600160a01b031683529284019291840191600101610cd6565b50909695505050505050565b81810381811115610c6b57610c6b610c42565b8082028115828204841417610c6b57610c6b610c42565b600082610d4e57634e487b7160e01b600052601260045260246000fd5b50049056fea26469706673582212207e35c1ce8c0cc92acc27376b8ae3fe43a71bcefe08185b62810f3e84738a54f864736f6c63430008140033a26469706673582212206f4563e17167bbaf0df2acf95e826e7b4ae8b3694652af73c693998a6d580ded64736f6c63430008140033",
  "linkReferences": {},
  "deployedLinkReferences": {}
}