{
  "_format": "hh-sol-artifact-1",
  "contractName": "EscrowFactory",
  "sourceName": "contracts/EscrowFactory.sol",
  "abi": [
    {
      "anonymous": false,
      "inputs": [
        {
          "indexed": true,
          "internalType": "address",
          "name": "escrowAddress",
          "type": "address"
        },
        {
          "indexed": true,
          "internalType": "address",
          "name": "company",
          "type": "address"
        },
        {
          "indexed": false,
          "internalType": "uint256",
          "name": "targetAmount",
          "type": "uint256"
        },
        {
          "indexed": false,
          "internalType": "uint256",
          "name": "deadline",
          "type": "uint256"
        },
        {
          "indexed": false,
          "internalType": "uint256",
          "name": "timestamp",
          "type": "uint256"
        }
      ],
      "name": "EscrowCreated",
      "type": "event"
    },
    {
      "inputs": [
        {
          "internalType": "uint256",
          "name": "",
          "type": "uint256"
        }
      ],
      "name": "allEscrows",
      "outputs": [
        {
          "internalType": "address",
          "name": "",
          "type": "address"
        }
      ],
      "stateMutability": "view",
      "type": "function"
    },
    {
      "inputs": [
        {
          "internalType": "address",
          "name": "",
          "type": "address"
        },
        {
          "internalType": "uint256",
          "name": "",
          "type": "uint256"
        }
      ],
      "name": "companyEscrows",
      "outputs": [
        {
          "internalType": "address",
          "name": "",
          "type": "address"
        }
      ],
      "stateMutability": "view",
      "type": "function"
    },
    {
      "inputs": [
        {
          "internalType": "address",
          "name": "_company",
          "type": "address"
        },
        {
          "internalType": "address",
          "name": "_masterWallet",
          "type": "address"
        },
        {
          "internalType": "uint256",
          "name": "_targetAmount",
          "type": "uint256"
        },
        {
          "internalType": "uint256",
          "name": "_durationInDays",
          "type": "uint256"
        }
      ],
      "name": "createEscrow",
      "outputs": [
        {
          "internalType": "address",
          "name": "escrowAddress",
          "type": "address"
        }
      ],
      "stateMutability": "nonpayable",
      "type": "function"
    },
    {
      "inputs": [
        {
          "internalType": "address",
          "name": "",
          "type": "address"
        }
      ],
      "name": "escrowToCompany",
      "outputs": [
        {
          "internalType": "address",
          "name": "",
          "type": "address"
        }
      ],
      "stateMutability": "view",
      "type": "function"
    },
    {
      "inputs": [],
      "name": "getAllEscrows",
      "outputs": [
        {
          "internalType": "address[]",
          "name": "",
          "type": "address[]"
        }
      ],
      "stateMutability": "view",
      "type": "function"
    },
    {
      "inputs": [
        {
          "internalType": "address",
          "name": "_company",
          "type": "address"
        }
      ],
      "name": "getCompanyEscrows",
      "outputs": [
        {
          "internalType": "address[]",
          "name": "",
          "type": "address[]"
        }
      ],
      "stateMutability": "view",
      "type": "function"
    },
    {
      "inputs": [
        {
          "internalType": "address",
          "name": "_escrow",
          "type": "address"
        }
      ],
      "name": "getEscrowCompany",
      "outputs": [
        {
          "internalType": "address",
          "name": "",
          "type": "address"
        }
      ],
      "stateMutability": "view",
      "type": "function"
    },
    {
      "inputs": [],
      "name": "getEscrowCount",
      "outputs": [
        {
          "internalType": "uint256",
          "name": "",
          "type": "uint256"
        }
      ],
      "stateMutability": "view",
      "type": "function"
    },
    {
      "inputs": [
        {
          "internalType": "address",
          "name": "_escrow",
          "type": "address"
        }
      ],
      "name": "getEscrowDetails",
      "outputs": [
        {
          "internalType": "address",
          "name": "company",
          "type": "address"
        },
        {
          "internalType": "uint256",
          "name": "totalRaised",
          "type": "uint256"
        },
        {
          "internalType": "uint256",
          "name": "targetAmount",
          "type": "uint256"
        },
        {
          "internalType": "uint256",
          "name": "deadline",
          "type": "uint256"
        },
        {
          "internalType": "bool",
          "name": "isFinalized",
          "type": "bool"
        },
        {
          "internalType": "bool",
          "name": "isSuccessful",
          "type": "bool"
        }
      ],
      "stateMutability": "view",
      "type": "function"
    }
  ],
  "bytecode": "0x608060405234801561001057600080fd5b5061196f806100206000396000f3fe608060405234801561001057600080fd5b50600436106100935760003560e01c8063440d7aac11610066578063440d7aac146101535780636e55959c146101735780639a6ac36f1461019c578063ccbae5f6146101a4578063edfe967e146101b757600080fd5b806301dbfac01461009857806316b15135146100e15780631d3afee6146100f257806329415a5914610105575b600080fd5b6100c46100a63660046106db565b6001600160a01b039081166000908152600260205260409020541690565b6040516001600160a01b0390911681526020015b60405180910390f35b6000546040519081526020016100d8565b6100c46101003660046106ff565b6101ca565b6101186101133660046106db565b6101f4565b604080516001600160a01b039097168752602087019590955293850192909252606084015215156080830152151560a082015260c0016100d8565b6101666101613660046106db565b610464565b6040516100d89190610718565b6100c46101813660046106db565b6002602052600090815260409020546001600160a01b031681565b6101666104da565b6100c46101b2366004610765565b61053c565b6100c46101c53660046107ab565b61067e565b600081815481106101da57600080fd5b6000918252602090912001546001600160a01b0316905081565b6000806000806000806000879050806001600160a01b0316636904c94d6040518163ffffffff1660e01b8152600401602060405180830381865afa158015610240573d6000803e3d6000fd5b505050506040513d601f19601f8201168201806040525081019061026491906107d7565b9650806001600160a01b031663c5c4744c6040518163ffffffff1660e01b8152600401602060405180830381865afa1580156102a4573d6000803e3d6000fd5b505050506040513d601f19601f820116820180604052508101906102c891906107f4565b9550806001600160a01b031663953b8fb86040518163ffffffff1660e01b8152600401602060405180830381865afa158015610308573d6000803e3d6000fd5b505050506040513d601f19601f8201168201806040525081019061032c91906107f4565b9450806001600160a01b03166329dcb0cf6040518163ffffffff1660e01b8152600401602060405180830381865afa15801561036c573d6000803e3d6000fd5b505050506040513d601f19601f8201168201806040525081019061039091906107f4565b9350806001600160a01b0316638d4e40836040518163ffffffff1660e01b8152600401602060405180830381865afa1580156103d0573d6000803e3d6000fd5b505050506040513d601f19601f820116820180604052508101906103f4919061080d565b9250806001600160a01b031663ec4cd0cf6040518163ffffffff1660e01b8152600401602060405180830381865afa158015610434573d6000803e3d6000fd5b505050506040513d601f19601f82011682018060405250810190610458919061080d565b91505091939550919395565b6001600160a01b0381166000908152600160209081526040918290208054835181840281018401909452808452606093928301828280156104ce57602002820191906000526020600020905b81546001600160a01b031681526001909101906020018083116104b0575b50505050509050919050565b6060600080548060200260200160405190810160405280929190818152602001828054801561053257602002820191906000526020600020905b81546001600160a01b03168152600190910190602001808311610514575b5050505050905090565b6000808585858560405161054f906106b6565b6001600160a01b03948516815293909216602084015260408301526060820152608001604051809103906000f08015801561058e573d6000803e3d6000fd5b5060008054600181810183557f290decd9548b62a8d60345a988386fc84ba6bc95484008f6362f93160ef3e56390910180546001600160a01b038086166001600160a01b031992831681179093558b168085526020848152604080872080549687018155875281872090950180548416851790558386526002905292909320805490931682179092559193508392507f55a9934455dc11a1b6228c92642169a0abbbaa81df9b1b559a7f0969d5eb5c6b8661064c8762015180610845565b6106569042610862565b604080519283526020830191909152429082015260600160405180910390a350949350505050565b6001602052816000526040600020818154811061069a57600080fd5b6000918252602090912001546001600160a01b03169150829050565b6110c48061087683390190565b6001600160a01b03811681146106d857600080fd5b50565b6000602082840312156106ed57600080fd5b81356106f8816106c3565b9392505050565b60006020828403121561071157600080fd5b5035919050565b6020808252825182820181905260009190848201906040850190845b818110156107595783516001600160a01b031683529284019291840191600101610734565b50909695505050505050565b6000806000806080858703121561077b57600080fd5b8435610786816106c3565b93506020850135610796816106c3565b93969395505050506040820135916060013590565b600080604083850312156107be57600080fd5b82356107c9816106c3565b946020939093013593505050565b6000602082840312156107e957600080fd5b81516106f8816106c3565b60006020828403121561080657600080fd5b5051919050565b60006020828403121561081f57600080fd5b815180151581146106f857600080fd5b634e487b7160e01b600052601160045260246000fd5b808202811582820484141761085c5761085c61082f565b92915050565b8082018082111561085c5761085c61082f56fe6101206040523480156200001257600080fd5b50604051620010c4380380620010c483398101604081905262000035916200012c565b6001600160a01b0384166200005d5760405163e6c4247b60e01b815260040160405180910390fd5b6001600160a01b038316620000855760405163e6c4247b60e01b815260040160405180910390fd5b81600003620000a757604051631f2a200560e01b815260040160405180910390fd5b80600003620000c957604051631f2a200560e01b815260040160405180910390fd5b6001600160a01b03808516608052831660a0523360c05260e0829052620000f481620151806200018a565b620001009042620001aa565b6101005250620001c092505050565b80516001600160a01b03811681146200012757600080fd5b919050565b600080600080608085870312156200014357600080fd5b6200014e856200010f565b93506200015e602086016200010f565b6040860151606090960151949790965092505050565b634e487b7160e01b600052601160045260246000fd5b8082028115828204841417620001a457620001a462000174565b92915050565b80820180821115620001a457620001a462000174565b60805160a05160c05160e05161010051610e4f6200027560003960008181610114015281816103c80152818161064a0152818161066b015281816106960152818161076c015281816107bd015281816108950152610a23015260008181610252015281816104ac0152818161057f01528181610629015281816106ed0152818161071b0152610b82015260006102ab01526000818161055401528181610bd30152610c560152600061045e0152610e4f6000f3fe60806040526004361061010d5760003560e01c80636904c94d11610095578063b5545a3c11610064578063b5545a3c146104f0578063c5c4744c14610505578063d7bb99ba1461051b578063ec4cd0cf14610523578063fc0d01171461054257600080fd5b80636904c94d1461044c5780638d4e408314610480578063953b8fb81461049a578063af157c19146104ce57600080fd5b806322f3e2d4116100dc57806322f3e2d41461039157806329dcb0cf146103b65780633cb5d100146103ea57806342e94c901461040a5780634bb278f31461043757600080fd5b806302d05d3f1461029957806310550515146102ea5780631931136c1461033857806321eff7fc1461035b57600080fd5b36610294577f000000000000000000000000000000000000000000000000000000000000000042111561015357604051638320b48360e01b815260040160405180910390fd5b60015460ff16156101775760405163475a253560e01b815260040160405180910390fd5b3360009081526002602052604081205490036101d057600380546001810182556000919091527fc2575a0e9e593c00f959f8c92f12db2869c3395a3b0502d05e2516446f71f85b0180546001600160a01b031916331790555b33600090815260026020526040812080543492906101ef908490610d1e565b92505081905550346000808282546102079190610d1e565b909155505060005460405133917fd2dff949d20e874cc6ba1dcefb840fb8cf6000a4197bfb69accfea5a32443ff59161024891348252602082015260400190565b60405180910390a27f000000000000000000000000000000000000000000000000000000000000000060005410158015610285575060015460ff16155b1561029257610292610576565b005b600080fd5b3480156102a557600080fd5b506102cd7f000000000000000000000000000000000000000000000000000000000000000081565b6040516001600160a01b0390911681526020015b60405180910390f35b3480156102f657600080fd5b506102ff61061a565b60408051978852602088019690965294860193909352606085019190915215156080840152151560a083015260c082015260e0016102e1565b34801561034457600080fd5b5061034d6106e9565b6040519081526020016102e1565b34801561036757600080fd5b5061034d610376366004610d37565b6001600160a01b031660009081526002602052604090205490565b34801561039d57600080fd5b506103a6610758565b60405190151581526020016102e1565b3480156103c257600080fd5b5061034d7f000000000000000000000000000000000000000000000000000000000000000081565b3480156103f657600080fd5b506102cd610405366004610d67565b610791565b34801561041657600080fd5b5061034d610425366004610d37565b60026020526000908152604090205481565b34801561044357600080fd5b506102926107bb565b34801561045857600080fd5b506102cd7f000000000000000000000000000000000000000000000000000000000000000081565b34801561048c57600080fd5b506001546103a69060ff1681565b3480156104a657600080fd5b5061034d7f000000000000000000000000000000000000000000000000000000000000000081565b3480156104da57600080fd5b506104e3610827565b6040516102e19190610d80565b3480156104fc57600080fd5b50610292610889565b34801561051157600080fd5b5061034d60005481565b610292610a21565b34801561052f57600080fd5b506001546103a690610100900460ff1681565b34801561054e57600080fd5b506102cd7f000000000000000000000000000000000000000000000000000000000000000081565b600180546000547f000000000000000000000000000000000000000000000000000000000000000081101561010090810261ffff19909316929092178317928390556040517f17be444bdf6f73dfd4057f6fb3494ab4a8591399b8703be2bd797f27cf86ff99936105f893900460ff1691909115158252602082015260400190565b60405180910390a1600154610100900460ff161561061857610618610bc2565b565b600080600080600080600080547f00000000000000000000000000000000000000000000000000000000000000007f00000000000000000000000000000000000000000000000000000000000000007f000000000000000000000000000000000000000000000000000000000000000042116106bf576106ba427f0000000000000000000000000000000000000000000000000000000000000000610dcd565b6106c2565b60005b600154600354949c939b50919950975060ff80821697506101009091041694509092509050565b60007f00000000000000000000000000000000000000000000000000000000000000006000036107195750600090565b7f000000000000000000000000000000000000000000000000000000000000000060005460646107499190610de0565b6107539190610df7565b905090565b60015460009060ff161580156107535750507f000000000000000000000000000000000000000000000000000000000000000042111590565b600381815481106107a157600080fd5b6000918252602090912001546001600160a01b0316905081565b7f000000000000000000000000000000000000000000000000000000000000000042116107fb5760405163640d014560e11b815260040160405180910390fd5b60015460ff161561081f5760405163475a253560e01b815260040160405180910390fd5b610618610576565b6060600380548060200260200160405190810160405280929190818152602001828054801561087f57602002820191906000526020600020905b81546001600160a01b03168152600190910190602001808311610861575b5050505050905090565b60015460ff166108db577f000000000000000000000000000000000000000000000000000000000000000042116108d35760405163640d014560e11b815260040160405180910390fd5b6108db610576565b600154610100900460ff161561090457604051638f8e29a560e01b815260040160405180910390fd5b336000908152600260205260408120549081900361093557604051631971fbf360e21b815260040160405180910390fd5b33600090815260026020526040812081905561094f610cbc565b90506000805482846109619190610de0565b61096b9190610df7565b905060006109798285610dcd565b604051909150600090339083908381818185875af1925050503d80600081146109be576040519150601f19603f3d011682016040523d82523d6000602084013e6109c3565b606091505b50509050806109e5576040516312171d8360e31b815260040160405180910390fd5b60405182815233907fa171b6942063c6f2800ce40a780edce37baa2b618571b11eedd1e69e626e7d769060200160405180910390a25050505050565b7f0000000000000000000000000000000000000000000000000000000000000000421115610a6257604051638320b48360e01b815260040160405180910390fd5b34600003610a8357604051631f2a200560e01b815260040160405180910390fd5b60015460ff1615610aa75760405163475a253560e01b815260040160405180910390fd5b336000908152600260205260408120549003610b0057600380546001810182556000919091527fc2575a0e9e593c00f959f8c92f12db2869c3395a3b0502d05e2516446f71f85b0180546001600160a01b031916331790555b3360009081526002602052604081208054349290610b1f908490610d1e565b9250508190555034600080828254610b379190610d1e565b909155505060005460405133917fd2dff949d20e874cc6ba1dcefb840fb8cf6000a4197bfb69accfea5a32443ff591610b7891348252602082015260400190565b60405180910390a27f000000000000000000000000000000000000000000000000000000000000000060005410158015610bb5575060015460ff16155b1561061857610618610576565b600080546040516001600160a01b037f00000000000000000000000000000000000000000000000000000000000000001691908381818185875af1925050503d8060008114610c2d576040519150601f19603f3d011682016040523d82523d6000602084013e610c32565b606091505b5050905080610c54576040516312171d8360e31b815260040160405180910390fd5b7f00000000000000000000000000000000000000000000000000000000000000006001600160a01b03167f221c08a06b07a64803b3787861a3f276212fcccb51c2e6234077a9b8cb13047a600054604051610cb191815260200190565b60405180910390a250565b6000806103e8600054610ccf9190610df7565b905066038d7ea4c6800067016345785d8a000081831015610cf1575092915050565b80831115610d00579392505050565b509092915050565b634e487b7160e01b600052601160045260246000fd5b80820180821115610d3157610d31610d08565b92915050565b600060208284031215610d4957600080fd5b81356001600160a01b0381168114610d6057600080fd5b9392505050565b600060208284031215610d7957600080fd5b5035919050565b6020808252825182820181905260009190848201906040850190845b81811015610dc15783516001600160a01b031683529284019291840191600101610d9c565b50909695505050505050565b81810381811115610d3157610d31610d08565b8082028115828204841417610d3157610d31610d08565b600082610e1457634e487b7160e01b600052601260045260246000fd5b50049056fea2646970667358221220dbc42a2670dadbeead73976283cdb75de2a44d5b46fb88356f1b5cf8c89a392064736f6c63430008140033a2646970667358221220aceb5144063260d358a7de171f18d22597a42a84e296e2fa947792f47f9c914864736f6c63430008140033",
  "linkReferences": {},
  "deployedLinkReferences": {}
}