{
  "_format": "hh-sol-artifact-1",
  "contractName": "EscrowFactory",
  "sourceName": "contracts/EscrowFactory.sol",
  "abi": [
    {
      "anonymous": false,
      "inputs": [
        {
          "indexed": true,
          "internalType": "address",
          "name": "escrowAddress",
          "type": "address"
        },
        {
          "indexed": true,
          "internalType": "address",
          "name": "company",
          "type": "address"
        },
        {
          "indexed": false,
          "internalType": "uint256",
          "name": "targetAmount",
          "type": "uint256"
        },
        {
          "indexed": false,
          "internalType": "uint256",
          "name": "deadline",
          "type": "uint256"
        },
        {
          "indexed": false,
          "internalType": "uint256",
          "name": "timestamp",
          "type": "uint256"
        },
        {
          "indexed": false,
          "internalType": "string",
          "name": "campaignName",
          "type": "string"
        },
        {
          "indexed": false,
          "internalType": "string",
          "name": "campaignDescription",
          "type": "string"
        }
      ],
      "name": "EscrowCreated",
      "type": "event"
    },
    {
      "inputs": [
        {
          "internalType": "uint256",
          "name": "",
          "type": "uint256"
        }
      ],
      "name": "allEscrows",
      "outputs": [
        {
          "internalType": "address",
          "name": "",
          "type": "address"
        }
      ],
      "stateMutability": "view",
      "type": "function"
    },
    {
      "inputs": [
        {
          "internalType": "address",
          "name": "",
          "type": "address"
        },
        {
          "internalType": "uint256",
          "name": "",
          "type": "uint256"
        }
      ],
      "name": "companyEscrows",
      "outputs": [
        {
          "internalType": "address",
          "name": "",
          "type": "address"
        }
      ],
      "stateMutability": "view",
      "type": "function"
    },
    {
      "inputs": [
        {
          "internalType": "address",
          "name": "_company",
          "type": "address"
        },
        {
          "internalType": "address",
          "name": "_masterWallet",
          "type": "address"
        },
        {
          "internalType": "uint256",
          "name": "_targetAmount",
          "type": "uint256"
        },
        {
          "internalType": "uint256",
          "name": "_durationInDays",
          "type": "uint256"
        },
        {
          "internalType": "string",
          "name": "_campaignName",
          "type": "string"
        },
        {
          "internalType": "string",
          "name": "_campaignDescription",
          "type": "string"
        }
      ],
      "name": "createEscrow",
      "outputs": [
        {
          "internalType": "address",
          "name": "escrowAddress",
          "type": "address"
        }
      ],
      "stateMutability": "nonpayable",
      "type": "function"
    },
    {
      "inputs": [
        {
          "internalType": "address",
          "name": "",
          "type": "address"
        }
      ],
      "name": "escrowToCompany",
      "outputs": [
        {
          "internalType": "address",
          "name": "",
          "type": "address"
        }
      ],
      "stateMutability": "view",
      "type": "function"
    },
    {
      "inputs": [],
      "name": "getAllEscrows",
      "outputs": [
        {
          "internalType": "address[]",
          "name": "",
          "type": "address[]"
        }
      ],
      "stateMutability": "view",
      "type": "function"
    },
    {
      "inputs": [
        {
          "internalType": "address",
          "name": "_company",
          "type": "address"
        }
      ],
      "name": "getCompanyEscrows",
      "outputs": [
        {
          "internalType": "address[]",
          "name": "",
          "type": "address[]"
        }
      ],
      "stateMutability": "view",
      "type": "function"
    },
    {
      "inputs": [
        {
          "internalType": "address",
          "name": "_escrow",
          "type": "address"
        }
      ],
      "name": "getEscrowCompany",
      "outputs": [
        {
          "internalType": "address",
          "name": "",
          "type": "address"
        }
      ],
      "stateMutability": "view",
      "type": "function"
    },
    {
      "inputs": [],
      "name": "getEscrowCount",
      "outputs": [
        {
          "internalType": "uint256",
          "name": "",
          "type": "uint256"
        }
      ],
      "stateMutability": "view",
      "type": "function"
    },
    {
      "inputs": [
        {
          "internalType": "address",
          "name": "_escrow",
          "type": "address"
        }
      ],
      "name": "getEscrowDetails",
      "outputs": [
        {
          "internalType": "address",
          "name": "company",
          "type": "address"
        },
        {
          "internalType": "uint256",
          "name": "totalRaised",
          "type": "uint256"
        },
        {
          "internalType": "uint256",
          "name": "targetAmount",
          "type": "uint256"
        },
        {
          "internalType": "uint256",
          "name": "deadline",
          "type": "uint256"
        },
        {
          "internalType": "bool",
          "name": "isFinalized",
          "type": "bool"
        },
        {
          "internalType": "bool",
          "name": "isSuccessful",
          "type": "bool"
        },
        {
          "internalType": "string",
          "name": "campaignName",
          "type": "string"
        },
        {
          "internalType": "string",
          "name": "campaignDescription",
          "type": "string"
        }
      ],
      "stateMutability": "view",
      "type": "function"
    }
  ],
  "bytecode": "0x608060405234801561001057600080fd5b50612198806100206000396000f3fe60806040523480156200001157600080fd5b50600436106200009f5760003560e01c8063440d7aac116200006e578063440d7aac14620001465780636e55959c146200016c5780639a6ac36f1462000198578063edfe967e14620001a2578063ef7ee7b914620001b957600080fd5b806301dbfac014620000a457806316b1513514620000f05780631d3afee6146200010257806329415a591462000119575b600080fd5b620000d3620000b5366004620007d8565b6001600160a01b039081166000908152600260205260409020541690565b6040516001600160a01b0390911681526020015b60405180910390f35b600054604051908152602001620000e7565b620000d362000113366004620007ff565b620001d0565b620001306200012a366004620007d8565b620001fb565b604051620000e79897969594939291906200086d565b6200015d62000157366004620007d8565b62000558565b604051620000e79190620008d8565b620000d36200017d366004620007d8565b6002602052600090815260409020546001600160a01b031681565b6200015d620005d0565b620000d3620001b336600462000927565b62000634565b620000d3620001ca366004620009a2565b6200066d565b60008181548110620001e157600080fd5b6000918252602090912001546001600160a01b0316905081565b6000806000806000806060806000899050806001600160a01b0316636904c94d6040518163ffffffff1660e01b8152600401602060405180830381865afa1580156200024b573d6000803e3d6000fd5b505050506040513d601f19601f8201168201806040525081019062000271919062000a55565b9850806001600160a01b031663c5c4744c6040518163ffffffff1660e01b8152600401602060405180830381865afa158015620002b2573d6000803e3d6000fd5b505050506040513d601f19601f82011682018060405250810190620002d8919062000a75565b9750806001600160a01b031663953b8fb86040518163ffffffff1660e01b8152600401602060405180830381865afa15801562000319573d6000803e3d6000fd5b505050506040513d601f19601f820116820180604052508101906200033f919062000a75565b9650806001600160a01b03166329dcb0cf6040518163ffffffff1660e01b8152600401602060405180830381865afa15801562000380573d6000803e3d6000fd5b505050506040513d601f19601f82011682018060405250810190620003a6919062000a75565b9550806001600160a01b0316638d4e40836040518163ffffffff1660e01b8152600401602060405180830381865afa158015620003e7573d6000803e3d6000fd5b505050506040513d601f19601f820116820180604052508101906200040d919062000a8f565b9450806001600160a01b031663ec4cd0cf6040518163ffffffff1660e01b8152600401602060405180830381865afa1580156200044e573d6000803e3d6000fd5b505050506040513d601f19601f8201168201806040525081019062000474919062000a8f565b9350806001600160a01b0316630724fda96040518163ffffffff1660e01b8152600401600060405180830381865afa158015620004b5573d6000803e3d6000fd5b505050506040513d6000823e601f3d908101601f19168201604052620004df919081019062000ac9565b9250806001600160a01b031663110842cb6040518163ffffffff1660e01b8152600401600060405180830381865afa15801562000520573d6000803e3d6000fd5b505050506040513d6000823e601f3d908101601f191682016040526200054a919081019062000ac9565b915050919395975091939597565b6001600160a01b038116600090815260016020908152604091829020805483518184028101840190945280845260609392830182828015620005c457602002820191906000526020600020905b81546001600160a01b03168152600190910190602001808311620005a5575b50505050509050919050565b606060008054806020026020016040519081016040528092919081815260200182805480156200062a57602002820191906000526020600020905b81546001600160a01b031681526001909101906020018083116200060b575b5050505050905090565b600160205281600052604060002081815481106200065157600080fd5b6000918252602090912001546001600160a01b03169150829050565b60008089898989898989896040516200068690620007b1565b6200069998979695949392919062000bab565b604051809103906000f080158015620006b6573d6000803e3d6000fd5b5060008054600181810183557f290decd9548b62a8d60345a988386fc84ba6bc95484008f6362f93160ef3e56390910180546001600160a01b038086166001600160a01b031992831681179093558f168085526020848152604080872080549687018155875281872090950180548416851790558386526002905292909320805490931682179092559193508392507f7b0c45389b4b4e5347cc1c5fb835db3275329fb950d9cb7b69fc6da70b83f4b98a620007768b6201518062000c13565b62000782904262000c33565b428b8b8b8b6040516200079c979695949392919062000c49565b60405180910390a35098975050505050505050565b6114ce8062000c9583390190565b6001600160a01b0381168114620007d557600080fd5b50565b600060208284031215620007eb57600080fd5b8135620007f881620007bf565b9392505050565b6000602082840312156200081257600080fd5b5035919050565b60005b83811015620008365781810151838201526020016200081c565b50506000910152565b600081518084526200085981602086016020860162000819565b601f01601f19169290920160200192915050565b600061010060018060a01b038b168352896020840152886040840152876060840152861515608084015285151560a08401528060c0840152620008b3818401866200083f565b905082810360e0840152620008c981856200083f565b9b9a5050505050505050505050565b6020808252825182820181905260009190848201906040850190845b818110156200091b5783516001600160a01b031683529284019291840191600101620008f4565b50909695505050505050565b600080604083850312156200093b57600080fd5b82356200094881620007bf565b946020939093013593505050565b60008083601f8401126200096957600080fd5b50813567ffffffffffffffff8111156200098257600080fd5b6020830191508360208285010111156200099b57600080fd5b9250929050565b60008060008060008060008060c0898b031215620009bf57600080fd5b8835620009cc81620007bf565b97506020890135620009de81620007bf565b96506040890135955060608901359450608089013567ffffffffffffffff8082111562000a0a57600080fd5b62000a188c838d0162000956565b909650945060a08b013591508082111562000a3257600080fd5b5062000a418b828c0162000956565b999c989b5096995094979396929594505050565b60006020828403121562000a6857600080fd5b8151620007f881620007bf565b60006020828403121562000a8857600080fd5b5051919050565b60006020828403121562000aa257600080fd5b81518015158114620007f857600080fd5b634e487b7160e01b600052604160045260246000fd5b60006020828403121562000adc57600080fd5b815167ffffffffffffffff8082111562000af557600080fd5b818401915084601f83011262000b0a57600080fd5b81518181111562000b1f5762000b1f62000ab3565b604051601f8201601f19908116603f0116810190838211818310171562000b4a5762000b4a62000ab3565b8160405282815287602084870101111562000b6457600080fd5b62000b7783602083016020880162000819565b979650505050505050565b81835281816020850137506000828201602090810191909152601f909101601f19169091010190565b6001600160a01b03898116825288166020820152604081018790526060810186905260c06080820181905260009062000be8908301868862000b82565b82810360a0840152620008c981858762000b82565b634e487b7160e01b600052601160045260246000fd5b808202811582820484141762000c2d5762000c2d62000bfd565b92915050565b8082018082111562000c2d5762000c2d62000bfd565b87815286602082015285604082015260a06060820152600062000c7160a08301868862000b82565b828103608084015262000c8681858762000b82565b9a995050505050505050505056fe6101206040523480156200001257600080fd5b50604051620014ce380380620014ce833981016040819052620000359162000210565b6001600160a01b0386166200005d5760405163e6c4247b60e01b815260040160405180910390fd5b6001600160a01b038516620000855760405163e6c4247b60e01b815260040160405180910390fd5b83600003620000a757604051631f2a200560e01b815260040160405180910390fd5b82600003620000c957604051631f2a200560e01b815260040160405180910390fd5b6001600160a01b03808716608052851660a0523360c05260e0849052620000f48362015180620002c9565b620001009042620002e9565b6101005260026200011283826200038e565b5060036200012182826200038e565b505050505050506200045a565b80516001600160a01b03811681146200014657600080fd5b919050565b634e487b7160e01b600052604160045260246000fd5b600082601f8301126200017357600080fd5b81516001600160401b03808211156200019057620001906200014b565b604051601f8301601f19908116603f01168101908282118183101715620001bb57620001bb6200014b565b81604052838152602092508683858801011115620001d857600080fd5b600091505b83821015620001fc5785820183015181830184015290820190620001dd565b600093810190920192909252949350505050565b60008060008060008060c087890312156200022a57600080fd5b62000235876200012e565b955062000245602088016200012e565b6040880151606089015160808a015192975090955093506001600160401b03808211156200027257600080fd5b620002808a838b0162000161565b935060a08901519150808211156200029757600080fd5b50620002a689828a0162000161565b9150509295509295509295565b634e487b7160e01b600052601160045260246000fd5b8082028115828204841417620002e357620002e3620002b3565b92915050565b80820180821115620002e357620002e3620002b3565b600181811c908216806200031457607f821691505b6020821081036200033557634e487b7160e01b600052602260045260246000fd5b50919050565b601f8211156200038957600081815260208120601f850160051c81016020861015620003645750805b601f850160051c820191505b81811015620003855782815560010162000370565b5050505b505050565b81516001600160401b03811115620003aa57620003aa6200014b565b620003c281620003bb8454620002ff565b846200033b565b602080601f831160018114620003fa5760008415620003e15750858301515b600019600386901b1c1916600185901b17855562000385565b600085815260208120601f198616915b828110156200042b578886015182559484019460019091019084016200040a565b50858210156200044a5787850151600019600388901b60f8161c191681555b5050505050600190811b01905550565b60805160a05160c05160e05161010051610fbf6200050f6000396000818161012a0152818161041501528181610725015281816107460152818161077101528181610854015281816108a50152818161097d0152610b0b015260008181610268015281816104f9015281816105cc01528181610704015281816107d5015281816108030152610c6a015260006102c10152600081816105a101528181610cbb0152610d3e015260006104ab0152610fbf6000f3fe6080604052600436106101235760003560e01c80634bb278f3116100a0578063b5545a3c11610064578063b5545a3c1461053d578063c5c4744c14610552578063d7bb99ba14610568578063ec4cd0cf14610570578063fc0d01171461058f57600080fd5b80634bb278f3146104845780636904c94d146104995780638d4e4083146104cd578063953b8fb8146104e7578063af157c191461051b57600080fd5b806321eff7fc116100e757806321eff7fc146103a857806322f3e2d4146103de57806329dcb0cf146104035780633cb5d1001461043757806342e94c901461045757600080fd5b806302d05d3f146102af5780630724fda9146103005780631055051514610322578063110842cb146103705780631931136c1461038557600080fd5b366102aa577f000000000000000000000000000000000000000000000000000000000000000042111561016957604051638320b48360e01b815260040160405180910390fd5b60015460ff161561018d5760405163475a253560e01b815260040160405180910390fd5b3360009081526004602052604081205490036101e657600580546001810182556000919091527f036b6384b5eca791c62761152d0c79bb0604c104a5fb6f4eb0703f3154bb3db00180546001600160a01b031916331790555b3360009081526004602052604081208054349290610205908490610e06565b925050819055503460008082825461021d9190610e06565b909155505060005460405133917fd2dff949d20e874cc6ba1dcefb840fb8cf6000a4197bfb69accfea5a32443ff59161025e91348252602082015260400190565b60405180910390a27f00000000000000000000000000000000000000000000000000000000000000006000541015801561029b575060015460ff16155b156102a8576102a86105c3565b005b600080fd5b3480156102bb57600080fd5b506102e37f000000000000000000000000000000000000000000000000000000000000000081565b6040516001600160a01b0390911681526020015b60405180910390f35b34801561030c57600080fd5b50610315610667565b6040516102f79190610e1f565b34801561032e57600080fd5b506103376106f5565b60408051978852602088019690965294860193909352606085019190915215156080840152151560a083015260c082015260e0016102f7565b34801561037c57600080fd5b506103156107c4565b34801561039157600080fd5b5061039a6107d1565b6040519081526020016102f7565b3480156103b457600080fd5b5061039a6103c3366004610e6d565b6001600160a01b031660009081526004602052604090205490565b3480156103ea57600080fd5b506103f3610840565b60405190151581526020016102f7565b34801561040f57600080fd5b5061039a7f000000000000000000000000000000000000000000000000000000000000000081565b34801561044357600080fd5b506102e3610452366004610e9d565b610879565b34801561046357600080fd5b5061039a610472366004610e6d565b60046020526000908152604090205481565b34801561049057600080fd5b506102a86108a3565b3480156104a557600080fd5b506102e37f000000000000000000000000000000000000000000000000000000000000000081565b3480156104d957600080fd5b506001546103f39060ff1681565b3480156104f357600080fd5b5061039a7f000000000000000000000000000000000000000000000000000000000000000081565b34801561052757600080fd5b5061053061090f565b6040516102f79190610eb6565b34801561054957600080fd5b506102a8610971565b34801561055e57600080fd5b5061039a60005481565b6102a8610b09565b34801561057c57600080fd5b506001546103f390610100900460ff1681565b34801561059b57600080fd5b506102e37f000000000000000000000000000000000000000000000000000000000000000081565b600180546000547f000000000000000000000000000000000000000000000000000000000000000081101561010090810261ffff19909316929092178317928390556040517f17be444bdf6f73dfd4057f6fb3494ab4a8591399b8703be2bd797f27cf86ff999361064593900460ff1691909115158252602082015260400190565b60405180910390a1600154610100900460ff161561066557610665610caa565b565b6002805461067490610f03565b80601f01602080910402602001604051908101604052809291908181526020018280546106a090610f03565b80156106ed5780601f106106c2576101008083540402835291602001916106ed565b820191906000526020600020905b8154815290600101906020018083116106d057829003601f168201915b505050505081565b600080600080600080600080547f00000000000000000000000000000000000000000000000000000000000000007f00000000000000000000000000000000000000000000000000000000000000007f0000000000000000000000000000000000000000000000000000000000000000421161079a57610795427f0000000000000000000000000000000000000000000000000000000000000000610f3d565b61079d565b60005b600154600554949c939b50919950975060ff80821697506101009091041694509092509050565b6003805461067490610f03565b60007f00000000000000000000000000000000000000000000000000000000000000006000036108015750600090565b7f000000000000000000000000000000000000000000000000000000000000000060005460646108319190610f50565b61083b9190610f67565b905090565b60015460009060ff1615801561083b5750507f000000000000000000000000000000000000000000000000000000000000000042111590565b6005818154811061088957600080fd5b6000918252602090912001546001600160a01b0316905081565b7f000000000000000000000000000000000000000000000000000000000000000042116108e35760405163640d014560e11b815260040160405180910390fd5b60015460ff16156109075760405163475a253560e01b815260040160405180910390fd5b6106656105c3565b6060600580548060200260200160405190810160405280929190818152602001828054801561096757602002820191906000526020600020905b81546001600160a01b03168152600190910190602001808311610949575b5050505050905090565b60015460ff166109c3577f000000000000000000000000000000000000000000000000000000000000000042116109bb5760405163640d014560e11b815260040160405180910390fd5b6109c36105c3565b600154610100900460ff16156109ec57604051638f8e29a560e01b815260040160405180910390fd5b3360009081526004602052604081205490819003610a1d57604051631971fbf360e21b815260040160405180910390fd5b336000908152600460205260408120819055610a37610da4565b9050600080548284610a499190610f50565b610a539190610f67565b90506000610a618285610f3d565b604051909150600090339083908381818185875af1925050503d8060008114610aa6576040519150601f19603f3d011682016040523d82523d6000602084013e610aab565b606091505b5050905080610acd576040516312171d8360e31b815260040160405180910390fd5b60405182815233907fa171b6942063c6f2800ce40a780edce37baa2b618571b11eedd1e69e626e7d769060200160405180910390a25050505050565b7f0000000000000000000000000000000000000000000000000000000000000000421115610b4a57604051638320b48360e01b815260040160405180910390fd5b34600003610b6b57604051631f2a200560e01b815260040160405180910390fd5b60015460ff1615610b8f5760405163475a253560e01b815260040160405180910390fd5b336000908152600460205260408120549003610be857600580546001810182556000919091527f036b6384b5eca791c62761152d0c79bb0604c104a5fb6f4eb0703f3154bb3db00180546001600160a01b031916331790555b3360009081526004602052604081208054349290610c07908490610e06565b9250508190555034600080828254610c1f9190610e06565b909155505060005460405133917fd2dff949d20e874cc6ba1dcefb840fb8cf6000a4197bfb69accfea5a32443ff591610c6091348252602082015260400190565b60405180910390a27f000000000000000000000000000000000000000000000000000000000000000060005410158015610c9d575060015460ff16155b15610665576106656105c3565b600080546040516001600160a01b037f00000000000000000000000000000000000000000000000000000000000000001691908381818185875af1925050503d8060008114610d15576040519150601f19603f3d011682016040523d82523d6000602084013e610d1a565b606091505b5050905080610d3c576040516312171d8360e31b815260040160405180910390fd5b7f00000000000000000000000000000000000000000000000000000000000000006001600160a01b03167f221c08a06b07a64803b3787861a3f276212fcccb51c2e6234077a9b8cb13047a600054604051610d9991815260200190565b60405180910390a250565b6000806103e8600054610db79190610f67565b905066038d7ea4c6800067016345785d8a000081831015610dd9575092915050565b80831115610de8579392505050565b509092915050565b634e487b7160e01b600052601160045260246000fd5b80820180821115610e1957610e19610df0565b92915050565b600060208083528351808285015260005b81811015610e4c57858101830151858201604001528201610e30565b506000604082860101526040601f19601f8301168501019250505092915050565b600060208284031215610e7f57600080fd5b81356001600160a01b0381168114610e9657600080fd5b9392505050565b600060208284031215610eaf57600080fd5b5035919050565b6020808252825182820181905260009190848201906040850190845b81811015610ef75783516001600160a01b031683529284019291840191600101610ed2565b50909695505050505050565b600181811c90821680610f1757607f821691505b602082108103610f3757634e487b7160e01b600052602260045260246000fd5b50919050565b81810381811115610e1957610e19610df0565b8082028115828204841417610e1957610e19610df0565b600082610f8457634e487b7160e01b600052601260045260246000fd5b50049056fea2646970667358221220e2639401a73de0c8d18013520e5a2e43b06fc1ebe9647c2deee519aee80c059e64736f6c63430008140033a26469706673582212208d823cb612adc3ed1c984a0b27f46ed336e6126091af4a25061b7586073a6c0664736f6c63430008140033",
  "linkReferences": {},
  "deployedLinkReferences": {}
}