{
  "_format": "hh-sol-artifact-1",
  "contractName": "CompanyWishlistEscrow",
  "sourceName": "contracts/CompanyWishlistEscrow.sol",
  "abi": [
    {
      "inputs": [
        {
          "internalType": "address",
          "name": "_company",
          "type": "address"
        },
        {
          "internalType": "address",
          "name": "_masterWallet",
          "type": "address"
        },
        {
          "internalType": "uint256",
          "name": "_targetAmount",
          "type": "uint256"
        },
        {
          "internalType": "uint256",
          "name": "_durationInDays",
          "type": "uint256"
        },
        {
          "internalType": "string",
          "name": "_campaignName",
          "type": "string"
        },
        {
          "internalType": "string",
          "name": "_campaignDescription",
          "type": "string"
        },
        {
          "internalType": "string",
          "name": "_wishlistItemId",
          "type": "string"
        }
      ],
      "stateMutability": "nonpayable",
      "type": "constructor"
    },
    {
      "inputs": [],
      "name": "AlreadyFinalized",
      "type": "error"
    },
    {
      "inputs": [],
      "name": "CampaignExpired",
      "type": "error"
    },
    {
      "inputs": [],
      "name": "CampaignNotExpired",
      "type": "error"
    },
    {
      "inputs": [],
      "name": "InvalidAddress",
      "type": "error"
    },
    {
      "inputs": [],
      "name": "NoContribution",
      "type": "error"
    },
    {
      "inputs": [],
      "name": "NotFinalized",
      "type": "error"
    },
    {
      "inputs": [],
      "name": "TargetAlreadyReached",
      "type": "error"
    },
    {
      "inputs": [],
      "name": "TargetNotReached",
      "type": "error"
    },
    {
      "inputs": [],
      "name": "TransferFailed",
      "type": "error"
    },
    {
      "inputs": [],
      "name": "ZeroAmount",
      "type": "error"
    },
    {
      "anonymous": false,
      "inputs": [
        {
          "indexed": false,
          "internalType": "bool",
          "name": "successful",
          "type": "bool"
        },
        {
          "indexed": false,
          "internalType": "uint256",
          "name": "totalRaised",
          "type": "uint256"
        }
      ],
      "name": "CampaignFinalized",
      "type": "event"
    },
    {
      "anonymous": false,
      "inputs": [
        {
          "indexed": true,
          "internalType": "address",
          "name": "contributor",
          "type": "address"
        },
        {
          "indexed": false,
          "internalType": "uint256",
          "name": "amount",
          "type": "uint256"
        },
        {
          "indexed": false,
          "internalType": "uint256",
          "name": "totalRaised",
          "type": "uint256"
        }
      ],
      "name": "ContributionReceived",
      "type": "event"
    },
    {
      "anonymous": false,
      "inputs": [
        {
          "indexed": true,
          "internalType": "address",
          "name": "company",
          "type": "address"
        },
        {
          "indexed": false,
          "internalType": "uint256",
          "name": "amount",
          "type": "uint256"
        }
      ],
      "name": "FundsReleased",
      "type": "event"
    },
    {
      "anonymous": false,
      "inputs": [
        {
          "indexed": true,
          "internalType": "address",
          "name": "contributor",
          "type": "address"
        },
        {
          "indexed": false,
          "internalType": "uint256",
          "name": "amount",
          "type": "uint256"
        }
      ],
      "name": "RefundIssued",
      "type": "event"
    },
    {
      "inputs": [],
      "name": "campaignDescription",
      "outputs": [
        {
          "internalType": "string",
          "name": "",
          "type": "string"
        }
      ],
      "stateMutability": "view",
      "type": "function"
    },
    {
      "inputs": [],
      "name": "campaignName",
      "outputs": [
        {
          "internalType": "string",
          "name": "",
          "type": "string"
        }
      ],
      "stateMutability": "view",
      "type": "function"
    },
    {
      "inputs": [],
      "name": "claimRefund",
      "outputs": [],
      "stateMutability": "nonpayable",
      "type": "function"
    },
    {
      "inputs": [],
      "name": "company",
      "outputs": [
        {
          "internalType": "address",
          "name": "",
          "type": "address"
        }
      ],
      "stateMutability": "view",
      "type": "function"
    },
    {
      "inputs": [],
      "name": "contribute",
      "outputs": [],
      "stateMutability": "payable",
      "type": "function"
    },
    {
      "inputs": [
        {
          "internalType": "address",
          "name": "",
          "type": "address"
        }
      ],
      "name": "contributions",
      "outputs": [
        {
          "internalType": "uint256",
          "name": "",
          "type": "uint256"
        }
      ],
      "stateMutability": "view",
      "type": "function"
    },
    {
      "inputs": [
        {
          "internalType": "uint256",
          "name": "",
          "type": "uint256"
        }
      ],
      "name": "contributors",
      "outputs": [
        {
          "internalType": "address",
          "name": "",
          "type": "address"
        }
      ],
      "stateMutability": "view",
      "type": "function"
    },
    {
      "inputs": [],
      "name": "creator",
      "outputs": [
        {
          "internalType": "address",
          "name": "",
          "type": "address"
        }
      ],
      "stateMutability": "view",
      "type": "function"
    },
    {
      "inputs": [],
      "name": "deadline",
      "outputs": [
        {
          "internalType": "uint256",
          "name": "",
          "type": "uint256"
        }
      ],
      "stateMutability": "view",
      "type": "function"
    },
    {
      "inputs": [],
      "name": "finalize",
      "outputs": [],
      "stateMutability": "nonpayable",
      "type": "function"
    },
    {
      "inputs": [],
      "name": "getCampaignStatus",
      "outputs": [
        {
          "internalType": "uint256",
          "name": "_totalRaised",
          "type": "uint256"
        },
        {
          "internalType": "uint256",
          "name": "_targetAmount",
          "type": "uint256"
        },
        {
          "internalType": "uint256",
          "name": "_deadline",
          "type": "uint256"
        },
        {
          "internalType": "uint256",
          "name": "_timeRemaining",
          "type": "uint256"
        },
        {
          "internalType": "bool",
          "name": "_isFinalized",
          "type": "bool"
        },
        {
          "internalType": "bool",
          "name": "_isSuccessful",
          "type": "bool"
        },
        {
          "internalType": "uint256",
          "name": "_contributorCount",
          "type": "uint256"
        }
      ],
      "stateMutability": "view",
      "type": "function"
    },
    {
      "inputs": [
        {
          "internalType": "address",
          "name": "contributor",
          "type": "address"
        }
      ],
      "name": "getContribution",
      "outputs": [
        {
          "internalType": "uint256",
          "name": "",
          "type": "uint256"
        }
      ],
      "stateMutability": "view",
      "type": "function"
    },
    {
      "inputs": [],
      "name": "getContributors",
      "outputs": [
        {
          "internalType": "address[]",
          "name": "",
          "type": "address[]"
        }
      ],
      "stateMutability": "view",
      "type": "function"
    },
    {
      "inputs": [],
      "name": "getProgressPercentage",
      "outputs": [
        {
          "internalType": "uint256",
          "name": "",
          "type": "uint256"
        }
      ],
      "stateMutability": "view",
      "type": "function"
    },
    {
      "inputs": [],
      "name": "isActive",
      "outputs": [
        {
          "internalType": "bool",
          "name": "",
          "type": "bool"
        }
      ],
      "stateMutability": "view",
      "type": "function"
    },
    {
      "inputs": [],
      "name": "isFinalized",
      "outputs": [
        {
          "internalType": "bool",
          "name": "",
          "type": "bool"
        }
      ],
      "stateMutability": "view",
      "type": "function"
    },
    {
      "inputs": [],
      "name": "isSuccessful",
      "outputs": [
        {
          "internalType": "bool",
          "name": "",
          "type": "bool"
        }
      ],
      "stateMutability": "view",
      "type": "function"
    },
    {
      "inputs": [],
      "name": "masterWallet",
      "outputs": [
        {
          "internalType": "address",
          "name": "",
          "type": "address"
        }
      ],
      "stateMutability": "view",
      "type": "function"
    },
    {
      "inputs": [],
      "name": "targetAmount",
      "outputs": [
        {
          "internalType": "uint256",
          "name": "",
          "type": "uint256"
        }
      ],
      "stateMutability": "view",
      "type": "function"
    },
    {
      "inputs": [],
      "name": "totalRaised",
      "outputs": [
        {
          "internalType": "uint256",
          "name": "",
          "type": "uint256"
        }
      ],
      "stateMutability": "view",
      "type": "function"
    },
    {
      "inputs": [],
      "name": "wishlistItemId",
      "outputs": [
        {
          "internalType": "string",
          "name": "",
          "type": "string"
        }
      ],
      "stateMutability": "view",
      "type": "function"
    },
    {
      "stateMutability": "payable",
      "type": "receive"
    }
  ],
  "bytecode": "0x6101206040523480156200001257600080fd5b506040516200153438038062001534833981016040819052620000359162000220565b6001600160a01b0387166200005d5760405163e6c4247b60e01b815260040160405180910390fd5b6001600160a01b038616620000855760405163e6c4247b60e01b815260040160405180910390fd5b84600003620000a757604051631f2a200560e01b815260040160405180910390fd5b83600003620000c957604051631f2a200560e01b815260040160405180910390fd5b6001600160a01b03808816608052861660a0523360c05260e0859052620000f4846201518062000302565b62000100904262000322565b610100526002620001128482620003c7565b506003620001218382620003c7565b506004620001308282620003c7565b505050505050505062000493565b80516001600160a01b03811681146200015657600080fd5b919050565b634e487b7160e01b600052604160045260246000fd5b600082601f8301126200018357600080fd5b81516001600160401b0380821115620001a057620001a06200015b565b604051601f8301601f19908116603f01168101908282118183101715620001cb57620001cb6200015b565b81604052838152602092508683858801011115620001e857600080fd5b600091505b838210156200020c5785820183015181830184015290820190620001ed565b600093810190920192909252949350505050565b600080600080600080600060e0888a0312156200023c57600080fd5b62000247886200013e565b965062000257602089016200013e565b604089015160608a015160808b015192985090965094506001600160401b03808211156200028457600080fd5b620002928b838c0162000171565b945060a08a0151915080821115620002a957600080fd5b620002b78b838c0162000171565b935060c08a0151915080821115620002ce57600080fd5b50620002dd8a828b0162000171565b91505092959891949750929550565b634e487b7160e01b600052601160045260246000fd5b80820281158282048414176200031c576200031c620002ec565b92915050565b808201808211156200031c576200031c620002ec565b600181811c908216806200034d57607f821691505b6020821081036200036e57634e487b7160e01b600052602260045260246000fd5b50919050565b601f821115620003c257600081815260208120601f850160051c810160208610156200039d5750805b601f850160051c820191505b81811015620003be57828155600101620003a9565b5050505b505050565b81516001600160401b03811115620003e357620003e36200015b565b620003fb81620003f4845462000338565b8462000374565b602080601f8311600181146200043357600084156200041a5750858301515b600019600386901b1c1916600185901b178555620003be565b600085815260208120601f198616915b82811015620004645788860151825594840194600190910190840162000443565b5085821015620004835787850151600019600388901b60f8161c191681555b5050505050600190811b01905550565b60805160a05160c05160e05161010051610fec62000548600039600081816101350152818161043501528181610745015281816107660152818161079101528181610874015281816108d2015281816109aa0152610b3801526000818161027301528181610519015281816105ec01528181610724015281816107f5015281816108230152610c97015260006102cc0152600081816105c101528181610ce80152610d6b015260006104cb0152610fec6000f3fe60806040526004361061012e5760003560e01c806342e94c90116100ab578063af157c191161006f578063af157c191461053b578063b5545a3c1461055d578063c5c4744c14610572578063d7bb99ba14610588578063ec4cd0cf14610590578063fc0d0117146105af57600080fd5b806342e94c90146104775780634bb278f3146104a45780636904c94d146104b95780638d4e4083146104ed578063953b8fb81461050757600080fd5b806321eff7fc116100f257806321eff7fc146103b357806322f3e2d4146103e95780632806020d1461040e57806329dcb0cf146104235780633cb5d1001461045757600080fd5b806302d05d3f146102ba5780630724fda91461030b578063105505151461032d578063110842cb1461037b5780631931136c1461039057600080fd5b366102b5577f000000000000000000000000000000000000000000000000000000000000000042111561017457604051638320b48360e01b815260040160405180910390fd5b60015460ff16156101985760405163475a253560e01b815260040160405180910390fd5b3360009081526005602052604081205490036101f157600680546001810182556000919091527ff652222313e28459528d920b65115c16c04f3efc82aaedc97be59f3f377c0d3f0180546001600160a01b031916331790555b3360009081526005602052604081208054349290610210908490610e33565b92505081905550346000808282546102289190610e33565b909155505060005460405133917fd2dff949d20e874cc6ba1dcefb840fb8cf6000a4197bfb69accfea5a32443ff59161026991348252602082015260400190565b60405180910390a27f0000000000000000000000000000000000000000000000000000000000000000600054101580156102a6575060015460ff16155b156102b3576102b36105e3565b005b600080fd5b3480156102c657600080fd5b506102ee7f000000000000000000000000000000000000000000000000000000000000000081565b6040516001600160a01b0390911681526020015b60405180910390f35b34801561031757600080fd5b50610320610687565b6040516103029190610e4c565b34801561033957600080fd5b50610342610715565b60408051978852602088019690965294860193909352606085019190915215156080840152151560a083015260c082015260e001610302565b34801561038757600080fd5b506103206107e4565b34801561039c57600080fd5b506103a56107f1565b604051908152602001610302565b3480156103bf57600080fd5b506103a56103ce366004610e9a565b6001600160a01b031660009081526005602052604090205490565b3480156103f557600080fd5b506103fe610860565b6040519015158152602001610302565b34801561041a57600080fd5b50610320610899565b34801561042f57600080fd5b506103a57f000000000000000000000000000000000000000000000000000000000000000081565b34801561046357600080fd5b506102ee610472366004610eca565b6108a6565b34801561048357600080fd5b506103a5610492366004610e9a565b60056020526000908152604090205481565b3480156104b057600080fd5b506102b36108d0565b3480156104c557600080fd5b506102ee7f000000000000000000000000000000000000000000000000000000000000000081565b3480156104f957600080fd5b506001546103fe9060ff1681565b34801561051357600080fd5b506103a57f000000000000000000000000000000000000000000000000000000000000000081565b34801561054757600080fd5b5061055061093c565b6040516103029190610ee3565b34801561056957600080fd5b506102b361099e565b34801561057e57600080fd5b506103a560005481565b6102b3610b36565b34801561059c57600080fd5b506001546103fe90610100900460ff1681565b3480156105bb57600080fd5b506102ee7f000000000000000000000000000000000000000000000000000000000000000081565b600180546000547f000000000000000000000000000000000000000000000000000000000000000081101561010090810261ffff19909316929092178317928390556040517f17be444bdf6f73dfd4057f6fb3494ab4a8591399b8703be2bd797f27cf86ff999361066593900460ff1691909115158252602082015260400190565b60405180910390a1600154610100900460ff161561068557610685610cd7565b565b6002805461069490610f30565b80601f01602080910402602001604051908101604052809291908181526020018280546106c090610f30565b801561070d5780601f106106e25761010080835404028352916020019161070d565b820191906000526020600020905b8154815290600101906020018083116106f057829003601f168201915b505050505081565b600080600080600080600080547f00000000000000000000000000000000000000000000000000000000000000007f00000000000000000000000000000000000000000000000000000000000000007f000000000000000000000000000000000000000000000000000000000000000042116107ba576107b5427f0000000000000000000000000000000000000000000000000000000000000000610f6a565b6107bd565b60005b600154600654949c939b50919950975060ff80821697506101009091041694509092509050565b6003805461069490610f30565b60007f00000000000000000000000000000000000000000000000000000000000000006000036108215750600090565b7f000000000000000000000000000000000000000000000000000000000000000060005460646108519190610f7d565b61085b9190610f94565b905090565b60015460009060ff1615801561085b5750507f000000000000000000000000000000000000000000000000000000000000000042111590565b6004805461069490610f30565b600681815481106108b657600080fd5b6000918252602090912001546001600160a01b0316905081565b7f000000000000000000000000000000000000000000000000000000000000000042116109105760405163640d014560e11b815260040160405180910390fd5b60015460ff16156109345760405163475a253560e01b815260040160405180910390fd5b6106856105e3565b6060600680548060200260200160405190810160405280929190818152602001828054801561099457602002820191906000526020600020905b81546001600160a01b03168152600190910190602001808311610976575b5050505050905090565b60015460ff166109f0577f000000000000000000000000000000000000000000000000000000000000000042116109e85760405163640d014560e11b815260040160405180910390fd5b6109f06105e3565b600154610100900460ff1615610a1957604051638f8e29a560e01b815260040160405180910390fd5b3360009081526005602052604081205490819003610a4a57604051631971fbf360e21b815260040160405180910390fd5b336000908152600560205260408120819055610a64610dd1565b9050600080548284610a769190610f7d565b610a809190610f94565b90506000610a8e8285610f6a565b604051909150600090339083908381818185875af1925050503d8060008114610ad3576040519150601f19603f3d011682016040523d82523d6000602084013e610ad8565b606091505b5050905080610afa576040516312171d8360e31b815260040160405180910390fd5b60405182815233907fa171b6942063c6f2800ce40a780edce37baa2b618571b11eedd1e69e626e7d769060200160405180910390a25050505050565b7f0000000000000000000000000000000000000000000000000000000000000000421115610b7757604051638320b48360e01b815260040160405180910390fd5b34600003610b9857604051631f2a200560e01b815260040160405180910390fd5b60015460ff1615610bbc5760405163475a253560e01b815260040160405180910390fd5b336000908152600560205260408120549003610c1557600680546001810182556000919091527ff652222313e28459528d920b65115c16c04f3efc82aaedc97be59f3f377c0d3f0180546001600160a01b031916331790555b3360009081526005602052604081208054349290610c34908490610e33565b9250508190555034600080828254610c4c9190610e33565b909155505060005460405133917fd2dff949d20e874cc6ba1dcefb840fb8cf6000a4197bfb69accfea5a32443ff591610c8d91348252602082015260400190565b60405180910390a27f000000000000000000000000000000000000000000000000000000000000000060005410158015610cca575060015460ff16155b15610685576106856105e3565b600080546040516001600160a01b037f00000000000000000000000000000000000000000000000000000000000000001691908381818185875af1925050503d8060008114610d42576040519150601f19603f3d011682016040523d82523d6000602084013e610d47565b606091505b5050905080610d69576040516312171d8360e31b815260040160405180910390fd5b7f00000000000000000000000000000000000000000000000000000000000000006001600160a01b03167f221c08a06b07a64803b3787861a3f276212fcccb51c2e6234077a9b8cb13047a600054604051610dc691815260200190565b60405180910390a250565b6000806103e8600054610de49190610f94565b905066038d7ea4c6800067016345785d8a000081831015610e06575092915050565b80831115610e15579392505050565b509092915050565b634e487b7160e01b600052601160045260246000fd5b80820180821115610e4657610e46610e1d565b92915050565b600060208083528351808285015260005b81811015610e7957858101830151858201604001528201610e5d565b506000604082860101526040601f19601f8301168501019250505092915050565b600060208284031215610eac57600080fd5b81356001600160a01b0381168114610ec357600080fd5b9392505050565b600060208284031215610edc57600080fd5b5035919050565b6020808252825182820181905260009190848201906040850190845b81811015610f245783516001600160a01b031683529284019291840191600101610eff565b50909695505050505050565b600181811c90821680610f4457607f821691505b602082108103610f6457634e487b7160e01b600052602260045260246000fd5b50919050565b81810381811115610e4657610e46610e1d565b8082028115828204841417610e4657610e46610e1d565b600082610fb157634e487b7160e01b600052601260045260246000fd5b50049056fea264697066735822122092bae3eb3d7e9e6d705694d43604f23aab278f59557ce521f1aeda2ee6f36cf364736f6c63430008140033",
  "linkReferences": {},
  "deployedLinkReferences": {}
}