{"contracts/CompanyWishlistEscrow.sol":{"CompanyWishlistEscrow":{"abi":[{"inputs":[{"internalType":"address","name":"_company","type":"address"},{"internalType":"address","name":"_masterWallet","type":"address"},{"internalType":"uint256","name":"_targetAmount","type":"uint256"},{"internalType":"uint256","name":"_durationInDays","type":"uint256"}],"stateMutability":"nonpayable","type":"constructor"},{"inputs":[],"name":"AlreadyFinalized","type":"error"},{"inputs":[],"name":"CampaignExpired","type":"error"},{"inputs":[],"name":"CampaignNotExpired","type":"error"},{"inputs":[],"name":"InvalidAddress","type":"error"},{"inputs":[],"name":"NoContribution","type":"error"},{"inputs":[],"name":"NotFinalized","type":"error"},{"inputs":[],"name":"TargetAlreadyReached","type":"error"},{"inputs":[],"name":"TargetNotReached","type":"error"},{"inputs":[],"name":"TransferFailed","type":"error"},{"inputs":[],"name":"ZeroAmount","type":"error"},{"anonymous":false,"inputs":[{"indexed":false,"internalType":"bool","name":"successful","type":"bool"},{"indexed":false,"internalType":"uint256","name":"totalRaised","type":"uint256"}],"name":"CampaignFinalized","type":"event"},{"anonymous":false,"inputs":[{"indexed":true,"internalType":"address","name":"contributor","type":"address"},{"indexed":false,"internalType":"uint256","name":"amount","type":"uint256"},{"indexed":false,"internalType":"uint256","name":"totalRaised","type":"uint256"}],"name":"ContributionReceived","type":"event"},{"anonymous":false,"inputs":[{"indexed":true,"internalType":"address","name":"company","type":"address"},{"indexed":false,"internalType":"uint256","name":"amount","type":"uint256"}],"name":"FundsReleased","type":"event"},{"anonymous":false,"inputs":[{"indexed":true,"internalType":"address","name":"contributor","type":"address"},{"indexed":false,"internalType":"uint256","name":"amount","type":"uint256"}],"name":"RefundIssued","type":"event"},{"inputs":[],"name":"claimRefund","outputs":[],"stateMutability":"nonpayable","type":"function"},{"inputs":[],"name":"company","outputs":[{"internalType":"address","name":"","type":"address"}],"stateMutability":"view","type":"function"},{"inputs":[],"name":"contribute","outputs":[],"stateMutability":"payable","type":"function"},{"inputs":[{"internalType":"address","name":"","type":"address"}],"name":"contributions","outputs":[{"internalType":"uint256","name":"","type":"uint256"}],"stateMutability":"view","type":"function"},{"inputs":[{"internalType":"uint256","name":"","type":"uint256"}],"name":"contributors","outputs":[{"internalType":"address","name":"","type":"address"}],"stateMutability":"view","type":"function"},{"inputs":[],"name":"creator","outputs":[{"internalType":"address","name":"","type":"address"}],"stateMutability":"view","type":"function"},{"inputs":[],"name":"deadline","outputs":[{"internalType":"uint256","name":"","type":"uint256"}],"stateMutability":"view","type":"function"},{"inputs":[],"name":"finalize","outputs":[],"stateMutability":"nonpayable","type":"function"},{"inputs":[],"name":"getCampaignStatus","outputs":[{"internalType":"uint256","name":"_totalRaised","type":"uint256"},{"internalType":"uint256","name":"_targetAmount","type":"uint256"},{"internalType":"uint256","name":"_deadline","type":"uint256"},{"internalType":"uint256","name":"_timeRemaining","type":"uint256"},{"internalType":"bool","name":"_isFinalized","type":"bool"},{"internalType":"bool","name":"_isSuccessful","type":"bool"},{"internalType":"uint256","name":"_contributorCount","type":"uint256"}],"stateMutability":"view","type":"function"},{"inputs":[{"internalType":"address","name":"contributor","type":"address"}],"name":"getContribution","outputs":[{"internalType":"uint256","name":"","type":"uint256"}],"stateMutability":"view","type":"function"},{"inputs":[],"name":"getContributors","outputs":[{"internalType":"address[]","name":"","type":"address[]"}],"stateMutability":"view","type":"function"},{"inputs":[],"name":"getProgressPercentage","outputs":[{"internalType":"uint256","name":"","type":"uint256"}],"stateMutability":"view","type":"function"},{"inputs":[],"name":"isActive","outputs":[{"internalType":"bool","name":"","type":"bool"}],"stateMutability":"view","type":"function"},{"inputs":[],"name":"isFinalized","outputs":[{"internalType":"bool","name":"","type":"bool"}],"stateMutability":"view","type":"function"},{"inputs":[],"name":"isSuccessful","outputs":[{"internalType":"bool","name":"","type":"bool"}],"stateMutability":"view","type":"function"},{"inputs":[],"name":"masterWallet","outputs":[{"internalType":"address","name":"","type":"address"}],"stateMutability":"view","type":"function"},{"inputs":[],"name":"targetAmount","outputs":[{"internalType":"uint256","name":"","type":"uint256"}],"stateMutability":"view","type":"function"},{"inputs":[],"name":"totalRaised","outputs":[{"internalType":"uint256","name":"","type":"uint256"}],"stateMutability":"view","type":"function"},{"stateMutability":"payable","type":"receive"}],"evm":{"bytecode":{"linkReferences":{},"object":"6101206040523480156200001257600080fd5b50604051620010c4380380620010c483398101604081905262000035916200012c565b6001600160a01b0384166200005d5760405163e6c4247b60e01b815260040160405180910390fd5b6001600160a01b038316620000855760405163e6c4247b60e01b815260040160405180910390fd5b81600003620000a757604051631f2a200560e01b815260040160405180910390fd5b80600003620000c957604051631f2a200560e01b815260040160405180910390fd5b6001600160a01b03808516608052831660a0523360c05260e0829052620000f481620151806200018a565b620001009042620001aa565b6101005250620001c092505050565b80516001600160a01b03811681146200012757600080fd5b919050565b600080600080608085870312156200014357600080fd5b6200014e856200010f565b93506200015e602086016200010f565b6040860151606090960151949790965092505050565b634e487b7160e01b600052601160045260246000fd5b8082028115828204841417620001a457620001a462000174565b92915050565b80820180821115620001a457620001a462000174565b60805160a05160c05160e05161010051610e4f6200027560003960008181610114015281816103c80152818161064a0152818161066b015281816106960152818161076c015281816107bd015281816108950152610a23015260008181610252015281816104ac0152818161057f01528181610629015281816106ed0152818161071b0152610b82015260006102ab01526000818161055401528181610bd30152610c560152600061045e0152610e4f6000f3fe60806040526004361061010d5760003560e01c80636904c94d11610095578063b5545a3c11610064578063b5545a3c146104f0578063c5c4744c14610505578063d7bb99ba1461051b578063ec4cd0cf14610523578063fc0d01171461054257600080fd5b80636904c94d1461044c5780638d4e408314610480578063953b8fb81461049a578063af157c19146104ce57600080fd5b806322f3e2d4116100dc57806322f3e2d41461039157806329dcb0cf146103b65780633cb5d100146103ea57806342e94c901461040a5780634bb278f31461043757600080fd5b806302d05d3f1461029957806310550515146102ea5780631931136c1461033857806321eff7fc1461035b57600080fd5b36610294577f000000000000000000000000000000000000000000000000000000000000000042111561015357604051638320b48360e01b815260040160405180910390fd5b60015460ff16156101775760405163475a253560e01b815260040160405180910390fd5b3360009081526002602052604081205490036101d057600380546001810182556000919091527fc2575a0e9e593c00f959f8c92f12db2869c3395a3b0502d05e2516446f71f85b0180546001600160a01b031916331790555b33600090815260026020526040812080543492906101ef908490610d1e565b92505081905550346000808282546102079190610d1e565b909155505060005460405133917fd2dff949d20e874cc6ba1dcefb840fb8cf6000a4197bfb69accfea5a32443ff59161024891348252602082015260400190565b60405180910390a27f000000000000000000000000000000000000000000000000000000000000000060005410158015610285575060015460ff16155b1561029257610292610576565b005b600080fd5b3480156102a557600080fd5b506102cd7f000000000000000000000000000000000000000000000000000000000000000081565b6040516001600160a01b0390911681526020015b60405180910390f35b3480156102f657600080fd5b506102ff61061a565b60408051978852602088019690965294860193909352606085019190915215156080840152151560a083015260c082015260e0016102e1565b34801561034457600080fd5b5061034d6106e9565b6040519081526020016102e1565b34801561036757600080fd5b5061034d610376366004610d37565b6001600160a01b031660009081526002602052604090205490565b34801561039d57600080fd5b506103a6610758565b60405190151581526020016102e1565b3480156103c257600080fd5b5061034d7f000000000000000000000000000000000000000000000000000000000000000081565b3480156103f657600080fd5b506102cd610405366004610d67565b610791565b34801561041657600080fd5b5061034d610425366004610d37565b60026020526000908152604090205481565b34801561044357600080fd5b506102926107bb565b34801561045857600080fd5b506102cd7f000000000000000000000000000000000000000000000000000000000000000081565b34801561048c57600080fd5b506001546103a69060ff1681565b3480156104a657600080fd5b5061034d7f000000000000000000000000000000000000000000000000000000000000000081565b3480156104da57600080fd5b506104e3610827565b6040516102e19190610d80565b3480156104fc57600080fd5b50610292610889565b34801561051157600080fd5b5061034d60005481565b610292610a21565b34801561052f57600080fd5b506001546103a690610100900460ff1681565b34801561054e57600080fd5b506102cd7f000000000000000000000000000000000000000000000000000000000000000081565b600180546000547f000000000000000000000000000000000000000000000000000000000000000081101561010090810261ffff19909316929092178317928390556040517f17be444bdf6f73dfd4057f6fb3494ab4a8591399b8703be2bd797f27cf86ff99936105f893900460ff1691909115158252602082015260400190565b60405180910390a1600154610100900460ff161561061857610618610bc2565b565b600080600080600080600080547f00000000000000000000000000000000000000000000000000000000000000007f00000000000000000000000000000000000000000000000000000000000000007f000000000000000000000000000000000000000000000000000000000000000042116106bf576106ba427f0000000000000000000000000000000000000000000000000000000000000000610dcd565b6106c2565b60005b600154600354949c939b50919950975060ff80821697506101009091041694509092509050565b60007f00000000000000000000000000000000000000000000000000000000000000006000036107195750600090565b7f000000000000000000000000000000000000000000000000000000000000000060005460646107499190610de0565b6107539190610df7565b905090565b60015460009060ff161580156107535750507f000000000000000000000000000000000000000000000000000000000000000042111590565b600381815481106107a157600080fd5b6000918252602090912001546001600160a01b0316905081565b7f000000000000000000000000000000000000000000000000000000000000000042116107fb5760405163640d014560e11b815260040160405180910390fd5b60015460ff161561081f5760405163475a253560e01b815260040160405180910390fd5b610618610576565b6060600380548060200260200160405190810160405280929190818152602001828054801561087f57602002820191906000526020600020905b81546001600160a01b03168152600190910190602001808311610861575b5050505050905090565b60015460ff166108db577f000000000000000000000000000000000000000000000000000000000000000042116108d35760405163640d014560e11b815260040160405180910390fd5b6108db610576565b600154610100900460ff161561090457604051638f8e29a560e01b815260040160405180910390fd5b336000908152600260205260408120549081900361093557604051631971fbf360e21b815260040160405180910390fd5b33600090815260026020526040812081905561094f610cbc565b90506000805482846109619190610de0565b61096b9190610df7565b905060006109798285610dcd565b604051909150600090339083908381818185875af1925050503d80600081146109be576040519150601f19603f3d011682016040523d82523d6000602084013e6109c3565b606091505b50509050806109e5576040516312171d8360e31b815260040160405180910390fd5b60405182815233907fa171b6942063c6f2800ce40a780edce37baa2b618571b11eedd1e69e626e7d769060200160405180910390a25050505050565b7f0000000000000000000000000000000000000000000000000000000000000000421115610a6257604051638320b48360e01b815260040160405180910390fd5b34600003610a8357604051631f2a200560e01b815260040160405180910390fd5b60015460ff1615610aa75760405163475a253560e01b815260040160405180910390fd5b336000908152600260205260408120549003610b0057600380546001810182556000919091527fc2575a0e9e593c00f959f8c92f12db2869c3395a3b0502d05e2516446f71f85b0180546001600160a01b031916331790555b3360009081526002602052604081208054349290610b1f908490610d1e565b9250508190555034600080828254610b379190610d1e565b909155505060005460405133917fd2dff949d20e874cc6ba1dcefb840fb8cf6000a4197bfb69accfea5a32443ff591610b7891348252602082015260400190565b60405180910390a27f000000000000000000000000000000000000000000000000000000000000000060005410158015610bb5575060015460ff16155b1561061857610618610576565b600080546040516001600160a01b037f00000000000000000000000000000000000000000000000000000000000000001691908381818185875af1925050503d8060008114610c2d576040519150601f19603f3d011682016040523d82523d6000602084013e610c32565b606091505b5050905080610c54576040516312171d8360e31b815260040160405180910390fd5b7f00000000000000000000000000000000000000000000000000000000000000006001600160a01b03167f221c08a06b07a64803b3787861a3f276212fcccb51c2e6234077a9b8cb13047a600054604051610cb191815260200190565b60405180910390a250565b6000806103e8600054610ccf9190610df7565b905066038d7ea4c6800067016345785d8a000081831015610cf1575092915050565b80831115610d00579392505050565b509092915050565b634e487b7160e01b600052601160045260246000fd5b80820180821115610d3157610d31610d08565b92915050565b600060208284031215610d4957600080fd5b81356001600160a01b0381168114610d6057600080fd5b9392505050565b600060208284031215610d7957600080fd5b5035919050565b6020808252825182820181905260009190848201906040850190845b81811015610dc15783516001600160a01b031683529284019291840191600101610d9c565b50909695505050505050565b81810381811115610d3157610d31610d08565b8082028115828204841417610d3157610d31610d08565b600082610e1457634e487b7160e01b600052601260045260246000fd5b50049056fea2646970667358221220dbc42a2670dadbeead73976283cdb75de2a44d5b46fb88356f1b5cf8c89a392064736f6c63430008140033","opcodes":"PUSH2 0x120 PUSH1 0x40 MSTORE CALLVALUE DUP1 ISZERO PUSH3 0x12 JUMPI PUSH1 0x0 DUP1 REVERT JUMPDEST POP PUSH1 0x40 MLOAD PUSH3 0x10C4 CODESIZE SUB DUP1 PUSH3 0x10C4 DUP4 CODECOPY DUP2 ADD PUSH1 0x40 DUP2 SWAP1 MSTORE PUSH3 0x35 SWAP2 PUSH3 0x12C JUMP JUMPDEST PUSH1 0x1 PUSH1 0x1 PUSH1 0xA0 SHL SUB DUP5 AND PUSH3 0x5D JUMPI PUSH1 0x40 MLOAD PUSH4 0xE6C4247B PUSH1 0xE0 SHL DUP2 MSTORE PUSH1 0x4 ADD PUSH1 0x40 MLOAD DUP1 SWAP2 SUB SWAP1 REVERT JUMPDEST PUSH1 0x1 PUSH1 0x1 PUSH1 0xA0 SHL SUB DUP4 AND PUSH3 0x85 JUMPI PUSH1 0x40 MLOAD PUSH4 0xE6C4247B PUSH1 0xE0 SHL DUP2 MSTORE PUSH1 0x4 ADD PUSH1 0x40 MLOAD DUP1 SWAP2 SUB SWAP1 REVERT JUMPDEST DUP2 PUSH1 0x0 SUB PUSH3 0xA7 JUMPI PUSH1 0x40 MLOAD PUSH4 0x1F2A2005 PUSH1 0xE0 SHL DUP2 MSTORE PUSH1 0x4 ADD PUSH1 0x40 MLOAD DUP1 SWAP2 SUB SWAP1 REVERT JUMPDEST DUP1 PUSH1 0x0 SUB PUSH3 0xC9 JUMPI PUSH1 0x40 MLOAD PUSH4 0x1F2A2005 PUSH1 0xE0 SHL DUP2 MSTORE PUSH1 0x4 ADD PUSH1 0x40 MLOAD DUP1 SWAP2 SUB SWAP1 REVERT JUMPDEST PUSH1 0x1 PUSH1 0x1 PUSH1 0xA0 SHL SUB DUP1 DUP6 AND PUSH1 0x80 MSTORE DUP4 AND PUSH1 0xA0 MSTORE CALLER PUSH1 0xC0 MSTORE PUSH1 0xE0 DUP3 SWAP1 MSTORE PUSH3 0xF4 DUP2 PUSH3 0x15180 PUSH3 0x18A JUMP JUMPDEST PUSH3 0x100 SWAP1 TIMESTAMP PUSH3 0x1AA JUMP JUMPDEST PUSH2 0x100 MSTORE POP PUSH3 0x1C0 SWAP3 POP POP POP JUMP JUMPDEST DUP1 MLOAD PUSH1 0x1 PUSH1 0x1 PUSH1 0xA0 SHL SUB DUP2 AND DUP2 EQ PUSH3 0x127 JUMPI PUSH1 0x0 DUP1 REVERT JUMPDEST SWAP2 SWAP1 POP JUMP JUMPDEST PUSH1 0x0 DUP1 PUSH1 0x0 DUP1 PUSH1 0x80 DUP6 DUP8 SUB SLT ISZERO PUSH3 0x143 JUMPI PUSH1 0x0 DUP1 REVERT JUMPDEST PUSH3 0x14E DUP6 PUSH3 0x10F JUMP JUMPDEST SWAP4 POP PUSH3 0x15E PUSH1 0x20 DUP7 ADD PUSH3 0x10F JUMP JUMPDEST PUSH1 0x40 DUP7 ADD MLOAD PUSH1 0x60 SWAP1 SWAP7 ADD MLOAD SWAP5 SWAP8 SWAP1 SWAP7 POP SWAP3 POP POP POP JUMP JUMPDEST PUSH4 0x4E487B71 PUSH1 0xE0 SHL PUSH1 0x0 MSTORE PUSH1 0x11 PUSH1 0x4 MSTORE PUSH1 0x24 PUSH1 0x0 REVERT JUMPDEST DUP1 DUP3 MUL DUP2 ISZERO DUP3 DUP3 DIV DUP5 EQ OR PUSH3 0x1A4 JUMPI PUSH3 0x1A4 PUSH3 0x174 JUMP JUMPDEST SWAP3 SWAP2 POP POP JUMP JUMPDEST DUP1 DUP3 ADD DUP1 DUP3 GT ISZERO PUSH3 0x1A4 JUMPI PUSH3 0x1A4 PUSH3 0x174 JUMP JUMPDEST PUSH1 0x80 MLOAD PUSH1 0xA0 MLOAD PUSH1 0xC0 MLOAD PUSH1 0xE0 MLOAD PUSH2 0x100 MLOAD PUSH2 0xE4F PUSH3 0x275 PUSH1 0x0 CODECOPY PUSH1 0x0 DUP2 DUP2 PUSH2 0x114 ADD MSTORE DUP2 DUP2 PUSH2 0x3C8 ADD MSTORE DUP2 DUP2 PUSH2 0x64A ADD MSTORE DUP2 DUP2 PUSH2 0x66B ADD MSTORE DUP2 DUP2 PUSH2 0x696 ADD MSTORE DUP2 DUP2 PUSH2 0x76C ADD MSTORE DUP2 DUP2 PUSH2 0x7BD ADD MSTORE DUP2 DUP2 PUSH2 0x895 ADD MSTORE PUSH2 0xA23 ADD MSTORE PUSH1 0x0 DUP2 DUP2 PUSH2 0x252 ADD MSTORE DUP2 DUP2 PUSH2 0x4AC ADD MSTORE DUP2 DUP2 PUSH2 0x57F ADD MSTORE DUP2 DUP2 PUSH2 0x629 ADD MSTORE DUP2 DUP2 PUSH2 0x6ED ADD MSTORE DUP2 DUP2 PUSH2 0x71B ADD MSTORE PUSH2 0xB82 ADD MSTORE PUSH1 0x0 PUSH2 0x2AB ADD MSTORE PUSH1 0x0 DUP2 DUP2 PUSH2 0x554 ADD MSTORE DUP2 DUP2 PUSH2 0xBD3 ADD MSTORE PUSH2 0xC56 ADD MSTORE PUSH1 0x0 PUSH2 0x45E ADD MSTORE PUSH2 0xE4F PUSH1 0x0 RETURN INVALID PUSH1 0x80 PUSH1 0x40 MSTORE PUSH1 0x4 CALLDATASIZE LT PUSH2 0x10D JUMPI PUSH1 0x0 CALLDATALOAD PUSH1 0xE0 SHR DUP1 PUSH4 0x6904C94D GT PUSH2 0x95 JUMPI DUP1 PUSH4 0xB5545A3C GT PUSH2 0x64 JUMPI DUP1 PUSH4 0xB5545A3C EQ PUSH2 0x4F0 JUMPI DUP1 PUSH4 0xC5C4744C EQ PUSH2 0x505 JUMPI DUP1 PUSH4 0xD7BB99BA EQ PUSH2 0x51B JUMPI DUP1 PUSH4 0xEC4CD0CF EQ PUSH2 0x523 JUMPI DUP1 PUSH4 0xFC0D0117 EQ PUSH2 0x542 JUMPI PUSH1 0x0 DUP1 REVERT JUMPDEST DUP1 PUSH4 0x6904C94D EQ PUSH2 0x44C JUMPI DUP1 PUSH4 0x8D4E4083 EQ PUSH2 0x480 JUMPI DUP1 PUSH4 0x953B8FB8 EQ PUSH2 0x49A JUMPI DUP1 PUSH4 0xAF157C19 EQ PUSH2 0x4CE JUMPI PUSH1 0x0 DUP1 REVERT JUMPDEST DUP1 PUSH4 0x22F3E2D4 GT PUSH2 0xDC JUMPI DUP1 PUSH4 0x22F3E2D4 EQ PUSH2 0x391 JUMPI DUP1 PUSH4 0x29DCB0CF EQ PUSH2 0x3B6 JUMPI DUP1 PUSH4 0x3CB5D100 EQ PUSH2 0x3EA JUMPI DUP1 PUSH4 0x42E94C90 EQ PUSH2 0x40A JUMPI DUP1 PUSH4 0x4BB278F3 EQ PUSH2 0x437 JUMPI PUSH1 0x0 DUP1 REVERT JUMPDEST DUP1 PUSH4 0x2D05D3F EQ PUSH2 0x299 JUMPI DUP1 PUSH4 0x10550515 EQ PUSH2 0x2EA JUMPI DUP1 PUSH4 0x1931136C EQ PUSH2 0x338 JUMPI DUP1 PUSH4 0x21EFF7FC EQ PUSH2 0x35B JUMPI PUSH1 0x0 DUP1 REVERT JUMPDEST CALLDATASIZE PUSH2 0x294 JUMPI PUSH32 0x0 TIMESTAMP GT ISZERO PUSH2 0x153 JUMPI PUSH1 0x40 MLOAD PUSH4 0x8320B483 PUSH1 0xE0 SHL DUP2 MSTORE PUSH1 0x4 ADD PUSH1 0x40 MLOAD DUP1 SWAP2 SUB SWAP1 REVERT JUMPDEST PUSH1 0x1 SLOAD PUSH1 0xFF AND ISZERO PUSH2 0x177 JUMPI PUSH1 0x40 MLOAD PUSH4 0x475A2535 PUSH1 0xE0 SHL DUP2 MSTORE PUSH1 0x4 ADD PUSH1 0x40 MLOAD DUP1 SWAP2 SUB SWAP1 REVERT JUMPDEST CALLER PUSH1 0x0 SWAP1 DUP2 MSTORE PUSH1 0x2 PUSH1 0x20 MSTORE PUSH1 0x40 DUP2 KECCAK256 SLOAD SWAP1 SUB PUSH2 0x1D0 JUMPI PUSH1 0x3 DUP1 SLOAD PUSH1 0x1 DUP2 ADD DUP3 SSTORE PUSH1 0x0 SWAP2 SWAP1 SWAP2 MSTORE PUSH32 0xC2575A0E9E593C00F959F8C92F12DB2869C3395A3B0502D05E2516446F71F85B ADD DUP1 SLOAD PUSH1 0x1 PUSH1 0x1 PUSH1 0xA0 SHL SUB NOT AND CALLER OR SWAP1 SSTORE JUMPDEST CALLER PUSH1 0x0 SWAP1 DUP2 MSTORE PUSH1 0x2 PUSH1 0x20 MSTORE PUSH1 0x40 DUP2 KECCAK256 DUP1 SLOAD CALLVALUE SWAP3 SWAP1 PUSH2 0x1EF SWAP1 DUP5 SWAP1 PUSH2 0xD1E JUMP JUMPDEST SWAP3 POP POP DUP2 SWAP1 SSTORE POP CALLVALUE PUSH1 0x0 DUP1 DUP3 DUP3 SLOAD PUSH2 0x207 SWAP2 SWAP1 PUSH2 0xD1E JUMP JUMPDEST SWAP1 SWAP2 SSTORE POP POP PUSH1 0x0 SLOAD PUSH1 0x40 MLOAD CALLER SWAP2 PUSH32 0xD2DFF949D20E874CC6BA1DCEFB840FB8CF6000A4197BFB69ACCFEA5A32443FF5 SWAP2 PUSH2 0x248 SWAP2 CALLVALUE DUP3 MSTORE PUSH1 0x20 DUP3 ADD MSTORE PUSH1 0x40 ADD SWAP1 JUMP JUMPDEST PUSH1 0x40 MLOAD DUP1 SWAP2 SUB SWAP1 LOG2 PUSH32 0x0 PUSH1 0x0 SLOAD LT ISZERO DUP1 ISZERO PUSH2 0x285 JUMPI POP PUSH1 0x1 SLOAD PUSH1 0xFF AND ISZERO JUMPDEST ISZERO PUSH2 0x292 JUMPI PUSH2 0x292 PUSH2 0x576 JUMP JUMPDEST STOP JUMPDEST PUSH1 0x0 DUP1 REVERT JUMPDEST CALLVALUE DUP1 ISZERO PUSH2 0x2A5 JUMPI PUSH1 0x0 DUP1 REVERT JUMPDEST POP PUSH2 0x2CD PUSH32 0x0 DUP2 JUMP JUMPDEST PUSH1 0x40 MLOAD PUSH1 0x1 PUSH1 0x1 PUSH1 0xA0 SHL SUB SWAP1 SWAP2 AND DUP2 MSTORE PUSH1 0x20 ADD JUMPDEST PUSH1 0x40 MLOAD DUP1 SWAP2 SUB SWAP1 RETURN JUMPDEST CALLVALUE DUP1 ISZERO PUSH2 0x2F6 JUMPI PUSH1 0x0 DUP1 REVERT JUMPDEST POP PUSH2 0x2FF PUSH2 0x61A JUMP JUMPDEST PUSH1 0x40 DUP1 MLOAD SWAP8 DUP9 MSTORE PUSH1 0x20 DUP9 ADD SWAP7 SWAP1 SWAP7 MSTORE SWAP5 DUP7 ADD SWAP4 SWAP1 SWAP4 MSTORE PUSH1 0x60 DUP6 ADD SWAP2 SWAP1 SWAP2 MSTORE ISZERO ISZERO PUSH1 0x80 DUP5 ADD MSTORE ISZERO ISZERO PUSH1 0xA0 DUP4 ADD MSTORE PUSH1 0xC0 DUP3 ADD MSTORE PUSH1 0xE0 ADD PUSH2 0x2E1 JUMP JUMPDEST CALLVALUE DUP1 ISZERO PUSH2 0x344 JUMPI PUSH1 0x0 DUP1 REVERT JUMPDEST POP PUSH2 0x34D PUSH2 0x6E9 JUMP JUMPDEST PUSH1 0x40 MLOAD SWAP1 DUP2 MSTORE PUSH1 0x20 ADD PUSH2 0x2E1 JUMP JUMPDEST CALLVALUE DUP1 ISZERO PUSH2 0x367 JUMPI PUSH1 0x0 DUP1 REVERT JUMPDEST POP PUSH2 0x34D PUSH2 0x376 CALLDATASIZE PUSH1 0x4 PUSH2 0xD37 JUMP JUMPDEST PUSH1 0x1 PUSH1 0x1 PUSH1 0xA0 SHL SUB AND PUSH1 0x0 SWAP1 DUP2 MSTORE PUSH1 0x2 PUSH1 0x20 MSTORE PUSH1 0x40 SWAP1 KECCAK256 SLOAD SWAP1 JUMP JUMPDEST CALLVALUE DUP1 ISZERO PUSH2 0x39D JUMPI PUSH1 0x0 DUP1 REVERT JUMPDEST POP PUSH2 0x3A6 PUSH2 0x758 JUMP JUMPDEST PUSH1 0x40 MLOAD SWAP1 ISZERO ISZERO DUP2 MSTORE PUSH1 0x20 ADD PUSH2 0x2E1 JUMP JUMPDEST CALLVALUE DUP1 ISZERO PUSH2 0x3C2 JUMPI PUSH1 0x0 DUP1 REVERT JUMPDEST POP PUSH2 0x34D PUSH32 0x0 DUP2 JUMP JUMPDEST CALLVALUE DUP1 ISZERO PUSH2 0x3F6 JUMPI PUSH1 0x0 DUP1 REVERT JUMPDEST POP PUSH2 0x2CD PUSH2 0x405 CALLDATASIZE PUSH1 0x4 PUSH2 0xD67 JUMP JUMPDEST PUSH2 0x791 JUMP JUMPDEST CALLVALUE DUP1 ISZERO PUSH2 0x416 JUMPI PUSH1 0x0 DUP1 REVERT JUMPDEST POP PUSH2 0x34D PUSH2 0x425 CALLDATASIZE PUSH1 0x4 PUSH2 0xD37 JUMP JUMPDEST PUSH1 0x2 PUSH1 0x20 MSTORE PUSH1 0x0 SWAP1 DUP2 MSTORE PUSH1 0x40 SWAP1 KECCAK256 SLOAD DUP2 JUMP JUMPDEST CALLVALUE DUP1 ISZERO PUSH2 0x443 JUMPI PUSH1 0x0 DUP1 REVERT JUMPDEST POP PUSH2 0x292 PUSH2 0x7BB JUMP JUMPDEST CALLVALUE DUP1 ISZERO PUSH2 0x458 JUMPI PUSH1 0x0 DUP1 REVERT JUMPDEST POP PUSH2 0x2CD PUSH32 0x0 DUP2 JUMP JUMPDEST CALLVALUE DUP1 ISZERO PUSH2 0x48C JUMPI PUSH1 0x0 DUP1 REVERT JUMPDEST POP PUSH1 0x1 SLOAD PUSH2 0x3A6 SWAP1 PUSH1 0xFF AND DUP2 JUMP JUMPDEST CALLVALUE DUP1 ISZERO PUSH2 0x4A6 JUMPI PUSH1 0x0 DUP1 REVERT JUMPDEST POP PUSH2 0x34D PUSH32 0x0 DUP2 JUMP JUMPDEST CALLVALUE DUP1 ISZERO PUSH2 0x4DA JUMPI PUSH1 0x0 DUP1 REVERT JUMPDEST POP PUSH2 0x4E3 PUSH2 0x827 JUMP JUMPDEST PUSH1 0x40 MLOAD PUSH2 0x2E1 SWAP2 SWAP1 PUSH2 0xD80 JUMP JUMPDEST CALLVALUE DUP1 ISZERO PUSH2 0x4FC JUMPI PUSH1 0x0 DUP1 REVERT JUMPDEST POP PUSH2 0x292 PUSH2 0x889 JUMP JUMPDEST CALLVALUE DUP1 ISZERO PUSH2 0x511 JUMPI PUSH1 0x0 DUP1 REVERT JUMPDEST POP PUSH2 0x34D PUSH1 0x0 SLOAD DUP2 JUMP JUMPDEST PUSH2 0x292 PUSH2 0xA21 JUMP JUMPDEST CALLVALUE DUP1 ISZERO PUSH2 0x52F JUMPI PUSH1 0x0 DUP1 REVERT JUMPDEST POP PUSH1 0x1 SLOAD PUSH2 0x3A6 SWAP1 PUSH2 0x100 SWAP1 DIV PUSH1 0xFF AND DUP2 JUMP JUMPDEST CALLVALUE DUP1 ISZERO PUSH2 0x54E JUMPI PUSH1 0x0 DUP1 REVERT JUMPDEST POP PUSH2 0x2CD PUSH32 0x0 DUP2 JUMP JUMPDEST PUSH1 0x1 DUP1 SLOAD PUSH1 0x0 SLOAD PUSH32 0x0 DUP2 LT ISZERO PUSH2 0x100 SWAP1 DUP2 MUL PUSH2 0xFFFF NOT SWAP1 SWAP4 AND SWAP3 SWAP1 SWAP3 OR DUP4 OR SWAP3 DUP4 SWAP1 SSTORE PUSH1 0x40 MLOAD PUSH32 0x17BE444BDF6F73DFD4057F6FB3494AB4A8591399B8703BE2BD797F27CF86FF99 SWAP4 PUSH2 0x5F8 SWAP4 SWAP1 DIV PUSH1 0xFF AND SWAP2 SWAP1 SWAP2 ISZERO ISZERO DUP3 MSTORE PUSH1 0x20 DUP3 ADD MSTORE PUSH1 0x40 ADD SWAP1 JUMP JUMPDEST PUSH1 0x40 MLOAD DUP1 SWAP2 SUB SWAP1 LOG1 PUSH1 0x1 SLOAD PUSH2 0x100 SWAP1 DIV PUSH1 0xFF AND ISZERO PUSH2 0x618 JUMPI PUSH2 0x618 PUSH2 0xBC2 JUMP JUMPDEST JUMP JUMPDEST PUSH1 0x0 DUP1 PUSH1 0x0 DUP1 PUSH1 0x0 DUP1 PUSH1 0x0 DUP1 SLOAD PUSH32 0x0 PUSH32 0x0 PUSH32 0x0 TIMESTAMP GT PUSH2 0x6BF JUMPI PUSH2 0x6BA TIMESTAMP PUSH32 0x0 PUSH2 0xDCD JUMP JUMPDEST PUSH2 0x6C2 JUMP JUMPDEST PUSH1 0x0 JUMPDEST PUSH1 0x1 SLOAD PUSH1 0x3 SLOAD SWAP5 SWAP13 SWAP4 SWAP12 POP SWAP2 SWAP10 POP SWAP8 POP PUSH1 0xFF DUP1 DUP3 AND SWAP8 POP PUSH2 0x100 SWAP1 SWAP2 DIV AND SWAP5 POP SWAP1 SWAP3 POP SWAP1 POP JUMP JUMPDEST PUSH1 0x0 PUSH32 0x0 PUSH1 0x0 SUB PUSH2 0x719 JUMPI POP PUSH1 0x0 SWAP1 JUMP JUMPDEST PUSH32 0x0 PUSH1 0x0 SLOAD PUSH1 0x64 PUSH2 0x749 SWAP2 SWAP1 PUSH2 0xDE0 JUMP JUMPDEST PUSH2 0x753 SWAP2 SWAP1 PUSH2 0xDF7 JUMP JUMPDEST SWAP1 POP SWAP1 JUMP JUMPDEST PUSH1 0x1 SLOAD PUSH1 0x0 SWAP1 PUSH1 0xFF AND ISZERO DUP1 ISZERO PUSH2 0x753 JUMPI POP POP PUSH32 0x0 TIMESTAMP GT ISZERO SWAP1 JUMP JUMPDEST PUSH1 0x3 DUP2 DUP2 SLOAD DUP2 LT PUSH2 0x7A1 JUMPI PUSH1 0x0 DUP1 REVERT JUMPDEST PUSH1 0x0 SWAP2 DUP3 MSTORE PUSH1 0x20 SWAP1 SWAP2 KECCAK256 ADD SLOAD PUSH1 0x1 PUSH1 0x1 PUSH1 0xA0 SHL SUB AND SWAP1 POP DUP2 JUMP JUMPDEST PUSH32 0x0 TIMESTAMP GT PUSH2 0x7FB JUMPI PUSH1 0x40 MLOAD PUSH4 0x640D0145 PUSH1 0xE1 SHL DUP2 MSTORE PUSH1 0x4 ADD PUSH1 0x40 MLOAD DUP1 SWAP2 SUB SWAP1 REVERT JUMPDEST PUSH1 0x1 SLOAD PUSH1 0xFF AND ISZERO PUSH2 0x81F JUMPI PUSH1 0x40 MLOAD PUSH4 0x475A2535 PUSH1 0xE0 SHL DUP2 MSTORE PUSH1 0x4 ADD PUSH1 0x40 MLOAD DUP1 SWAP2 SUB SWAP1 REVERT JUMPDEST PUSH2 0x618 PUSH2 0x576 JUMP JUMPDEST PUSH1 0x60 PUSH1 0x3 DUP1 SLOAD DUP1 PUSH1 0x20 MUL PUSH1 0x20 ADD PUSH1 0x40 MLOAD SWAP1 DUP2 ADD PUSH1 0x40 MSTORE DUP1 SWAP3 SWAP2 SWAP1 DUP2 DUP2 MSTORE PUSH1 0x20 ADD DUP3 DUP1 SLOAD DUP1 ISZERO PUSH2 0x87F JUMPI PUSH1 0x20 MUL DUP3 ADD SWAP2 SWAP1 PUSH1 0x0 MSTORE PUSH1 0x20 PUSH1 0x0 KECCAK256 SWAP1 JUMPDEST DUP2 SLOAD PUSH1 0x1 PUSH1 0x1 PUSH1 0xA0 SHL SUB AND DUP2 MSTORE PUSH1 0x1 SWAP1 SWAP2 ADD SWAP1 PUSH1 0x20 ADD DUP1 DUP4 GT PUSH2 0x861 JUMPI JUMPDEST POP POP POP POP POP SWAP1 POP SWAP1 JUMP JUMPDEST PUSH1 0x1 SLOAD PUSH1 0xFF AND PUSH2 0x8DB JUMPI PUSH32 0x0 TIMESTAMP GT PUSH2 0x8D3 JUMPI PUSH1 0x40 MLOAD PUSH4 0x640D0145 PUSH1 0xE1 SHL DUP2 MSTORE PUSH1 0x4 ADD PUSH1 0x40 MLOAD DUP1 SWAP2 SUB SWAP1 REVERT JUMPDEST PUSH2 0x8DB PUSH2 0x576 JUMP JUMPDEST PUSH1 0x1 SLOAD PUSH2 0x100 SWAP1 DIV PUSH1 0xFF AND ISZERO PUSH2 0x904 JUMPI PUSH1 0x40 MLOAD PUSH4 0x8F8E29A5 PUSH1 0xE0 SHL DUP2 MSTORE PUSH1 0x4 ADD PUSH1 0x40 MLOAD DUP1 SWAP2 SUB SWAP1 REVERT JUMPDEST CALLER PUSH1 0x0 SWAP1 DUP2 MSTORE PUSH1 0x2 PUSH1 0x20 MSTORE PUSH1 0x40 DUP2 KECCAK256 SLOAD SWAP1 DUP2 SWAP1 SUB PUSH2 0x935 JUMPI PUSH1 0x40 MLOAD PUSH4 0x1971FBF3 PUSH1 0xE2 SHL DUP2 MSTORE PUSH1 0x4 ADD PUSH1 0x40 MLOAD DUP1 SWAP2 SUB SWAP1 REVERT JUMPDEST CALLER PUSH1 0x0 SWAP1 DUP2 MSTORE PUSH1 0x2 PUSH1 0x20 MSTORE PUSH1 0x40 DUP2 KECCAK256 DUP2 SWAP1 SSTORE PUSH2 0x94F PUSH2 0xCBC JUMP JUMPDEST SWAP1 POP PUSH1 0x0 DUP1 SLOAD DUP3 DUP5 PUSH2 0x961 SWAP2 SWAP1 PUSH2 0xDE0 JUMP JUMPDEST PUSH2 0x96B SWAP2 SWAP1 PUSH2 0xDF7 JUMP JUMPDEST SWAP1 POP PUSH1 0x0 PUSH2 0x979 DUP3 DUP6 PUSH2 0xDCD JUMP JUMPDEST PUSH1 0x40 MLOAD SWAP1 SWAP2 POP PUSH1 0x0 SWAP1 CALLER SWAP1 DUP4 SWAP1 DUP4 DUP2 DUP2 DUP2 DUP6 DUP8 GAS CALL SWAP3 POP POP POP RETURNDATASIZE DUP1 PUSH1 0x0 DUP2 EQ PUSH2 0x9BE JUMPI PUSH1 0x40 MLOAD SWAP2 POP PUSH1 0x1F NOT PUSH1 0x3F RETURNDATASIZE ADD AND DUP3 ADD PUSH1 0x40 MSTORE RETURNDATASIZE DUP3 MSTORE RETURNDATASIZE PUSH1 0x0 PUSH1 0x20 DUP5 ADD RETURNDATACOPY PUSH2 0x9C3 JUMP JUMPDEST PUSH1 0x60 SWAP2 POP JUMPDEST POP POP SWAP1 POP DUP1 PUSH2 0x9E5 JUMPI PUSH1 0x40 MLOAD PUSH4 0x12171D83 PUSH1 0xE3 SHL DUP2 MSTORE PUSH1 0x4 ADD PUSH1 0x40 MLOAD DUP1 SWAP2 SUB SWAP1 REVERT JUMPDEST PUSH1 0x40 MLOAD DUP3 DUP2 MSTORE CALLER SWAP1 PUSH32 0xA171B6942063C6F2800CE40A780EDCE37BAA2B618571B11EEDD1E69E626E7D76 SWAP1 PUSH1 0x20 ADD PUSH1 0x40 MLOAD DUP1 SWAP2 SUB SWAP1 LOG2 POP POP POP POP POP JUMP JUMPDEST PUSH32 0x0 TIMESTAMP GT ISZERO PUSH2 0xA62 JUMPI PUSH1 0x40 MLOAD PUSH4 0x8320B483 PUSH1 0xE0 SHL DUP2 MSTORE PUSH1 0x4 ADD PUSH1 0x40 MLOAD DUP1 SWAP2 SUB SWAP1 REVERT JUMPDEST CALLVALUE PUSH1 0x0 SUB PUSH2 0xA83 JUMPI PUSH1 0x40 MLOAD PUSH4 0x1F2A2005 PUSH1 0xE0 SHL DUP2 MSTORE PUSH1 0x4 ADD PUSH1 0x40 MLOAD DUP1 SWAP2 SUB SWAP1 REVERT JUMPDEST PUSH1 0x1 SLOAD PUSH1 0xFF AND ISZERO PUSH2 0xAA7 JUMPI PUSH1 0x40 MLOAD PUSH4 0x475A2535 PUSH1 0xE0 SHL DUP2 MSTORE PUSH1 0x4 ADD PUSH1 0x40 MLOAD DUP1 SWAP2 SUB SWAP1 REVERT JUMPDEST CALLER PUSH1 0x0 SWAP1 DUP2 MSTORE PUSH1 0x2 PUSH1 0x20 MSTORE PUSH1 0x40 DUP2 KECCAK256 SLOAD SWAP1 SUB PUSH2 0xB00 JUMPI PUSH1 0x3 DUP1 SLOAD PUSH1 0x1 DUP2 ADD DUP3 SSTORE PUSH1 0x0 SWAP2 SWAP1 SWAP2 MSTORE PUSH32 0xC2575A0E9E593C00F959F8C92F12DB2869C3395A3B0502D05E2516446F71F85B ADD DUP1 SLOAD PUSH1 0x1 PUSH1 0x1 PUSH1 0xA0 SHL SUB NOT AND CALLER OR SWAP1 SSTORE JUMPDEST CALLER PUSH1 0x0 SWAP1 DUP2 MSTORE PUSH1 0x2 PUSH1 0x20 MSTORE PUSH1 0x40 DUP2 KECCAK256 DUP1 SLOAD CALLVALUE SWAP3 SWAP1 PUSH2 0xB1F SWAP1 DUP5 SWAP1 PUSH2 0xD1E JUMP JUMPDEST SWAP3 POP POP DUP2 SWAP1 SSTORE POP CALLVALUE PUSH1 0x0 DUP1 DUP3 DUP3 SLOAD PUSH2 0xB37 SWAP2 SWAP1 PUSH2 0xD1E JUMP JUMPDEST SWAP1 SWAP2 SSTORE POP POP PUSH1 0x0 SLOAD PUSH1 0x40 MLOAD CALLER SWAP2 PUSH32 0xD2DFF949D20E874CC6BA1DCEFB840FB8CF6000A4197BFB69ACCFEA5A32443FF5 SWAP2 PUSH2 0xB78 SWAP2 CALLVALUE DUP3 MSTORE PUSH1 0x20 DUP3 ADD MSTORE PUSH1 0x40 ADD SWAP1 JUMP JUMPDEST PUSH1 0x40 MLOAD DUP1 SWAP2 SUB SWAP1 LOG2 PUSH32 0x0 PUSH1 0x0 SLOAD LT ISZERO DUP1 ISZERO PUSH2 0xBB5 JUMPI POP PUSH1 0x1 SLOAD PUSH1 0xFF AND ISZERO JUMPDEST ISZERO PUSH2 0x618 JUMPI PUSH2 0x618 PUSH2 0x576 JUMP JUMPDEST PUSH1 0x0 DUP1 SLOAD PUSH1 0x40 MLOAD PUSH1 0x1 PUSH1 0x1 PUSH1 0xA0 SHL SUB PUSH32 0x0 AND SWAP2 SWAP1 DUP4 DUP2 DUP2 DUP2 DUP6 DUP8 GAS CALL SWAP3 POP POP POP RETURNDATASIZE DUP1 PUSH1 0x0 DUP2 EQ PUSH2 0xC2D JUMPI PUSH1 0x40 MLOAD SWAP2 POP PUSH1 0x1F NOT PUSH1 0x3F RETURNDATASIZE ADD AND DUP3 ADD PUSH1 0x40 MSTORE RETURNDATASIZE DUP3 MSTORE RETURNDATASIZE PUSH1 0x0 PUSH1 0x20 DUP5 ADD RETURNDATACOPY PUSH2 0xC32 JUMP JUMPDEST PUSH1 0x60 SWAP2 POP JUMPDEST POP POP SWAP1 POP DUP1 PUSH2 0xC54 JUMPI PUSH1 0x40 MLOAD PUSH4 0x12171D83 PUSH1 0xE3 SHL DUP2 MSTORE PUSH1 0x4 ADD PUSH1 0x40 MLOAD DUP1 SWAP2 SUB SWAP1 REVERT JUMPDEST PUSH32 0x0 PUSH1 0x1 PUSH1 0x1 PUSH1 0xA0 SHL SUB AND PUSH32 0x221C08A06B07A64803B3787861A3F276212FCCCB51C2E6234077A9B8CB13047A PUSH1 0x0 SLOAD PUSH1 0x40 MLOAD PUSH2 0xCB1 SWAP2 DUP2 MSTORE PUSH1 0x20 ADD SWAP1 JUMP JUMPDEST PUSH1 0x40 MLOAD DUP1 SWAP2 SUB SWAP1 LOG2 POP JUMP JUMPDEST PUSH1 0x0 DUP1 PUSH2 0x3E8 PUSH1 0x0 SLOAD PUSH2 0xCCF SWAP2 SWAP1 PUSH2 0xDF7 JUMP JUMPDEST SWAP1 POP PUSH7 0x38D7EA4C68000 PUSH8 0x16345785D8A0000 DUP2 DUP4 LT ISZERO PUSH2 0xCF1 JUMPI POP SWAP3 SWAP2 POP POP JUMP JUMPDEST DUP1 DUP4 GT ISZERO PUSH2 0xD00 JUMPI SWAP4 SWAP3 POP POP POP JUMP JUMPDEST POP SWAP1 SWAP3 SWAP2 POP POP JUMP JUMPDEST PUSH4 0x4E487B71 PUSH1 0xE0 SHL PUSH1 0x0 MSTORE PUSH1 0x11 PUSH1 0x4 MSTORE PUSH1 0x24 PUSH1 0x0 REVERT JUMPDEST DUP1 DUP3 ADD DUP1 DUP3 GT ISZERO PUSH2 0xD31 JUMPI PUSH2 0xD31 PUSH2 0xD08 JUMP JUMPDEST SWAP3 SWAP2 POP POP JUMP JUMPDEST PUSH1 0x0 PUSH1 0x20 DUP3 DUP5 SUB SLT ISZERO PUSH2 0xD49 JUMPI PUSH1 0x0 DUP1 REVERT JUMPDEST DUP2 CALLDATALOAD PUSH1 0x1 PUSH1 0x1 PUSH1 0xA0 SHL SUB DUP2 AND DUP2 EQ PUSH2 0xD60 JUMPI PUSH1 0x0 DUP1 REVERT JUMPDEST SWAP4 SWAP3 POP POP POP JUMP JUMPDEST PUSH1 0x0 PUSH1 0x20 DUP3 DUP5 SUB SLT ISZERO PUSH2 0xD79 JUMPI PUSH1 0x0 DUP1 REVERT JUMPDEST POP CALLDATALOAD SWAP2 SWAP1 POP JUMP JUMPDEST PUSH1 0x20 DUP1 DUP3 MSTORE DUP3 MLOAD DUP3 DUP3 ADD DUP2 SWAP1 MSTORE PUSH1 0x0 SWAP2 SWAP1 DUP5 DUP3 ADD SWAP1 PUSH1 0x40 DUP6 ADD SWAP1 DUP5 JUMPDEST DUP2 DUP2 LT ISZERO PUSH2 0xDC1 JUMPI DUP4 MLOAD PUSH1 0x1 PUSH1 0x1 PUSH1 0xA0 SHL SUB AND DUP4 MSTORE SWAP3 DUP5 ADD SWAP3 SWAP2 DUP5 ADD SWAP2 PUSH1 0x1 ADD PUSH2 0xD9C JUMP JUMPDEST POP SWAP1 SWAP7 SWAP6 POP POP POP POP POP POP JUMP JUMPDEST DUP2 DUP2 SUB DUP2 DUP2 GT ISZERO PUSH2 0xD31 JUMPI PUSH2 0xD31 PUSH2 0xD08 JUMP JUMPDEST DUP1 DUP3 MUL DUP2 ISZERO DUP3 DUP3 DIV DUP5 EQ OR PUSH2 0xD31 JUMPI PUSH2 0xD31 PUSH2 0xD08 JUMP JUMPDEST PUSH1 0x0 DUP3 PUSH2 0xE14 JUMPI PUSH4 0x4E487B71 PUSH1 0xE0 SHL PUSH1 0x0 MSTORE PUSH1 0x12 PUSH1 0x4 MSTORE PUSH1 0x24 PUSH1 0x0 REVERT JUMPDEST POP DIV SWAP1 JUMP INVALID LOG2 PUSH5 0x6970667358 0x22 SLT KECCAK256 0xDB 0xC4 0x2A 0x26 PUSH17 0xDADBEEAD73976283CDB75DE2A44D5B46FB DUP9 CALLDATALOAD PUSH16 0x1B5CF8C89A392064736F6C6343000814 STOP CALLER "},"methodIdentifiers":{"claimRefund()":"b5545a3c","company()":"6904c94d","contribute()":"d7bb99ba","contributions(address)":"42e94c90","contributors(uint256)":"3cb5d100","creator()":"02d05d3f","deadline()":"29dcb0cf","finalize()":"4bb278f3","getCampaignStatus()":"10550515","getContribution(address)":"21eff7fc","getContributors()":"af157c19","getProgressPercentage()":"1931136c","isActive()":"22f3e2d4","isFinalized()":"8d4e4083","isSuccessful()":"ec4cd0cf","masterWallet()":"fc0d0117","targetAmount()":"953b8fb8","totalRaised()":"c5c4744c"}}}}}