{"contracts/CompanyWishlistEscrow.sol":{"CompanyWishlistEscrow":{"abi":[{"inputs":[{"internalType":"address","name":"_company","type":"address"},{"internalType":"uint256","name":"_targetAmount","type":"uint256"},{"internalType":"uint256","name":"_durationInDays","type":"uint256"}],"stateMutability":"nonpayable","type":"constructor"},{"inputs":[],"name":"AlreadyFinalized","type":"error"},{"inputs":[],"name":"CampaignExpired","type":"error"},{"inputs":[],"name":"CampaignNotExpired","type":"error"},{"inputs":[],"name":"InvalidAddress","type":"error"},{"inputs":[],"name":"NoContribution","type":"error"},{"inputs":[],"name":"NotFinalized","type":"error"},{"inputs":[],"name":"TargetAlreadyReached","type":"error"},{"inputs":[],"name":"TargetNotReached","type":"error"},{"inputs":[],"name":"TransferFailed","type":"error"},{"inputs":[],"name":"ZeroAmount","type":"error"},{"anonymous":false,"inputs":[{"indexed":false,"internalType":"bool","name":"successful","type":"bool"},{"indexed":false,"internalType":"uint256","name":"totalRaised","type":"uint256"}],"name":"CampaignFinalized","type":"event"},{"anonymous":false,"inputs":[{"indexed":true,"internalType":"address","name":"contributor","type":"address"},{"indexed":false,"internalType":"uint256","name":"amount","type":"uint256"},{"indexed":false,"internalType":"uint256","name":"totalRaised","type":"uint256"}],"name":"ContributionReceived","type":"event"},{"anonymous":false,"inputs":[{"indexed":true,"internalType":"address","name":"company","type":"address"},{"indexed":false,"internalType":"uint256","name":"amount","type":"uint256"}],"name":"FundsReleased","type":"event"},{"anonymous":false,"inputs":[{"indexed":true,"internalType":"address","name":"contributor","type":"address"},{"indexed":false,"internalType":"uint256","name":"amount","type":"uint256"}],"name":"RefundIssued","type":"event"},{"inputs":[],"name":"claimRefund","outputs":[],"stateMutability":"nonpayable","type":"function"},{"inputs":[],"name":"company","outputs":[{"internalType":"address","name":"","type":"address"}],"stateMutability":"view","type":"function"},{"inputs":[],"name":"contribute","outputs":[],"stateMutability":"payable","type":"function"},{"inputs":[{"internalType":"address","name":"","type":"address"}],"name":"contributions","outputs":[{"internalType":"uint256","name":"","type":"uint256"}],"stateMutability":"view","type":"function"},{"inputs":[{"internalType":"uint256","name":"","type":"uint256"}],"name":"contributors","outputs":[{"internalType":"address","name":"","type":"address"}],"stateMutability":"view","type":"function"},{"inputs":[],"name":"creator","outputs":[{"internalType":"address","name":"","type":"address"}],"stateMutability":"view","type":"function"},{"inputs":[],"name":"deadline","outputs":[{"internalType":"uint256","name":"","type":"uint256"}],"stateMutability":"view","type":"function"},{"inputs":[],"name":"finalize","outputs":[],"stateMutability":"nonpayable","type":"function"},{"inputs":[],"name":"getCampaignStatus","outputs":[{"internalType":"uint256","name":"_totalRaised","type":"uint256"},{"internalType":"uint256","name":"_targetAmount","type":"uint256"},{"internalType":"uint256","name":"_deadline","type":"uint256"},{"internalType":"uint256","name":"_timeRemaining","type":"uint256"},{"internalType":"bool","name":"_isFinalized","type":"bool"},{"internalType":"bool","name":"_isSuccessful","type":"bool"},{"internalType":"uint256","name":"_contributorCount","type":"uint256"}],"stateMutability":"view","type":"function"},{"inputs":[{"internalType":"address","name":"contributor","type":"address"}],"name":"getContribution","outputs":[{"internalType":"uint256","name":"","type":"uint256"}],"stateMutability":"view","type":"function"},{"inputs":[],"name":"getContributors","outputs":[{"internalType":"address[]","name":"","type":"address[]"}],"stateMutability":"view","type":"function"},{"inputs":[],"name":"getProgressPercentage","outputs":[{"internalType":"uint256","name":"","type":"uint256"}],"stateMutability":"view","type":"function"},{"inputs":[],"name":"isActive","outputs":[{"internalType":"bool","name":"","type":"bool"}],"stateMutability":"view","type":"function"},{"inputs":[],"name":"isFinalized","outputs":[{"internalType":"bool","name":"","type":"bool"}],"stateMutability":"view","type":"function"},{"inputs":[],"name":"isSuccessful","outputs":[{"internalType":"bool","name":"","type":"bool"}],"stateMutability":"view","type":"function"},{"inputs":[],"name":"targetAmount","outputs":[{"internalType":"uint256","name":"","type":"uint256"}],"stateMutability":"view","type":"function"},{"inputs":[],"name":"totalRaised","outputs":[{"internalType":"uint256","name":"","type":"uint256"}],"stateMutability":"view","type":"function"},{"stateMutability":"payable","type":"receive"}],"evm":{"bytecode":{"linkReferences":{},"object":"6101006040523480156200001257600080fd5b506040516200102a3803806200102a8339810160408190526200003591620000df565b6001600160a01b0383166200005d5760405163e6c4247b60e01b815260040160405180910390fd5b816000036200007f57604051631f2a200560e01b815260040160405180910390fd5b80600003620000a157604051631f2a200560e01b815260040160405180910390fd5b6001600160a01b0383166080523360a05260c0829052620000c681620151806200013a565b620000d290426200015a565b60e0525062000170915050565b600080600060608486031215620000f557600080fd5b83516001600160a01b03811681146200010d57600080fd5b602085015160409095015190969495509392505050565b634e487b7160e01b600052601160045260246000fd5b808202811582820484141762000154576200015462000124565b92915050565b8082018082111562000154576200015462000124565b60805160a05160c05160e051610e106200021a60003960008181610109015281816103bd0152818161060b0152818161062c015281816106570152818161072d0152818161077e0152818161085601526109e4015260008181610247015281816104a101528181610540015281816105ea015281816106ae015281816106dc0152610b43015260006102a001526000818161045301528181610b940152610c170152610e106000f3fe6080604052600436106101025760003560e01c80634bb278f311610095578063af157c1911610064578063af157c19146104c3578063b5545a3c146104e5578063c5c4744c146104fa578063d7bb99ba14610510578063ec4cd0cf1461051857600080fd5b80634bb278f31461042c5780636904c94d146104415780638d4e408314610475578063953b8fb81461048f57600080fd5b806322f3e2d4116100d157806322f3e2d41461038657806329dcb0cf146103ab5780633cb5d100146103df57806342e94c90146103ff57600080fd5b806302d05d3f1461028e57806310550515146102df5780631931136c1461032d57806321eff7fc1461035057600080fd5b36610289577f000000000000000000000000000000000000000000000000000000000000000042111561014857604051638320b48360e01b815260040160405180910390fd5b60015460ff161561016c5760405163475a253560e01b815260040160405180910390fd5b3360009081526002602052604081205490036101c557600380546001810182556000919091527fc2575a0e9e593c00f959f8c92f12db2869c3395a3b0502d05e2516446f71f85b0180546001600160a01b031916331790555b33600090815260026020526040812080543492906101e4908490610cdf565b92505081905550346000808282546101fc9190610cdf565b909155505060005460405133917fd2dff949d20e874cc6ba1dcefb840fb8cf6000a4197bfb69accfea5a32443ff59161023d91348252602082015260400190565b60405180910390a27f00000000000000000000000000000000000000000000000000000000000000006000541015801561027a575060015460ff16155b1561028757610287610537565b005b600080fd5b34801561029a57600080fd5b506102c27f000000000000000000000000000000000000000000000000000000000000000081565b6040516001600160a01b0390911681526020015b60405180910390f35b3480156102eb57600080fd5b506102f46105db565b60408051978852602088019690965294860193909352606085019190915215156080840152151560a083015260c082015260e0016102d6565b34801561033957600080fd5b506103426106aa565b6040519081526020016102d6565b34801561035c57600080fd5b5061034261036b366004610cf8565b6001600160a01b031660009081526002602052604090205490565b34801561039257600080fd5b5061039b610719565b60405190151581526020016102d6565b3480156103b757600080fd5b506103427f000000000000000000000000000000000000000000000000000000000000000081565b3480156103eb57600080fd5b506102c26103fa366004610d28565b610752565b34801561040b57600080fd5b5061034261041a366004610cf8565b60026020526000908152604090205481565b34801561043857600080fd5b5061028761077c565b34801561044d57600080fd5b506102c27f000000000000000000000000000000000000000000000000000000000000000081565b34801561048157600080fd5b5060015461039b9060ff1681565b34801561049b57600080fd5b506103427f000000000000000000000000000000000000000000000000000000000000000081565b3480156104cf57600080fd5b506104d86107e8565b6040516102d69190610d41565b3480156104f157600080fd5b5061028761084a565b34801561050657600080fd5b5061034260005481565b6102876109e2565b34801561052457600080fd5b5060015461039b90610100900460ff1681565b600180546000547f000000000000000000000000000000000000000000000000000000000000000081101561010090810261ffff19909316929092178317928390556040517f17be444bdf6f73dfd4057f6fb3494ab4a8591399b8703be2bd797f27cf86ff99936105b993900460ff1691909115158252602082015260400190565b60405180910390a1600154610100900460ff16156105d9576105d9610b83565b565b600080600080600080600080547f00000000000000000000000000000000000000000000000000000000000000007f00000000000000000000000000000000000000000000000000000000000000007f000000000000000000000000000000000000000000000000000000000000000042116106805761067b427f0000000000000000000000000000000000000000000000000000000000000000610d8e565b610683565b60005b600154600354949c939b50919950975060ff80821697506101009091041694509092509050565b60007f00000000000000000000000000000000000000000000000000000000000000006000036106da5750600090565b7f0000000000000000000000000000000000000000000000000000000000000000600054606461070a9190610da1565b6107149190610db8565b905090565b60015460009060ff161580156107145750507f000000000000000000000000000000000000000000000000000000000000000042111590565b6003818154811061076257600080fd5b6000918252602090912001546001600160a01b0316905081565b7f000000000000000000000000000000000000000000000000000000000000000042116107bc5760405163640d014560e11b815260040160405180910390fd5b60015460ff16156107e05760405163475a253560e01b815260040160405180910390fd5b6105d9610537565b6060600380548060200260200160405190810160405280929190818152602001828054801561084057602002820191906000526020600020905b81546001600160a01b03168152600190910190602001808311610822575b5050505050905090565b60015460ff1661089c577f000000000000000000000000000000000000000000000000000000000000000042116108945760405163640d014560e11b815260040160405180910390fd5b61089c610537565b600154610100900460ff16156108c557604051638f8e29a560e01b815260040160405180910390fd5b33600090815260026020526040812054908190036108f657604051631971fbf360e21b815260040160405180910390fd5b336000908152600260205260408120819055610910610c7d565b90506000805482846109229190610da1565b61092c9190610db8565b9050600061093a8285610d8e565b604051909150600090339083908381818185875af1925050503d806000811461097f576040519150601f19603f3d011682016040523d82523d6000602084013e610984565b606091505b50509050806109a6576040516312171d8360e31b815260040160405180910390fd5b60405182815233907fa171b6942063c6f2800ce40a780edce37baa2b618571b11eedd1e69e626e7d769060200160405180910390a25050505050565b7f0000000000000000000000000000000000000000000000000000000000000000421115610a2357604051638320b48360e01b815260040160405180910390fd5b34600003610a4457604051631f2a200560e01b815260040160405180910390fd5b60015460ff1615610a685760405163475a253560e01b815260040160405180910390fd5b336000908152600260205260408120549003610ac157600380546001810182556000919091527fc2575a0e9e593c00f959f8c92f12db2869c3395a3b0502d05e2516446f71f85b0180546001600160a01b031916331790555b3360009081526002602052604081208054349290610ae0908490610cdf565b9250508190555034600080828254610af89190610cdf565b909155505060005460405133917fd2dff949d20e874cc6ba1dcefb840fb8cf6000a4197bfb69accfea5a32443ff591610b3991348252602082015260400190565b60405180910390a27f000000000000000000000000000000000000000000000000000000000000000060005410158015610b76575060015460ff16155b156105d9576105d9610537565b600080546040516001600160a01b037f00000000000000000000000000000000000000000000000000000000000000001691908381818185875af1925050503d8060008114610bee576040519150601f19603f3d011682016040523d82523d6000602084013e610bf3565b606091505b5050905080610c15576040516312171d8360e31b815260040160405180910390fd5b7f00000000000000000000000000000000000000000000000000000000000000006001600160a01b03167f221c08a06b07a64803b3787861a3f276212fcccb51c2e6234077a9b8cb13047a600054604051610c7291815260200190565b60405180910390a250565b6000806103e8600054610c909190610db8565b905066038d7ea4c6800067016345785d8a000081831015610cb2575092915050565b80831115610cc1579392505050565b509092915050565b634e487b7160e01b600052601160045260246000fd5b80820180821115610cf257610cf2610cc9565b92915050565b600060208284031215610d0a57600080fd5b81356001600160a01b0381168114610d2157600080fd5b9392505050565b600060208284031215610d3a57600080fd5b5035919050565b6020808252825182820181905260009190848201906040850190845b81811015610d825783516001600160a01b031683529284019291840191600101610d5d565b50909695505050505050565b81810381811115610cf257610cf2610cc9565b8082028115828204841417610cf257610cf2610cc9565b600082610dd557634e487b7160e01b600052601260045260246000fd5b50049056fea2646970667358221220de11505ea00bdcd0abfe7ebd5207431807fc345dbfe3a1b538ff306ec8684d8764736f6c63430008140033","opcodes":"PUSH2 0x100 PUSH1 0x40 MSTORE CALLVALUE DUP1 ISZERO PUSH3 0x12 JUMPI PUSH1 0x0 DUP1 REVERT JUMPDEST POP PUSH1 0x40 MLOAD PUSH3 0x102A CODESIZE SUB DUP1 PUSH3 0x102A DUP4 CODECOPY DUP2 ADD PUSH1 0x40 DUP2 SWAP1 MSTORE PUSH3 0x35 SWAP2 PUSH3 0xDF JUMP JUMPDEST PUSH1 0x1 PUSH1 0x1 PUSH1 0xA0 SHL SUB DUP4 AND PUSH3 0x5D JUMPI PUSH1 0x40 MLOAD PUSH4 0xE6C4247B PUSH1 0xE0 SHL DUP2 MSTORE PUSH1 0x4 ADD PUSH1 0x40 MLOAD DUP1 SWAP2 SUB SWAP1 REVERT JUMPDEST DUP2 PUSH1 0x0 SUB PUSH3 0x7F JUMPI PUSH1 0x40 MLOAD PUSH4 0x1F2A2005 PUSH1 0xE0 SHL DUP2 MSTORE PUSH1 0x4 ADD PUSH1 0x40 MLOAD DUP1 SWAP2 SUB SWAP1 REVERT JUMPDEST DUP1 PUSH1 0x0 SUB PUSH3 0xA1 JUMPI PUSH1 0x40 MLOAD PUSH4 0x1F2A2005 PUSH1 0xE0 SHL DUP2 MSTORE PUSH1 0x4 ADD PUSH1 0x40 MLOAD DUP1 SWAP2 SUB SWAP1 REVERT JUMPDEST PUSH1 0x1 PUSH1 0x1 PUSH1 0xA0 SHL SUB DUP4 AND PUSH1 0x80 MSTORE CALLER PUSH1 0xA0 MSTORE PUSH1 0xC0 DUP3 SWAP1 MSTORE PUSH3 0xC6 DUP2 PUSH3 0x15180 PUSH3 0x13A JUMP JUMPDEST PUSH3 0xD2 SWAP1 TIMESTAMP PUSH3 0x15A JUMP JUMPDEST PUSH1 0xE0 MSTORE POP PUSH3 0x170 SWAP2 POP POP JUMP JUMPDEST PUSH1 0x0 DUP1 PUSH1 0x0 PUSH1 0x60 DUP5 DUP7 SUB SLT ISZERO PUSH3 0xF5 JUMPI PUSH1 0x0 DUP1 REVERT JUMPDEST DUP4 MLOAD PUSH1 0x1 PUSH1 0x1 PUSH1 0xA0 SHL SUB DUP2 AND DUP2 EQ PUSH3 0x10D JUMPI PUSH1 0x0 DUP1 REVERT JUMPDEST PUSH1 0x20 DUP6 ADD MLOAD PUSH1 0x40 SWAP1 SWAP6 ADD MLOAD SWAP1 SWAP7 SWAP5 SWAP6 POP SWAP4 SWAP3 POP POP POP JUMP JUMPDEST PUSH4 0x4E487B71 PUSH1 0xE0 SHL PUSH1 0x0 MSTORE PUSH1 0x11 PUSH1 0x4 MSTORE PUSH1 0x24 PUSH1 0x0 REVERT JUMPDEST DUP1 DUP3 MUL DUP2 ISZERO DUP3 DUP3 DIV DUP5 EQ OR PUSH3 0x154 JUMPI PUSH3 0x154 PUSH3 0x124 JUMP JUMPDEST SWAP3 SWAP2 POP POP JUMP JUMPDEST DUP1 DUP3 ADD DUP1 DUP3 GT ISZERO PUSH3 0x154 JUMPI PUSH3 0x154 PUSH3 0x124 JUMP JUMPDEST PUSH1 0x80 MLOAD PUSH1 0xA0 MLOAD PUSH1 0xC0 MLOAD PUSH1 0xE0 MLOAD PUSH2 0xE10 PUSH3 0x21A PUSH1 0x0 CODECOPY PUSH1 0x0 DUP2 DUP2 PUSH2 0x109 ADD MSTORE DUP2 DUP2 PUSH2 0x3BD ADD MSTORE DUP2 DUP2 PUSH2 0x60B ADD MSTORE DUP2 DUP2 PUSH2 0x62C ADD MSTORE DUP2 DUP2 PUSH2 0x657 ADD MSTORE DUP2 DUP2 PUSH2 0x72D ADD MSTORE DUP2 DUP2 PUSH2 0x77E ADD MSTORE DUP2 DUP2 PUSH2 0x856 ADD MSTORE PUSH2 0x9E4 ADD MSTORE PUSH1 0x0 DUP2 DUP2 PUSH2 0x247 ADD MSTORE DUP2 DUP2 PUSH2 0x4A1 ADD MSTORE DUP2 DUP2 PUSH2 0x540 ADD MSTORE DUP2 DUP2 PUSH2 0x5EA ADD MSTORE DUP2 DUP2 PUSH2 0x6AE ADD MSTORE DUP2 DUP2 PUSH2 0x6DC ADD MSTORE PUSH2 0xB43 ADD MSTORE PUSH1 0x0 PUSH2 0x2A0 ADD MSTORE PUSH1 0x0 DUP2 DUP2 PUSH2 0x453 ADD MSTORE DUP2 DUP2 PUSH2 0xB94 ADD MSTORE PUSH2 0xC17 ADD MSTORE PUSH2 0xE10 PUSH1 0x0 RETURN INVALID PUSH1 0x80 PUSH1 0x40 MSTORE PUSH1 0x4 CALLDATASIZE LT PUSH2 0x102 JUMPI PUSH1 0x0 CALLDATALOAD PUSH1 0xE0 SHR DUP1 PUSH4 0x4BB278F3 GT PUSH2 0x95 JUMPI DUP1 PUSH4 0xAF157C19 GT PUSH2 0x64 JUMPI DUP1 PUSH4 0xAF157C19 EQ PUSH2 0x4C3 JUMPI DUP1 PUSH4 0xB5545A3C EQ PUSH2 0x4E5 JUMPI DUP1 PUSH4 0xC5C4744C EQ PUSH2 0x4FA JUMPI DUP1 PUSH4 0xD7BB99BA EQ PUSH2 0x510 JUMPI DUP1 PUSH4 0xEC4CD0CF EQ PUSH2 0x518 JUMPI PUSH1 0x0 DUP1 REVERT JUMPDEST DUP1 PUSH4 0x4BB278F3 EQ PUSH2 0x42C JUMPI DUP1 PUSH4 0x6904C94D EQ PUSH2 0x441 JUMPI DUP1 PUSH4 0x8D4E4083 EQ PUSH2 0x475 JUMPI DUP1 PUSH4 0x953B8FB8 EQ PUSH2 0x48F JUMPI PUSH1 0x0 DUP1 REVERT JUMPDEST DUP1 PUSH4 0x22F3E2D4 GT PUSH2 0xD1 JUMPI DUP1 PUSH4 0x22F3E2D4 EQ PUSH2 0x386 JUMPI DUP1 PUSH4 0x29DCB0CF EQ PUSH2 0x3AB JUMPI DUP1 PUSH4 0x3CB5D100 EQ PUSH2 0x3DF JUMPI DUP1 PUSH4 0x42E94C90 EQ PUSH2 0x3FF JUMPI PUSH1 0x0 DUP1 REVERT JUMPDEST DUP1 PUSH4 0x2D05D3F EQ PUSH2 0x28E JUMPI DUP1 PUSH4 0x10550515 EQ PUSH2 0x2DF JUMPI DUP1 PUSH4 0x1931136C EQ PUSH2 0x32D JUMPI DUP1 PUSH4 0x21EFF7FC EQ PUSH2 0x350 JUMPI PUSH1 0x0 DUP1 REVERT JUMPDEST CALLDATASIZE PUSH2 0x289 JUMPI PUSH32 0x0 TIMESTAMP GT ISZERO PUSH2 0x148 JUMPI PUSH1 0x40 MLOAD PUSH4 0x8320B483 PUSH1 0xE0 SHL DUP2 MSTORE PUSH1 0x4 ADD PUSH1 0x40 MLOAD DUP1 SWAP2 SUB SWAP1 REVERT JUMPDEST PUSH1 0x1 SLOAD PUSH1 0xFF AND ISZERO PUSH2 0x16C JUMPI PUSH1 0x40 MLOAD PUSH4 0x475A2535 PUSH1 0xE0 SHL DUP2 MSTORE PUSH1 0x4 ADD PUSH1 0x40 MLOAD DUP1 SWAP2 SUB SWAP1 REVERT JUMPDEST CALLER PUSH1 0x0 SWAP1 DUP2 MSTORE PUSH1 0x2 PUSH1 0x20 MSTORE PUSH1 0x40 DUP2 KECCAK256 SLOAD SWAP1 SUB PUSH2 0x1C5 JUMPI PUSH1 0x3 DUP1 SLOAD PUSH1 0x1 DUP2 ADD DUP3 SSTORE PUSH1 0x0 SWAP2 SWAP1 SWAP2 MSTORE PUSH32 0xC2575A0E9E593C00F959F8C92F12DB2869C3395A3B0502D05E2516446F71F85B ADD DUP1 SLOAD PUSH1 0x1 PUSH1 0x1 PUSH1 0xA0 SHL SUB NOT AND CALLER OR SWAP1 SSTORE JUMPDEST CALLER PUSH1 0x0 SWAP1 DUP2 MSTORE PUSH1 0x2 PUSH1 0x20 MSTORE PUSH1 0x40 DUP2 KECCAK256 DUP1 SLOAD CALLVALUE SWAP3 SWAP1 PUSH2 0x1E4 SWAP1 DUP5 SWAP1 PUSH2 0xCDF JUMP JUMPDEST SWAP3 POP POP DUP2 SWAP1 SSTORE POP CALLVALUE PUSH1 0x0 DUP1 DUP3 DUP3 SLOAD PUSH2 0x1FC SWAP2 SWAP1 PUSH2 0xCDF JUMP JUMPDEST SWAP1 SWAP2 SSTORE POP POP PUSH1 0x0 SLOAD PUSH1 0x40 MLOAD CALLER SWAP2 PUSH32 0xD2DFF949D20E874CC6BA1DCEFB840FB8CF6000A4197BFB69ACCFEA5A32443FF5 SWAP2 PUSH2 0x23D SWAP2 CALLVALUE DUP3 MSTORE PUSH1 0x20 DUP3 ADD MSTORE PUSH1 0x40 ADD SWAP1 JUMP JUMPDEST PUSH1 0x40 MLOAD DUP1 SWAP2 SUB SWAP1 LOG2 PUSH32 0x0 PUSH1 0x0 SLOAD LT ISZERO DUP1 ISZERO PUSH2 0x27A JUMPI POP PUSH1 0x1 SLOAD PUSH1 0xFF AND ISZERO JUMPDEST ISZERO PUSH2 0x287 JUMPI PUSH2 0x287 PUSH2 0x537 JUMP JUMPDEST STOP JUMPDEST PUSH1 0x0 DUP1 REVERT JUMPDEST CALLVALUE DUP1 ISZERO PUSH2 0x29A JUMPI PUSH1 0x0 DUP1 REVERT JUMPDEST POP PUSH2 0x2C2 PUSH32 0x0 DUP2 JUMP JUMPDEST PUSH1 0x40 MLOAD PUSH1 0x1 PUSH1 0x1 PUSH1 0xA0 SHL SUB SWAP1 SWAP2 AND DUP2 MSTORE PUSH1 0x20 ADD JUMPDEST PUSH1 0x40 MLOAD DUP1 SWAP2 SUB SWAP1 RETURN JUMPDEST CALLVALUE DUP1 ISZERO PUSH2 0x2EB JUMPI PUSH1 0x0 DUP1 REVERT JUMPDEST POP PUSH2 0x2F4 PUSH2 0x5DB JUMP JUMPDEST PUSH1 0x40 DUP1 MLOAD SWAP8 DUP9 MSTORE PUSH1 0x20 DUP9 ADD SWAP7 SWAP1 SWAP7 MSTORE SWAP5 DUP7 ADD SWAP4 SWAP1 SWAP4 MSTORE PUSH1 0x60 DUP6 ADD SWAP2 SWAP1 SWAP2 MSTORE ISZERO ISZERO PUSH1 0x80 DUP5 ADD MSTORE ISZERO ISZERO PUSH1 0xA0 DUP4 ADD MSTORE PUSH1 0xC0 DUP3 ADD MSTORE PUSH1 0xE0 ADD PUSH2 0x2D6 JUMP JUMPDEST CALLVALUE DUP1 ISZERO PUSH2 0x339 JUMPI PUSH1 0x0 DUP1 REVERT JUMPDEST POP PUSH2 0x342 PUSH2 0x6AA JUMP JUMPDEST PUSH1 0x40 MLOAD SWAP1 DUP2 MSTORE PUSH1 0x20 ADD PUSH2 0x2D6 JUMP JUMPDEST CALLVALUE DUP1 ISZERO PUSH2 0x35C JUMPI PUSH1 0x0 DUP1 REVERT JUMPDEST POP PUSH2 0x342 PUSH2 0x36B CALLDATASIZE PUSH1 0x4 PUSH2 0xCF8 JUMP JUMPDEST PUSH1 0x1 PUSH1 0x1 PUSH1 0xA0 SHL SUB AND PUSH1 0x0 SWAP1 DUP2 MSTORE PUSH1 0x2 PUSH1 0x20 MSTORE PUSH1 0x40 SWAP1 KECCAK256 SLOAD SWAP1 JUMP JUMPDEST CALLVALUE DUP1 ISZERO PUSH2 0x392 JUMPI PUSH1 0x0 DUP1 REVERT JUMPDEST POP PUSH2 0x39B PUSH2 0x719 JUMP JUMPDEST PUSH1 0x40 MLOAD SWAP1 ISZERO ISZERO DUP2 MSTORE PUSH1 0x20 ADD PUSH2 0x2D6 JUMP JUMPDEST CALLVALUE DUP1 ISZERO PUSH2 0x3B7 JUMPI PUSH1 0x0 DUP1 REVERT JUMPDEST POP PUSH2 0x342 PUSH32 0x0 DUP2 JUMP JUMPDEST CALLVALUE DUP1 ISZERO PUSH2 0x3EB JUMPI PUSH1 0x0 DUP1 REVERT JUMPDEST POP PUSH2 0x2C2 PUSH2 0x3FA CALLDATASIZE PUSH1 0x4 PUSH2 0xD28 JUMP JUMPDEST PUSH2 0x752 JUMP JUMPDEST CALLVALUE DUP1 ISZERO PUSH2 0x40B JUMPI PUSH1 0x0 DUP1 REVERT JUMPDEST POP PUSH2 0x342 PUSH2 0x41A CALLDATASIZE PUSH1 0x4 PUSH2 0xCF8 JUMP JUMPDEST PUSH1 0x2 PUSH1 0x20 MSTORE PUSH1 0x0 SWAP1 DUP2 MSTORE PUSH1 0x40 SWAP1 KECCAK256 SLOAD DUP2 JUMP JUMPDEST CALLVALUE DUP1 ISZERO PUSH2 0x438 JUMPI PUSH1 0x0 DUP1 REVERT JUMPDEST POP PUSH2 0x287 PUSH2 0x77C JUMP JUMPDEST CALLVALUE DUP1 ISZERO PUSH2 0x44D JUMPI PUSH1 0x0 DUP1 REVERT JUMPDEST POP PUSH2 0x2C2 PUSH32 0x0 DUP2 JUMP JUMPDEST CALLVALUE DUP1 ISZERO PUSH2 0x481 JUMPI PUSH1 0x0 DUP1 REVERT JUMPDEST POP PUSH1 0x1 SLOAD PUSH2 0x39B SWAP1 PUSH1 0xFF AND DUP2 JUMP JUMPDEST CALLVALUE DUP1 ISZERO PUSH2 0x49B JUMPI PUSH1 0x0 DUP1 REVERT JUMPDEST POP PUSH2 0x342 PUSH32 0x0 DUP2 JUMP JUMPDEST CALLVALUE DUP1 ISZERO PUSH2 0x4CF JUMPI PUSH1 0x0 DUP1 REVERT JUMPDEST POP PUSH2 0x4D8 PUSH2 0x7E8 JUMP JUMPDEST PUSH1 0x40 MLOAD PUSH2 0x2D6 SWAP2 SWAP1 PUSH2 0xD41 JUMP JUMPDEST CALLVALUE DUP1 ISZERO PUSH2 0x4F1 JUMPI PUSH1 0x0 DUP1 REVERT JUMPDEST POP PUSH2 0x287 PUSH2 0x84A JUMP JUMPDEST CALLVALUE DUP1 ISZERO PUSH2 0x506 JUMPI PUSH1 0x0 DUP1 REVERT JUMPDEST POP PUSH2 0x342 PUSH1 0x0 SLOAD DUP2 JUMP JUMPDEST PUSH2 0x287 PUSH2 0x9E2 JUMP JUMPDEST CALLVALUE DUP1 ISZERO PUSH2 0x524 JUMPI PUSH1 0x0 DUP1 REVERT JUMPDEST POP PUSH1 0x1 SLOAD PUSH2 0x39B SWAP1 PUSH2 0x100 SWAP1 DIV PUSH1 0xFF AND DUP2 JUMP JUMPDEST PUSH1 0x1 DUP1 SLOAD PUSH1 0x0 SLOAD PUSH32 0x0 DUP2 LT ISZERO PUSH2 0x100 SWAP1 DUP2 MUL PUSH2 0xFFFF NOT SWAP1 SWAP4 AND SWAP3 SWAP1 SWAP3 OR DUP4 OR SWAP3 DUP4 SWAP1 SSTORE PUSH1 0x40 MLOAD PUSH32 0x17BE444BDF6F73DFD4057F6FB3494AB4A8591399B8703BE2BD797F27CF86FF99 SWAP4 PUSH2 0x5B9 SWAP4 SWAP1 DIV PUSH1 0xFF AND SWAP2 SWAP1 SWAP2 ISZERO ISZERO DUP3 MSTORE PUSH1 0x20 DUP3 ADD MSTORE PUSH1 0x40 ADD SWAP1 JUMP JUMPDEST PUSH1 0x40 MLOAD DUP1 SWAP2 SUB SWAP1 LOG1 PUSH1 0x1 SLOAD PUSH2 0x100 SWAP1 DIV PUSH1 0xFF AND ISZERO PUSH2 0x5D9 JUMPI PUSH2 0x5D9 PUSH2 0xB83 JUMP JUMPDEST JUMP JUMPDEST PUSH1 0x0 DUP1 PUSH1 0x0 DUP1 PUSH1 0x0 DUP1 PUSH1 0x0 DUP1 SLOAD PUSH32 0x0 PUSH32 0x0 PUSH32 0x0 TIMESTAMP GT PUSH2 0x680 JUMPI PUSH2 0x67B TIMESTAMP PUSH32 0x0 PUSH2 0xD8E JUMP JUMPDEST PUSH2 0x683 JUMP JUMPDEST PUSH1 0x0 JUMPDEST PUSH1 0x1 SLOAD PUSH1 0x3 SLOAD SWAP5 SWAP13 SWAP4 SWAP12 POP SWAP2 SWAP10 POP SWAP8 POP PUSH1 0xFF DUP1 DUP3 AND SWAP8 POP PUSH2 0x100 SWAP1 SWAP2 DIV AND SWAP5 POP SWAP1 SWAP3 POP SWAP1 POP JUMP JUMPDEST PUSH1 0x0 PUSH32 0x0 PUSH1 0x0 SUB PUSH2 0x6DA JUMPI POP PUSH1 0x0 SWAP1 JUMP JUMPDEST PUSH32 0x0 PUSH1 0x0 SLOAD PUSH1 0x64 PUSH2 0x70A SWAP2 SWAP1 PUSH2 0xDA1 JUMP JUMPDEST PUSH2 0x714 SWAP2 SWAP1 PUSH2 0xDB8 JUMP JUMPDEST SWAP1 POP SWAP1 JUMP JUMPDEST PUSH1 0x1 SLOAD PUSH1 0x0 SWAP1 PUSH1 0xFF AND ISZERO DUP1 ISZERO PUSH2 0x714 JUMPI POP POP PUSH32 0x0 TIMESTAMP GT ISZERO SWAP1 JUMP JUMPDEST PUSH1 0x3 DUP2 DUP2 SLOAD DUP2 LT PUSH2 0x762 JUMPI PUSH1 0x0 DUP1 REVERT JUMPDEST PUSH1 0x0 SWAP2 DUP3 MSTORE PUSH1 0x20 SWAP1 SWAP2 KECCAK256 ADD SLOAD PUSH1 0x1 PUSH1 0x1 PUSH1 0xA0 SHL SUB AND SWAP1 POP DUP2 JUMP JUMPDEST PUSH32 0x0 TIMESTAMP GT PUSH2 0x7BC JUMPI PUSH1 0x40 MLOAD PUSH4 0x640D0145 PUSH1 0xE1 SHL DUP2 MSTORE PUSH1 0x4 ADD PUSH1 0x40 MLOAD DUP1 SWAP2 SUB SWAP1 REVERT JUMPDEST PUSH1 0x1 SLOAD PUSH1 0xFF AND ISZERO PUSH2 0x7E0 JUMPI PUSH1 0x40 MLOAD PUSH4 0x475A2535 PUSH1 0xE0 SHL DUP2 MSTORE PUSH1 0x4 ADD PUSH1 0x40 MLOAD DUP1 SWAP2 SUB SWAP1 REVERT JUMPDEST PUSH2 0x5D9 PUSH2 0x537 JUMP JUMPDEST PUSH1 0x60 PUSH1 0x3 DUP1 SLOAD DUP1 PUSH1 0x20 MUL PUSH1 0x20 ADD PUSH1 0x40 MLOAD SWAP1 DUP2 ADD PUSH1 0x40 MSTORE DUP1 SWAP3 SWAP2 SWAP1 DUP2 DUP2 MSTORE PUSH1 0x20 ADD DUP3 DUP1 SLOAD DUP1 ISZERO PUSH2 0x840 JUMPI PUSH1 0x20 MUL DUP3 ADD SWAP2 SWAP1 PUSH1 0x0 MSTORE PUSH1 0x20 PUSH1 0x0 KECCAK256 SWAP1 JUMPDEST DUP2 SLOAD PUSH1 0x1 PUSH1 0x1 PUSH1 0xA0 SHL SUB AND DUP2 MSTORE PUSH1 0x1 SWAP1 SWAP2 ADD SWAP1 PUSH1 0x20 ADD DUP1 DUP4 GT PUSH2 0x822 JUMPI JUMPDEST POP POP POP POP POP SWAP1 POP SWAP1 JUMP JUMPDEST PUSH1 0x1 SLOAD PUSH1 0xFF AND PUSH2 0x89C JUMPI PUSH32 0x0 TIMESTAMP GT PUSH2 0x894 JUMPI PUSH1 0x40 MLOAD PUSH4 0x640D0145 PUSH1 0xE1 SHL DUP2 MSTORE PUSH1 0x4 ADD PUSH1 0x40 MLOAD DUP1 SWAP2 SUB SWAP1 REVERT JUMPDEST PUSH2 0x89C PUSH2 0x537 JUMP JUMPDEST PUSH1 0x1 SLOAD PUSH2 0x100 SWAP1 DIV PUSH1 0xFF AND ISZERO PUSH2 0x8C5 JUMPI PUSH1 0x40 MLOAD PUSH4 0x8F8E29A5 PUSH1 0xE0 SHL DUP2 MSTORE PUSH1 0x4 ADD PUSH1 0x40 MLOAD DUP1 SWAP2 SUB SWAP1 REVERT JUMPDEST CALLER PUSH1 0x0 SWAP1 DUP2 MSTORE PUSH1 0x2 PUSH1 0x20 MSTORE PUSH1 0x40 DUP2 KECCAK256 SLOAD SWAP1 DUP2 SWAP1 SUB PUSH2 0x8F6 JUMPI PUSH1 0x40 MLOAD PUSH4 0x1971FBF3 PUSH1 0xE2 SHL DUP2 MSTORE PUSH1 0x4 ADD PUSH1 0x40 MLOAD DUP1 SWAP2 SUB SWAP1 REVERT JUMPDEST CALLER PUSH1 0x0 SWAP1 DUP2 MSTORE PUSH1 0x2 PUSH1 0x20 MSTORE PUSH1 0x40 DUP2 KECCAK256 DUP2 SWAP1 SSTORE PUSH2 0x910 PUSH2 0xC7D JUMP JUMPDEST SWAP1 POP PUSH1 0x0 DUP1 SLOAD DUP3 DUP5 PUSH2 0x922 SWAP2 SWAP1 PUSH2 0xDA1 JUMP JUMPDEST PUSH2 0x92C SWAP2 SWAP1 PUSH2 0xDB8 JUMP JUMPDEST SWAP1 POP PUSH1 0x0 PUSH2 0x93A DUP3 DUP6 PUSH2 0xD8E JUMP JUMPDEST PUSH1 0x40 MLOAD SWAP1 SWAP2 POP PUSH1 0x0 SWAP1 CALLER SWAP1 DUP4 SWAP1 DUP4 DUP2 DUP2 DUP2 DUP6 DUP8 GAS CALL SWAP3 POP POP POP RETURNDATASIZE DUP1 PUSH1 0x0 DUP2 EQ PUSH2 0x97F JUMPI PUSH1 0x40 MLOAD SWAP2 POP PUSH1 0x1F NOT PUSH1 0x3F RETURNDATASIZE ADD AND DUP3 ADD PUSH1 0x40 MSTORE RETURNDATASIZE DUP3 MSTORE RETURNDATASIZE PUSH1 0x0 PUSH1 0x20 DUP5 ADD RETURNDATACOPY PUSH2 0x984 JUMP JUMPDEST PUSH1 0x60 SWAP2 POP JUMPDEST POP POP SWAP1 POP DUP1 PUSH2 0x9A6 JUMPI PUSH1 0x40 MLOAD PUSH4 0x12171D83 PUSH1 0xE3 SHL DUP2 MSTORE PUSH1 0x4 ADD PUSH1 0x40 MLOAD DUP1 SWAP2 SUB SWAP1 REVERT JUMPDEST PUSH1 0x40 MLOAD DUP3 DUP2 MSTORE CALLER SWAP1 PUSH32 0xA171B6942063C6F2800CE40A780EDCE37BAA2B618571B11EEDD1E69E626E7D76 SWAP1 PUSH1 0x20 ADD PUSH1 0x40 MLOAD DUP1 SWAP2 SUB SWAP1 LOG2 POP POP POP POP POP JUMP JUMPDEST PUSH32 0x0 TIMESTAMP GT ISZERO PUSH2 0xA23 JUMPI PUSH1 0x40 MLOAD PUSH4 0x8320B483 PUSH1 0xE0 SHL DUP2 MSTORE PUSH1 0x4 ADD PUSH1 0x40 MLOAD DUP1 SWAP2 SUB SWAP1 REVERT JUMPDEST CALLVALUE PUSH1 0x0 SUB PUSH2 0xA44 JUMPI PUSH1 0x40 MLOAD PUSH4 0x1F2A2005 PUSH1 0xE0 SHL DUP2 MSTORE PUSH1 0x4 ADD PUSH1 0x40 MLOAD DUP1 SWAP2 SUB SWAP1 REVERT JUMPDEST PUSH1 0x1 SLOAD PUSH1 0xFF AND ISZERO PUSH2 0xA68 JUMPI PUSH1 0x40 MLOAD PUSH4 0x475A2535 PUSH1 0xE0 SHL DUP2 MSTORE PUSH1 0x4 ADD PUSH1 0x40 MLOAD DUP1 SWAP2 SUB SWAP1 REVERT JUMPDEST CALLER PUSH1 0x0 SWAP1 DUP2 MSTORE PUSH1 0x2 PUSH1 0x20 MSTORE PUSH1 0x40 DUP2 KECCAK256 SLOAD SWAP1 SUB PUSH2 0xAC1 JUMPI PUSH1 0x3 DUP1 SLOAD PUSH1 0x1 DUP2 ADD DUP3 SSTORE PUSH1 0x0 SWAP2 SWAP1 SWAP2 MSTORE PUSH32 0xC2575A0E9E593C00F959F8C92F12DB2869C3395A3B0502D05E2516446F71F85B ADD DUP1 SLOAD PUSH1 0x1 PUSH1 0x1 PUSH1 0xA0 SHL SUB NOT AND CALLER OR SWAP1 SSTORE JUMPDEST CALLER PUSH1 0x0 SWAP1 DUP2 MSTORE PUSH1 0x2 PUSH1 0x20 MSTORE PUSH1 0x40 DUP2 KECCAK256 DUP1 SLOAD CALLVALUE SWAP3 SWAP1 PUSH2 0xAE0 SWAP1 DUP5 SWAP1 PUSH2 0xCDF JUMP JUMPDEST SWAP3 POP POP DUP2 SWAP1 SSTORE POP CALLVALUE PUSH1 0x0 DUP1 DUP3 DUP3 SLOAD PUSH2 0xAF8 SWAP2 SWAP1 PUSH2 0xCDF JUMP JUMPDEST SWAP1 SWAP2 SSTORE POP POP PUSH1 0x0 SLOAD PUSH1 0x40 MLOAD CALLER SWAP2 PUSH32 0xD2DFF949D20E874CC6BA1DCEFB840FB8CF6000A4197BFB69ACCFEA5A32443FF5 SWAP2 PUSH2 0xB39 SWAP2 CALLVALUE DUP3 MSTORE PUSH1 0x20 DUP3 ADD MSTORE PUSH1 0x40 ADD SWAP1 JUMP JUMPDEST PUSH1 0x40 MLOAD DUP1 SWAP2 SUB SWAP1 LOG2 PUSH32 0x0 PUSH1 0x0 SLOAD LT ISZERO DUP1 ISZERO PUSH2 0xB76 JUMPI POP PUSH1 0x1 SLOAD PUSH1 0xFF AND ISZERO JUMPDEST ISZERO PUSH2 0x5D9 JUMPI PUSH2 0x5D9 PUSH2 0x537 JUMP JUMPDEST PUSH1 0x0 DUP1 SLOAD PUSH1 0x40 MLOAD PUSH1 0x1 PUSH1 0x1 PUSH1 0xA0 SHL SUB PUSH32 0x0 AND SWAP2 SWAP1 DUP4 DUP2 DUP2 DUP2 DUP6 DUP8 GAS CALL SWAP3 POP POP POP RETURNDATASIZE DUP1 PUSH1 0x0 DUP2 EQ PUSH2 0xBEE JUMPI PUSH1 0x40 MLOAD SWAP2 POP PUSH1 0x1F NOT PUSH1 0x3F RETURNDATASIZE ADD AND DUP3 ADD PUSH1 0x40 MSTORE RETURNDATASIZE DUP3 MSTORE RETURNDATASIZE PUSH1 0x0 PUSH1 0x20 DUP5 ADD RETURNDATACOPY PUSH2 0xBF3 JUMP JUMPDEST PUSH1 0x60 SWAP2 POP JUMPDEST POP POP SWAP1 POP DUP1 PUSH2 0xC15 JUMPI PUSH1 0x40 MLOAD PUSH4 0x12171D83 PUSH1 0xE3 SHL DUP2 MSTORE PUSH1 0x4 ADD PUSH1 0x40 MLOAD DUP1 SWAP2 SUB SWAP1 REVERT JUMPDEST PUSH32 0x0 PUSH1 0x1 PUSH1 0x1 PUSH1 0xA0 SHL SUB AND PUSH32 0x221C08A06B07A64803B3787861A3F276212FCCCB51C2E6234077A9B8CB13047A PUSH1 0x0 SLOAD PUSH1 0x40 MLOAD PUSH2 0xC72 SWAP2 DUP2 MSTORE PUSH1 0x20 ADD SWAP1 JUMP JUMPDEST PUSH1 0x40 MLOAD DUP1 SWAP2 SUB SWAP1 LOG2 POP JUMP JUMPDEST PUSH1 0x0 DUP1 PUSH2 0x3E8 PUSH1 0x0 SLOAD PUSH2 0xC90 SWAP2 SWAP1 PUSH2 0xDB8 JUMP JUMPDEST SWAP1 POP PUSH7 0x38D7EA4C68000 PUSH8 0x16345785D8A0000 DUP2 DUP4 LT ISZERO PUSH2 0xCB2 JUMPI POP SWAP3 SWAP2 POP POP JUMP JUMPDEST DUP1 DUP4 GT ISZERO PUSH2 0xCC1 JUMPI SWAP4 SWAP3 POP POP POP JUMP JUMPDEST POP SWAP1 SWAP3 SWAP2 POP POP JUMP JUMPDEST PUSH4 0x4E487B71 PUSH1 0xE0 SHL PUSH1 0x0 MSTORE PUSH1 0x11 PUSH1 0x4 MSTORE PUSH1 0x24 PUSH1 0x0 REVERT JUMPDEST DUP1 DUP3 ADD DUP1 DUP3 GT ISZERO PUSH2 0xCF2 JUMPI PUSH2 0xCF2 PUSH2 0xCC9 JUMP JUMPDEST SWAP3 SWAP2 POP POP JUMP JUMPDEST PUSH1 0x0 PUSH1 0x20 DUP3 DUP5 SUB SLT ISZERO PUSH2 0xD0A JUMPI PUSH1 0x0 DUP1 REVERT JUMPDEST DUP2 CALLDATALOAD PUSH1 0x1 PUSH1 0x1 PUSH1 0xA0 SHL SUB DUP2 AND DUP2 EQ PUSH2 0xD21 JUMPI PUSH1 0x0 DUP1 REVERT JUMPDEST SWAP4 SWAP3 POP POP POP JUMP JUMPDEST PUSH1 0x0 PUSH1 0x20 DUP3 DUP5 SUB SLT ISZERO PUSH2 0xD3A JUMPI PUSH1 0x0 DUP1 REVERT JUMPDEST POP CALLDATALOAD SWAP2 SWAP1 POP JUMP JUMPDEST PUSH1 0x20 DUP1 DUP3 MSTORE DUP3 MLOAD DUP3 DUP3 ADD DUP2 SWAP1 MSTORE PUSH1 0x0 SWAP2 SWAP1 DUP5 DUP3 ADD SWAP1 PUSH1 0x40 DUP6 ADD SWAP1 DUP5 JUMPDEST DUP2 DUP2 LT ISZERO PUSH2 0xD82 JUMPI DUP4 MLOAD PUSH1 0x1 PUSH1 0x1 PUSH1 0xA0 SHL SUB AND DUP4 MSTORE SWAP3 DUP5 ADD SWAP3 SWAP2 DUP5 ADD SWAP2 PUSH1 0x1 ADD PUSH2 0xD5D JUMP JUMPDEST POP SWAP1 SWAP7 SWAP6 POP POP POP POP POP POP JUMP JUMPDEST DUP2 DUP2 SUB DUP2 DUP2 GT ISZERO PUSH2 0xCF2 JUMPI PUSH2 0xCF2 PUSH2 0xCC9 JUMP JUMPDEST DUP1 DUP3 MUL DUP2 ISZERO DUP3 DUP3 DIV DUP5 EQ OR PUSH2 0xCF2 JUMPI PUSH2 0xCF2 PUSH2 0xCC9 JUMP JUMPDEST PUSH1 0x0 DUP3 PUSH2 0xDD5 JUMPI PUSH4 0x4E487B71 PUSH1 0xE0 SHL PUSH1 0x0 MSTORE PUSH1 0x12 PUSH1 0x4 MSTORE PUSH1 0x24 PUSH1 0x0 REVERT JUMPDEST POP DIV SWAP1 JUMP INVALID LOG2 PUSH5 0x6970667358 0x22 SLT KECCAK256 0xDE GT POP 0x5E LOG0 SIGNEXTEND 0xDC 0xD0 0xAB INVALID PUSH31 0xBD5207431807FC345DBFE3A1B538FF306EC8684D8764736F6C634300081400 CALLER "},"methodIdentifiers":{"claimRefund()":"b5545a3c","company()":"6904c94d","contribute()":"d7bb99ba","contributions(address)":"42e94c90","contributors(uint256)":"3cb5d100","creator()":"02d05d3f","deadline()":"29dcb0cf","finalize()":"4bb278f3","getCampaignStatus()":"10550515","getContribution(address)":"21eff7fc","getContributors()":"af157c19","getProgressPercentage()":"1931136c","isActive()":"22f3e2d4","isFinalized()":"8d4e4083","isSuccessful()":"ec4cd0cf","targetAmount()":"953b8fb8","totalRaised()":"c5c4744c"}}}}}