{"contracts/CompanyWishlistEscrow.sol":{"CompanyWishlistEscrow":{"abi":[{"inputs":[{"internalType":"address","name":"_company","type":"address"},{"internalType":"address","name":"_masterWallet","type":"address"},{"internalType":"uint256","name":"_targetAmount","type":"uint256"},{"internalType":"uint256","name":"_durationInDays","type":"uint256"},{"internalType":"string","name":"_campaignName","type":"string"},{"internalType":"string","name":"_campaignDescription","type":"string"}],"stateMutability":"nonpayable","type":"constructor"},{"inputs":[],"name":"AlreadyFinalized","type":"error"},{"inputs":[],"name":"CampaignExpired","type":"error"},{"inputs":[],"name":"CampaignNotExpired","type":"error"},{"inputs":[],"name":"InvalidAddress","type":"error"},{"inputs":[],"name":"NoContribution","type":"error"},{"inputs":[],"name":"NotFinalized","type":"error"},{"inputs":[],"name":"TargetAlreadyReached","type":"error"},{"inputs":[],"name":"TargetNotReached","type":"error"},{"inputs":[],"name":"TransferFailed","type":"error"},{"inputs":[],"name":"ZeroAmount","type":"error"},{"anonymous":false,"inputs":[{"indexed":false,"internalType":"bool","name":"successful","type":"bool"},{"indexed":false,"internalType":"uint256","name":"totalRaised","type":"uint256"}],"name":"CampaignFinalized","type":"event"},{"anonymous":false,"inputs":[{"indexed":true,"internalType":"address","name":"contributor","type":"address"},{"indexed":false,"internalType":"uint256","name":"amount","type":"uint256"},{"indexed":false,"internalType":"uint256","name":"totalRaised","type":"uint256"}],"name":"ContributionReceived","type":"event"},{"anonymous":false,"inputs":[{"indexed":true,"internalType":"address","name":"company","type":"address"},{"indexed":false,"internalType":"uint256","name":"amount","type":"uint256"}],"name":"FundsReleased","type":"event"},{"anonymous":false,"inputs":[{"indexed":true,"internalType":"address","name":"contributor","type":"address"},{"indexed":false,"internalType":"uint256","name":"amount","type":"uint256"}],"name":"RefundIssued","type":"event"},{"inputs":[],"name":"campaignDescription","outputs":[{"internalType":"string","name":"","type":"string"}],"stateMutability":"view","type":"function"},{"inputs":[],"name":"campaignName","outputs":[{"internalType":"string","name":"","type":"string"}],"stateMutability":"view","type":"function"},{"inputs":[],"name":"claimRefund","outputs":[],"stateMutability":"nonpayable","type":"function"},{"inputs":[],"name":"company","outputs":[{"internalType":"address","name":"","type":"address"}],"stateMutability":"view","type":"function"},{"inputs":[],"name":"contribute","outputs":[],"stateMutability":"payable","type":"function"},{"inputs":[{"internalType":"address","name":"","type":"address"}],"name":"contributions","outputs":[{"internalType":"uint256","name":"","type":"uint256"}],"stateMutability":"view","type":"function"},{"inputs":[{"internalType":"uint256","name":"","type":"uint256"}],"name":"contributors","outputs":[{"internalType":"address","name":"","type":"address"}],"stateMutability":"view","type":"function"},{"inputs":[],"name":"creator","outputs":[{"internalType":"address","name":"","type":"address"}],"stateMutability":"view","type":"function"},{"inputs":[],"name":"deadline","outputs":[{"internalType":"uint256","name":"","type":"uint256"}],"stateMutability":"view","type":"function"},{"inputs":[],"name":"finalize","outputs":[],"stateMutability":"nonpayable","type":"function"},{"inputs":[],"name":"getCampaignStatus","outputs":[{"internalType":"uint256","name":"_totalRaised","type":"uint256"},{"internalType":"uint256","name":"_targetAmount","type":"uint256"},{"internalType":"uint256","name":"_deadline","type":"uint256"},{"internalType":"uint256","name":"_timeRemaining","type":"uint256"},{"internalType":"bool","name":"_isFinalized","type":"bool"},{"internalType":"bool","name":"_isSuccessful","type":"bool"},{"internalType":"uint256","name":"_contributorCount","type":"uint256"}],"stateMutability":"view","type":"function"},{"inputs":[{"internalType":"address","name":"contributor","type":"address"}],"name":"getContribution","outputs":[{"internalType":"uint256","name":"","type":"uint256"}],"stateMutability":"view","type":"function"},{"inputs":[],"name":"getContributors","outputs":[{"internalType":"address[]","name":"","type":"address[]"}],"stateMutability":"view","type":"function"},{"inputs":[],"name":"getProgressPercentage","outputs":[{"internalType":"uint256","name":"","type":"uint256"}],"stateMutability":"view","type":"function"},{"inputs":[],"name":"isActive","outputs":[{"internalType":"bool","name":"","type":"bool"}],"stateMutability":"view","type":"function"},{"inputs":[],"name":"isFinalized","outputs":[{"internalType":"bool","name":"","type":"bool"}],"stateMutability":"view","type":"function"},{"inputs":[],"name":"isSuccessful","outputs":[{"internalType":"bool","name":"","type":"bool"}],"stateMutability":"view","type":"function"},{"inputs":[],"name":"masterWallet","outputs":[{"internalType":"address","name":"","type":"address"}],"stateMutability":"view","type":"function"},{"inputs":[],"name":"targetAmount","outputs":[{"internalType":"uint256","name":"","type":"uint256"}],"stateMutability":"view","type":"function"},{"inputs":[],"name":"totalRaised","outputs":[{"internalType":"uint256","name":"","type":"uint256"}],"stateMutability":"view","type":"function"},{"stateMutability":"payable","type":"receive"}],"evm":{"bytecode":{"linkReferences":{},"object":"6101206040523480156200001257600080fd5b50604051620014ce380380620014ce833981016040819052620000359162000210565b6001600160a01b0386166200005d5760405163e6c4247b60e01b815260040160405180910390fd5b6001600160a01b038516620000855760405163e6c4247b60e01b815260040160405180910390fd5b83600003620000a757604051631f2a200560e01b815260040160405180910390fd5b82600003620000c957604051631f2a200560e01b815260040160405180910390fd5b6001600160a01b03808716608052851660a0523360c05260e0849052620000f48362015180620002c9565b620001009042620002e9565b6101005260026200011283826200038e565b5060036200012182826200038e565b505050505050506200045a565b80516001600160a01b03811681146200014657600080fd5b919050565b634e487b7160e01b600052604160045260246000fd5b600082601f8301126200017357600080fd5b81516001600160401b03808211156200019057620001906200014b565b604051601f8301601f19908116603f01168101908282118183101715620001bb57620001bb6200014b565b81604052838152602092508683858801011115620001d857600080fd5b600091505b83821015620001fc5785820183015181830184015290820190620001dd565b600093810190920192909252949350505050565b60008060008060008060c087890312156200022a57600080fd5b62000235876200012e565b955062000245602088016200012e565b6040880151606089015160808a015192975090955093506001600160401b03808211156200027257600080fd5b620002808a838b0162000161565b935060a08901519150808211156200029757600080fd5b50620002a689828a0162000161565b9150509295509295509295565b634e487b7160e01b600052601160045260246000fd5b8082028115828204841417620002e357620002e3620002b3565b92915050565b80820180821115620002e357620002e3620002b3565b600181811c908216806200031457607f821691505b6020821081036200033557634e487b7160e01b600052602260045260246000fd5b50919050565b601f8211156200038957600081815260208120601f850160051c81016020861015620003645750805b601f850160051c820191505b81811015620003855782815560010162000370565b5050505b505050565b81516001600160401b03811115620003aa57620003aa6200014b565b620003c281620003bb8454620002ff565b846200033b565b602080601f831160018114620003fa5760008415620003e15750858301515b600019600386901b1c1916600185901b17855562000385565b600085815260208120601f198616915b828110156200042b578886015182559484019460019091019084016200040a565b50858210156200044a5787850151600019600388901b60f8161c191681555b5050505050600190811b01905550565b60805160a05160c05160e05161010051610fbf6200050f6000396000818161012a0152818161041501528181610725015281816107460152818161077101528181610854015281816108a50152818161097d0152610b0b015260008181610268015281816104f9015281816105cc01528181610704015281816107d5015281816108030152610c6a015260006102c10152600081816105a101528181610cbb0152610d3e015260006104ab0152610fbf6000f3fe6080604052600436106101235760003560e01c80634bb278f3116100a0578063b5545a3c11610064578063b5545a3c1461053d578063c5c4744c14610552578063d7bb99ba14610568578063ec4cd0cf14610570578063fc0d01171461058f57600080fd5b80634bb278f3146104845780636904c94d146104995780638d4e4083146104cd578063953b8fb8146104e7578063af157c191461051b57600080fd5b806321eff7fc116100e757806321eff7fc146103a857806322f3e2d4146103de57806329dcb0cf146104035780633cb5d1001461043757806342e94c901461045757600080fd5b806302d05d3f146102af5780630724fda9146103005780631055051514610322578063110842cb146103705780631931136c1461038557600080fd5b366102aa577f000000000000000000000000000000000000000000000000000000000000000042111561016957604051638320b48360e01b815260040160405180910390fd5b60015460ff161561018d5760405163475a253560e01b815260040160405180910390fd5b3360009081526004602052604081205490036101e657600580546001810182556000919091527f036b6384b5eca791c62761152d0c79bb0604c104a5fb6f4eb0703f3154bb3db00180546001600160a01b031916331790555b3360009081526004602052604081208054349290610205908490610e06565b925050819055503460008082825461021d9190610e06565b909155505060005460405133917fd2dff949d20e874cc6ba1dcefb840fb8cf6000a4197bfb69accfea5a32443ff59161025e91348252602082015260400190565b60405180910390a27f00000000000000000000000000000000000000000000000000000000000000006000541015801561029b575060015460ff16155b156102a8576102a86105c3565b005b600080fd5b3480156102bb57600080fd5b506102e37f000000000000000000000000000000000000000000000000000000000000000081565b6040516001600160a01b0390911681526020015b60405180910390f35b34801561030c57600080fd5b50610315610667565b6040516102f79190610e1f565b34801561032e57600080fd5b506103376106f5565b60408051978852602088019690965294860193909352606085019190915215156080840152151560a083015260c082015260e0016102f7565b34801561037c57600080fd5b506103156107c4565b34801561039157600080fd5b5061039a6107d1565b6040519081526020016102f7565b3480156103b457600080fd5b5061039a6103c3366004610e6d565b6001600160a01b031660009081526004602052604090205490565b3480156103ea57600080fd5b506103f3610840565b60405190151581526020016102f7565b34801561040f57600080fd5b5061039a7f000000000000000000000000000000000000000000000000000000000000000081565b34801561044357600080fd5b506102e3610452366004610e9d565b610879565b34801561046357600080fd5b5061039a610472366004610e6d565b60046020526000908152604090205481565b34801561049057600080fd5b506102a86108a3565b3480156104a557600080fd5b506102e37f000000000000000000000000000000000000000000000000000000000000000081565b3480156104d957600080fd5b506001546103f39060ff1681565b3480156104f357600080fd5b5061039a7f000000000000000000000000000000000000000000000000000000000000000081565b34801561052757600080fd5b5061053061090f565b6040516102f79190610eb6565b34801561054957600080fd5b506102a8610971565b34801561055e57600080fd5b5061039a60005481565b6102a8610b09565b34801561057c57600080fd5b506001546103f390610100900460ff1681565b34801561059b57600080fd5b506102e37f000000000000000000000000000000000000000000000000000000000000000081565b600180546000547f000000000000000000000000000000000000000000000000000000000000000081101561010090810261ffff19909316929092178317928390556040517f17be444bdf6f73dfd4057f6fb3494ab4a8591399b8703be2bd797f27cf86ff999361064593900460ff1691909115158252602082015260400190565b60405180910390a1600154610100900460ff161561066557610665610caa565b565b6002805461067490610f03565b80601f01602080910402602001604051908101604052809291908181526020018280546106a090610f03565b80156106ed5780601f106106c2576101008083540402835291602001916106ed565b820191906000526020600020905b8154815290600101906020018083116106d057829003601f168201915b505050505081565b600080600080600080600080547f00000000000000000000000000000000000000000000000000000000000000007f00000000000000000000000000000000000000000000000000000000000000007f0000000000000000000000000000000000000000000000000000000000000000421161079a57610795427f0000000000000000000000000000000000000000000000000000000000000000610f3d565b61079d565b60005b600154600554949c939b50919950975060ff80821697506101009091041694509092509050565b6003805461067490610f03565b60007f00000000000000000000000000000000000000000000000000000000000000006000036108015750600090565b7f000000000000000000000000000000000000000000000000000000000000000060005460646108319190610f50565b61083b9190610f67565b905090565b60015460009060ff1615801561083b5750507f000000000000000000000000000000000000000000000000000000000000000042111590565b6005818154811061088957600080fd5b6000918252602090912001546001600160a01b0316905081565b7f000000000000000000000000000000000000000000000000000000000000000042116108e35760405163640d014560e11b815260040160405180910390fd5b60015460ff16156109075760405163475a253560e01b815260040160405180910390fd5b6106656105c3565b6060600580548060200260200160405190810160405280929190818152602001828054801561096757602002820191906000526020600020905b81546001600160a01b03168152600190910190602001808311610949575b5050505050905090565b60015460ff166109c3577f000000000000000000000000000000000000000000000000000000000000000042116109bb5760405163640d014560e11b815260040160405180910390fd5b6109c36105c3565b600154610100900460ff16156109ec57604051638f8e29a560e01b815260040160405180910390fd5b3360009081526004602052604081205490819003610a1d57604051631971fbf360e21b815260040160405180910390fd5b336000908152600460205260408120819055610a37610da4565b9050600080548284610a499190610f50565b610a539190610f67565b90506000610a618285610f3d565b604051909150600090339083908381818185875af1925050503d8060008114610aa6576040519150601f19603f3d011682016040523d82523d6000602084013e610aab565b606091505b5050905080610acd576040516312171d8360e31b815260040160405180910390fd5b60405182815233907fa171b6942063c6f2800ce40a780edce37baa2b618571b11eedd1e69e626e7d769060200160405180910390a25050505050565b7f0000000000000000000000000000000000000000000000000000000000000000421115610b4a57604051638320b48360e01b815260040160405180910390fd5b34600003610b6b57604051631f2a200560e01b815260040160405180910390fd5b60015460ff1615610b8f5760405163475a253560e01b815260040160405180910390fd5b336000908152600460205260408120549003610be857600580546001810182556000919091527f036b6384b5eca791c62761152d0c79bb0604c104a5fb6f4eb0703f3154bb3db00180546001600160a01b031916331790555b3360009081526004602052604081208054349290610c07908490610e06565b9250508190555034600080828254610c1f9190610e06565b909155505060005460405133917fd2dff949d20e874cc6ba1dcefb840fb8cf6000a4197bfb69accfea5a32443ff591610c6091348252602082015260400190565b60405180910390a27f000000000000000000000000000000000000000000000000000000000000000060005410158015610c9d575060015460ff16155b15610665576106656105c3565b600080546040516001600160a01b037f00000000000000000000000000000000000000000000000000000000000000001691908381818185875af1925050503d8060008114610d15576040519150601f19603f3d011682016040523d82523d6000602084013e610d1a565b606091505b5050905080610d3c576040516312171d8360e31b815260040160405180910390fd5b7f00000000000000000000000000000000000000000000000000000000000000006001600160a01b03167f221c08a06b07a64803b3787861a3f276212fcccb51c2e6234077a9b8cb13047a600054604051610d9991815260200190565b60405180910390a250565b6000806103e8600054610db79190610f67565b905066038d7ea4c6800067016345785d8a000081831015610dd9575092915050565b80831115610de8579392505050565b509092915050565b634e487b7160e01b600052601160045260246000fd5b80820180821115610e1957610e19610df0565b92915050565b600060208083528351808285015260005b81811015610e4c57858101830151858201604001528201610e30565b506000604082860101526040601f19601f8301168501019250505092915050565b600060208284031215610e7f57600080fd5b81356001600160a01b0381168114610e9657600080fd5b9392505050565b600060208284031215610eaf57600080fd5b5035919050565b6020808252825182820181905260009190848201906040850190845b81811015610ef75783516001600160a01b031683529284019291840191600101610ed2565b50909695505050505050565b600181811c90821680610f1757607f821691505b602082108103610f3757634e487b7160e01b600052602260045260246000fd5b50919050565b81810381811115610e1957610e19610df0565b8082028115828204841417610e1957610e19610df0565b600082610f8457634e487b7160e01b600052601260045260246000fd5b50049056fea2646970667358221220e2639401a73de0c8d18013520e5a2e43b06fc1ebe9647c2deee519aee80c059e64736f6c63430008140033","opcodes":"PUSH2 0x120 PUSH1 0x40 MSTORE CALLVALUE DUP1 ISZERO PUSH3 0x12 JUMPI PUSH1 0x0 DUP1 REVERT JUMPDEST POP PUSH1 0x40 MLOAD PUSH3 0x14CE CODESIZE SUB DUP1 PUSH3 0x14CE DUP4 CODECOPY DUP2 ADD PUSH1 0x40 DUP2 SWAP1 MSTORE PUSH3 0x35 SWAP2 PUSH3 0x210 JUMP JUMPDEST PUSH1 0x1 PUSH1 0x1 PUSH1 0xA0 SHL SUB DUP7 AND PUSH3 0x5D JUMPI PUSH1 0x40 MLOAD PUSH4 0xE6C4247B PUSH1 0xE0 SHL DUP2 MSTORE PUSH1 0x4 ADD PUSH1 0x40 MLOAD DUP1 SWAP2 SUB SWAP1 REVERT JUMPDEST PUSH1 0x1 PUSH1 0x1 PUSH1 0xA0 SHL SUB DUP6 AND PUSH3 0x85 JUMPI PUSH1 0x40 MLOAD PUSH4 0xE6C4247B PUSH1 0xE0 SHL DUP2 MSTORE PUSH1 0x4 ADD PUSH1 0x40 MLOAD DUP1 SWAP2 SUB SWAP1 REVERT JUMPDEST DUP4 PUSH1 0x0 SUB PUSH3 0xA7 JUMPI PUSH1 0x40 MLOAD PUSH4 0x1F2A2005 PUSH1 0xE0 SHL DUP2 MSTORE PUSH1 0x4 ADD PUSH1 0x40 MLOAD DUP1 SWAP2 SUB SWAP1 REVERT JUMPDEST DUP3 PUSH1 0x0 SUB PUSH3 0xC9 JUMPI PUSH1 0x40 MLOAD PUSH4 0x1F2A2005 PUSH1 0xE0 SHL DUP2 MSTORE PUSH1 0x4 ADD PUSH1 0x40 MLOAD DUP1 SWAP2 SUB SWAP1 REVERT JUMPDEST PUSH1 0x1 PUSH1 0x1 PUSH1 0xA0 SHL SUB DUP1 DUP8 AND PUSH1 0x80 MSTORE DUP6 AND PUSH1 0xA0 MSTORE CALLER PUSH1 0xC0 MSTORE PUSH1 0xE0 DUP5 SWAP1 MSTORE PUSH3 0xF4 DUP4 PUSH3 0x15180 PUSH3 0x2C9 JUMP JUMPDEST PUSH3 0x100 SWAP1 TIMESTAMP PUSH3 0x2E9 JUMP JUMPDEST PUSH2 0x100 MSTORE PUSH1 0x2 PUSH3 0x112 DUP4 DUP3 PUSH3 0x38E JUMP JUMPDEST POP PUSH1 0x3 PUSH3 0x121 DUP3 DUP3 PUSH3 0x38E JUMP JUMPDEST POP POP POP POP POP POP POP PUSH3 0x45A JUMP JUMPDEST DUP1 MLOAD PUSH1 0x1 PUSH1 0x1 PUSH1 0xA0 SHL SUB DUP2 AND DUP2 EQ PUSH3 0x146 JUMPI PUSH1 0x0 DUP1 REVERT JUMPDEST SWAP2 SWAP1 POP JUMP JUMPDEST PUSH4 0x4E487B71 PUSH1 0xE0 SHL PUSH1 0x0 MSTORE PUSH1 0x41 PUSH1 0x4 MSTORE PUSH1 0x24 PUSH1 0x0 REVERT JUMPDEST PUSH1 0x0 DUP3 PUSH1 0x1F DUP4 ADD SLT PUSH3 0x173 JUMPI PUSH1 0x0 DUP1 REVERT JUMPDEST DUP2 MLOAD PUSH1 0x1 PUSH1 0x1 PUSH1 0x40 SHL SUB DUP1 DUP3 GT ISZERO PUSH3 0x190 JUMPI PUSH3 0x190 PUSH3 0x14B JUMP JUMPDEST PUSH1 0x40 MLOAD PUSH1 0x1F DUP4 ADD PUSH1 0x1F NOT SWAP1 DUP2 AND PUSH1 0x3F ADD AND DUP2 ADD SWAP1 DUP3 DUP3 GT DUP2 DUP4 LT OR ISZERO PUSH3 0x1BB JUMPI PUSH3 0x1BB PUSH3 0x14B JUMP JUMPDEST DUP2 PUSH1 0x40 MSTORE DUP4 DUP2 MSTORE PUSH1 0x20 SWAP3 POP DUP7 DUP4 DUP6 DUP9 ADD ADD GT ISZERO PUSH3 0x1D8 JUMPI PUSH1 0x0 DUP1 REVERT JUMPDEST PUSH1 0x0 SWAP2 POP JUMPDEST DUP4 DUP3 LT ISZERO PUSH3 0x1FC JUMPI DUP6 DUP3 ADD DUP4 ADD MLOAD DUP2 DUP4 ADD DUP5 ADD MSTORE SWAP1 DUP3 ADD SWAP1 PUSH3 0x1DD JUMP JUMPDEST PUSH1 0x0 SWAP4 DUP2 ADD SWAP1 SWAP3 ADD SWAP3 SWAP1 SWAP3 MSTORE SWAP5 SWAP4 POP POP POP POP JUMP JUMPDEST PUSH1 0x0 DUP1 PUSH1 0x0 DUP1 PUSH1 0x0 DUP1 PUSH1 0xC0 DUP8 DUP10 SUB SLT ISZERO PUSH3 0x22A JUMPI PUSH1 0x0 DUP1 REVERT JUMPDEST PUSH3 0x235 DUP8 PUSH3 0x12E JUMP JUMPDEST SWAP6 POP PUSH3 0x245 PUSH1 0x20 DUP9 ADD PUSH3 0x12E JUMP JUMPDEST PUSH1 0x40 DUP9 ADD MLOAD PUSH1 0x60 DUP10 ADD MLOAD PUSH1 0x80 DUP11 ADD MLOAD SWAP3 SWAP8 POP SWAP1 SWAP6 POP SWAP4 POP PUSH1 0x1 PUSH1 0x1 PUSH1 0x40 SHL SUB DUP1 DUP3 GT ISZERO PUSH3 0x272 JUMPI PUSH1 0x0 DUP1 REVERT JUMPDEST PUSH3 0x280 DUP11 DUP4 DUP12 ADD PUSH3 0x161 JUMP JUMPDEST SWAP4 POP PUSH1 0xA0 DUP10 ADD MLOAD SWAP2 POP DUP1 DUP3 GT ISZERO PUSH3 0x297 JUMPI PUSH1 0x0 DUP1 REVERT JUMPDEST POP PUSH3 0x2A6 DUP10 DUP3 DUP11 ADD PUSH3 0x161 JUMP JUMPDEST SWAP2 POP POP SWAP3 SWAP6 POP SWAP3 SWAP6 POP SWAP3 SWAP6 JUMP JUMPDEST PUSH4 0x4E487B71 PUSH1 0xE0 SHL PUSH1 0x0 MSTORE PUSH1 0x11 PUSH1 0x4 MSTORE PUSH1 0x24 PUSH1 0x0 REVERT JUMPDEST DUP1 DUP3 MUL DUP2 ISZERO DUP3 DUP3 DIV DUP5 EQ OR PUSH3 0x2E3 JUMPI PUSH3 0x2E3 PUSH3 0x2B3 JUMP JUMPDEST SWAP3 SWAP2 POP POP JUMP JUMPDEST DUP1 DUP3 ADD DUP1 DUP3 GT ISZERO PUSH3 0x2E3 JUMPI PUSH3 0x2E3 PUSH3 0x2B3 JUMP JUMPDEST PUSH1 0x1 DUP2 DUP2 SHR SWAP1 DUP3 AND DUP1 PUSH3 0x314 JUMPI PUSH1 0x7F DUP3 AND SWAP2 POP JUMPDEST PUSH1 0x20 DUP3 LT DUP2 SUB PUSH3 0x335 JUMPI PUSH4 0x4E487B71 PUSH1 0xE0 SHL PUSH1 0x0 MSTORE PUSH1 0x22 PUSH1 0x4 MSTORE PUSH1 0x24 PUSH1 0x0 REVERT JUMPDEST POP SWAP2 SWAP1 POP JUMP JUMPDEST PUSH1 0x1F DUP3 GT ISZERO PUSH3 0x389 JUMPI PUSH1 0x0 DUP2 DUP2 MSTORE PUSH1 0x20 DUP2 KECCAK256 PUSH1 0x1F DUP6 ADD PUSH1 0x5 SHR DUP2 ADD PUSH1 0x20 DUP7 LT ISZERO PUSH3 0x364 JUMPI POP DUP1 JUMPDEST PUSH1 0x1F DUP6 ADD PUSH1 0x5 SHR DUP3 ADD SWAP2 POP JUMPDEST DUP2 DUP2 LT ISZERO PUSH3 0x385 JUMPI DUP3 DUP2 SSTORE PUSH1 0x1 ADD PUSH3 0x370 JUMP JUMPDEST POP POP POP JUMPDEST POP POP POP JUMP JUMPDEST DUP2 MLOAD PUSH1 0x1 PUSH1 0x1 PUSH1 0x40 SHL SUB DUP2 GT ISZERO PUSH3 0x3AA JUMPI PUSH3 0x3AA PUSH3 0x14B JUMP JUMPDEST PUSH3 0x3C2 DUP2 PUSH3 0x3BB DUP5 SLOAD PUSH3 0x2FF JUMP JUMPDEST DUP5 PUSH3 0x33B JUMP JUMPDEST PUSH1 0x20 DUP1 PUSH1 0x1F DUP4 GT PUSH1 0x1 DUP2 EQ PUSH3 0x3FA JUMPI PUSH1 0x0 DUP5 ISZERO PUSH3 0x3E1 JUMPI POP DUP6 DUP4 ADD MLOAD JUMPDEST PUSH1 0x0 NOT PUSH1 0x3 DUP7 SWAP1 SHL SHR NOT AND PUSH1 0x1 DUP6 SWAP1 SHL OR DUP6 SSTORE PUSH3 0x385 JUMP JUMPDEST PUSH1 0x0 DUP6 DUP2 MSTORE PUSH1 0x20 DUP2 KECCAK256 PUSH1 0x1F NOT DUP7 AND SWAP2 JUMPDEST DUP3 DUP2 LT ISZERO PUSH3 0x42B JUMPI DUP9 DUP7 ADD MLOAD DUP3 SSTORE SWAP5 DUP5 ADD SWAP5 PUSH1 0x1 SWAP1 SWAP2 ADD SWAP1 DUP5 ADD PUSH3 0x40A JUMP JUMPDEST POP DUP6 DUP3 LT ISZERO PUSH3 0x44A JUMPI DUP8 DUP6 ADD MLOAD PUSH1 0x0 NOT PUSH1 0x3 DUP9 SWAP1 SHL PUSH1 0xF8 AND SHR NOT AND DUP2 SSTORE JUMPDEST POP POP POP POP POP PUSH1 0x1 SWAP1 DUP2 SHL ADD SWAP1 SSTORE POP JUMP JUMPDEST PUSH1 0x80 MLOAD PUSH1 0xA0 MLOAD PUSH1 0xC0 MLOAD PUSH1 0xE0 MLOAD PUSH2 0x100 MLOAD PUSH2 0xFBF PUSH3 0x50F PUSH1 0x0 CODECOPY PUSH1 0x0 DUP2 DUP2 PUSH2 0x12A ADD MSTORE DUP2 DUP2 PUSH2 0x415 ADD MSTORE DUP2 DUP2 PUSH2 0x725 ADD MSTORE DUP2 DUP2 PUSH2 0x746 ADD MSTORE DUP2 DUP2 PUSH2 0x771 ADD MSTORE DUP2 DUP2 PUSH2 0x854 ADD MSTORE DUP2 DUP2 PUSH2 0x8A5 ADD MSTORE DUP2 DUP2 PUSH2 0x97D ADD MSTORE PUSH2 0xB0B ADD MSTORE PUSH1 0x0 DUP2 DUP2 PUSH2 0x268 ADD MSTORE DUP2 DUP2 PUSH2 0x4F9 ADD MSTORE DUP2 DUP2 PUSH2 0x5CC ADD MSTORE DUP2 DUP2 PUSH2 0x704 ADD MSTORE DUP2 DUP2 PUSH2 0x7D5 ADD MSTORE DUP2 DUP2 PUSH2 0x803 ADD MSTORE PUSH2 0xC6A ADD MSTORE PUSH1 0x0 PUSH2 0x2C1 ADD MSTORE PUSH1 0x0 DUP2 DUP2 PUSH2 0x5A1 ADD MSTORE DUP2 DUP2 PUSH2 0xCBB ADD MSTORE PUSH2 0xD3E ADD MSTORE PUSH1 0x0 PUSH2 0x4AB ADD MSTORE PUSH2 0xFBF PUSH1 0x0 RETURN INVALID PUSH1 0x80 PUSH1 0x40 MSTORE PUSH1 0x4 CALLDATASIZE LT PUSH2 0x123 JUMPI PUSH1 0x0 CALLDATALOAD PUSH1 0xE0 SHR DUP1 PUSH4 0x4BB278F3 GT PUSH2 0xA0 JUMPI DUP1 PUSH4 0xB5545A3C GT PUSH2 0x64 JUMPI DUP1 PUSH4 0xB5545A3C EQ PUSH2 0x53D JUMPI DUP1 PUSH4 0xC5C4744C EQ PUSH2 0x552 JUMPI DUP1 PUSH4 0xD7BB99BA EQ PUSH2 0x568 JUMPI DUP1 PUSH4 0xEC4CD0CF EQ PUSH2 0x570 JUMPI DUP1 PUSH4 0xFC0D0117 EQ PUSH2 0x58F JUMPI PUSH1 0x0 DUP1 REVERT JUMPDEST DUP1 PUSH4 0x4BB278F3 EQ PUSH2 0x484 JUMPI DUP1 PUSH4 0x6904C94D EQ PUSH2 0x499 JUMPI DUP1 PUSH4 0x8D4E4083 EQ PUSH2 0x4CD JUMPI DUP1 PUSH4 0x953B8FB8 EQ PUSH2 0x4E7 JUMPI DUP1 PUSH4 0xAF157C19 EQ PUSH2 0x51B JUMPI PUSH1 0x0 DUP1 REVERT JUMPDEST DUP1 PUSH4 0x21EFF7FC GT PUSH2 0xE7 JUMPI DUP1 PUSH4 0x21EFF7FC EQ PUSH2 0x3A8 JUMPI DUP1 PUSH4 0x22F3E2D4 EQ PUSH2 0x3DE JUMPI DUP1 PUSH4 0x29DCB0CF EQ PUSH2 0x403 JUMPI DUP1 PUSH4 0x3CB5D100 EQ PUSH2 0x437 JUMPI DUP1 PUSH4 0x42E94C90 EQ PUSH2 0x457 JUMPI PUSH1 0x0 DUP1 REVERT JUMPDEST DUP1 PUSH4 0x2D05D3F EQ PUSH2 0x2AF JUMPI DUP1 PUSH4 0x724FDA9 EQ PUSH2 0x300 JUMPI DUP1 PUSH4 0x10550515 EQ PUSH2 0x322 JUMPI DUP1 PUSH4 0x110842CB EQ PUSH2 0x370 JUMPI DUP1 PUSH4 0x1931136C EQ PUSH2 0x385 JUMPI PUSH1 0x0 DUP1 REVERT JUMPDEST CALLDATASIZE PUSH2 0x2AA JUMPI PUSH32 0x0 TIMESTAMP GT ISZERO PUSH2 0x169 JUMPI PUSH1 0x40 MLOAD PUSH4 0x8320B483 PUSH1 0xE0 SHL DUP2 MSTORE PUSH1 0x4 ADD PUSH1 0x40 MLOAD DUP1 SWAP2 SUB SWAP1 REVERT JUMPDEST PUSH1 0x1 SLOAD PUSH1 0xFF AND ISZERO PUSH2 0x18D JUMPI PUSH1 0x40 MLOAD PUSH4 0x475A2535 PUSH1 0xE0 SHL DUP2 MSTORE PUSH1 0x4 ADD PUSH1 0x40 MLOAD DUP1 SWAP2 SUB SWAP1 REVERT JUMPDEST CALLER PUSH1 0x0 SWAP1 DUP2 MSTORE PUSH1 0x4 PUSH1 0x20 MSTORE PUSH1 0x40 DUP2 KECCAK256 SLOAD SWAP1 SUB PUSH2 0x1E6 JUMPI PUSH1 0x5 DUP1 SLOAD PUSH1 0x1 DUP2 ADD DUP3 SSTORE PUSH1 0x0 SWAP2 SWAP1 SWAP2 MSTORE PUSH32 0x36B6384B5ECA791C62761152D0C79BB0604C104A5FB6F4EB0703F3154BB3DB0 ADD DUP1 SLOAD PUSH1 0x1 PUSH1 0x1 PUSH1 0xA0 SHL SUB NOT AND CALLER OR SWAP1 SSTORE JUMPDEST CALLER PUSH1 0x0 SWAP1 DUP2 MSTORE PUSH1 0x4 PUSH1 0x20 MSTORE PUSH1 0x40 DUP2 KECCAK256 DUP1 SLOAD CALLVALUE SWAP3 SWAP1 PUSH2 0x205 SWAP1 DUP5 SWAP1 PUSH2 0xE06 JUMP JUMPDEST SWAP3 POP POP DUP2 SWAP1 SSTORE POP CALLVALUE PUSH1 0x0 DUP1 DUP3 DUP3 SLOAD PUSH2 0x21D SWAP2 SWAP1 PUSH2 0xE06 JUMP JUMPDEST SWAP1 SWAP2 SSTORE POP POP PUSH1 0x0 SLOAD PUSH1 0x40 MLOAD CALLER SWAP2 PUSH32 0xD2DFF949D20E874CC6BA1DCEFB840FB8CF6000A4197BFB69ACCFEA5A32443FF5 SWAP2 PUSH2 0x25E SWAP2 CALLVALUE DUP3 MSTORE PUSH1 0x20 DUP3 ADD MSTORE PUSH1 0x40 ADD SWAP1 JUMP JUMPDEST PUSH1 0x40 MLOAD DUP1 SWAP2 SUB SWAP1 LOG2 PUSH32 0x0 PUSH1 0x0 SLOAD LT ISZERO DUP1 ISZERO PUSH2 0x29B JUMPI POP PUSH1 0x1 SLOAD PUSH1 0xFF AND ISZERO JUMPDEST ISZERO PUSH2 0x2A8 JUMPI PUSH2 0x2A8 PUSH2 0x5C3 JUMP JUMPDEST STOP JUMPDEST PUSH1 0x0 DUP1 REVERT JUMPDEST CALLVALUE DUP1 ISZERO PUSH2 0x2BB JUMPI PUSH1 0x0 DUP1 REVERT JUMPDEST POP PUSH2 0x2E3 PUSH32 0x0 DUP2 JUMP JUMPDEST PUSH1 0x40 MLOAD PUSH1 0x1 PUSH1 0x1 PUSH1 0xA0 SHL SUB SWAP1 SWAP2 AND DUP2 MSTORE PUSH1 0x20 ADD JUMPDEST PUSH1 0x40 MLOAD DUP1 SWAP2 SUB SWAP1 RETURN JUMPDEST CALLVALUE DUP1 ISZERO PUSH2 0x30C JUMPI PUSH1 0x0 DUP1 REVERT JUMPDEST POP PUSH2 0x315 PUSH2 0x667 JUMP JUMPDEST PUSH1 0x40 MLOAD PUSH2 0x2F7 SWAP2 SWAP1 PUSH2 0xE1F JUMP JUMPDEST CALLVALUE DUP1 ISZERO PUSH2 0x32E JUMPI PUSH1 0x0 DUP1 REVERT JUMPDEST POP PUSH2 0x337 PUSH2 0x6F5 JUMP JUMPDEST PUSH1 0x40 DUP1 MLOAD SWAP8 DUP9 MSTORE PUSH1 0x20 DUP9 ADD SWAP7 SWAP1 SWAP7 MSTORE SWAP5 DUP7 ADD SWAP4 SWAP1 SWAP4 MSTORE PUSH1 0x60 DUP6 ADD SWAP2 SWAP1 SWAP2 MSTORE ISZERO ISZERO PUSH1 0x80 DUP5 ADD MSTORE ISZERO ISZERO PUSH1 0xA0 DUP4 ADD MSTORE PUSH1 0xC0 DUP3 ADD MSTORE PUSH1 0xE0 ADD PUSH2 0x2F7 JUMP JUMPDEST CALLVALUE DUP1 ISZERO PUSH2 0x37C JUMPI PUSH1 0x0 DUP1 REVERT JUMPDEST POP PUSH2 0x315 PUSH2 0x7C4 JUMP JUMPDEST CALLVALUE DUP1 ISZERO PUSH2 0x391 JUMPI PUSH1 0x0 DUP1 REVERT JUMPDEST POP PUSH2 0x39A PUSH2 0x7D1 JUMP JUMPDEST PUSH1 0x40 MLOAD SWAP1 DUP2 MSTORE PUSH1 0x20 ADD PUSH2 0x2F7 JUMP JUMPDEST CALLVALUE DUP1 ISZERO PUSH2 0x3B4 JUMPI PUSH1 0x0 DUP1 REVERT JUMPDEST POP PUSH2 0x39A PUSH2 0x3C3 CALLDATASIZE PUSH1 0x4 PUSH2 0xE6D JUMP JUMPDEST PUSH1 0x1 PUSH1 0x1 PUSH1 0xA0 SHL SUB AND PUSH1 0x0 SWAP1 DUP2 MSTORE PUSH1 0x4 PUSH1 0x20 MSTORE PUSH1 0x40 SWAP1 KECCAK256 SLOAD SWAP1 JUMP JUMPDEST CALLVALUE DUP1 ISZERO PUSH2 0x3EA JUMPI PUSH1 0x0 DUP1 REVERT JUMPDEST POP PUSH2 0x3F3 PUSH2 0x840 JUMP JUMPDEST PUSH1 0x40 MLOAD SWAP1 ISZERO ISZERO DUP2 MSTORE PUSH1 0x20 ADD PUSH2 0x2F7 JUMP JUMPDEST CALLVALUE DUP1 ISZERO PUSH2 0x40F JUMPI PUSH1 0x0 DUP1 REVERT JUMPDEST POP PUSH2 0x39A PUSH32 0x0 DUP2 JUMP JUMPDEST CALLVALUE DUP1 ISZERO PUSH2 0x443 JUMPI PUSH1 0x0 DUP1 REVERT JUMPDEST POP PUSH2 0x2E3 PUSH2 0x452 CALLDATASIZE PUSH1 0x4 PUSH2 0xE9D JUMP JUMPDEST PUSH2 0x879 JUMP JUMPDEST CALLVALUE DUP1 ISZERO PUSH2 0x463 JUMPI PUSH1 0x0 DUP1 REVERT JUMPDEST POP PUSH2 0x39A PUSH2 0x472 CALLDATASIZE PUSH1 0x4 PUSH2 0xE6D JUMP JUMPDEST PUSH1 0x4 PUSH1 0x20 MSTORE PUSH1 0x0 SWAP1 DUP2 MSTORE PUSH1 0x40 SWAP1 KECCAK256 SLOAD DUP2 JUMP JUMPDEST CALLVALUE DUP1 ISZERO PUSH2 0x490 JUMPI PUSH1 0x0 DUP1 REVERT JUMPDEST POP PUSH2 0x2A8 PUSH2 0x8A3 JUMP JUMPDEST CALLVALUE DUP1 ISZERO PUSH2 0x4A5 JUMPI PUSH1 0x0 DUP1 REVERT JUMPDEST POP PUSH2 0x2E3 PUSH32 0x0 DUP2 JUMP JUMPDEST CALLVALUE DUP1 ISZERO PUSH2 0x4D9 JUMPI PUSH1 0x0 DUP1 REVERT JUMPDEST POP PUSH1 0x1 SLOAD PUSH2 0x3F3 SWAP1 PUSH1 0xFF AND DUP2 JUMP JUMPDEST CALLVALUE DUP1 ISZERO PUSH2 0x4F3 JUMPI PUSH1 0x0 DUP1 REVERT JUMPDEST POP PUSH2 0x39A PUSH32 0x0 DUP2 JUMP JUMPDEST CALLVALUE DUP1 ISZERO PUSH2 0x527 JUMPI PUSH1 0x0 DUP1 REVERT JUMPDEST POP PUSH2 0x530 PUSH2 0x90F JUMP JUMPDEST PUSH1 0x40 MLOAD PUSH2 0x2F7 SWAP2 SWAP1 PUSH2 0xEB6 JUMP JUMPDEST CALLVALUE DUP1 ISZERO PUSH2 0x549 JUMPI PUSH1 0x0 DUP1 REVERT JUMPDEST POP PUSH2 0x2A8 PUSH2 0x971 JUMP JUMPDEST CALLVALUE DUP1 ISZERO PUSH2 0x55E JUMPI PUSH1 0x0 DUP1 REVERT JUMPDEST POP PUSH2 0x39A PUSH1 0x0 SLOAD DUP2 JUMP JUMPDEST PUSH2 0x2A8 PUSH2 0xB09 JUMP JUMPDEST CALLVALUE DUP1 ISZERO PUSH2 0x57C JUMPI PUSH1 0x0 DUP1 REVERT JUMPDEST POP PUSH1 0x1 SLOAD PUSH2 0x3F3 SWAP1 PUSH2 0x100 SWAP1 DIV PUSH1 0xFF AND DUP2 JUMP JUMPDEST CALLVALUE DUP1 ISZERO PUSH2 0x59B JUMPI PUSH1 0x0 DUP1 REVERT JUMPDEST POP PUSH2 0x2E3 PUSH32 0x0 DUP2 JUMP JUMPDEST PUSH1 0x1 DUP1 SLOAD PUSH1 0x0 SLOAD PUSH32 0x0 DUP2 LT ISZERO PUSH2 0x100 SWAP1 DUP2 MUL PUSH2 0xFFFF NOT SWAP1 SWAP4 AND SWAP3 SWAP1 SWAP3 OR DUP4 OR SWAP3 DUP4 SWAP1 SSTORE PUSH1 0x40 MLOAD PUSH32 0x17BE444BDF6F73DFD4057F6FB3494AB4A8591399B8703BE2BD797F27CF86FF99 SWAP4 PUSH2 0x645 SWAP4 SWAP1 DIV PUSH1 0xFF AND SWAP2 SWAP1 SWAP2 ISZERO ISZERO DUP3 MSTORE PUSH1 0x20 DUP3 ADD MSTORE PUSH1 0x40 ADD SWAP1 JUMP JUMPDEST PUSH1 0x40 MLOAD DUP1 SWAP2 SUB SWAP1 LOG1 PUSH1 0x1 SLOAD PUSH2 0x100 SWAP1 DIV PUSH1 0xFF AND ISZERO PUSH2 0x665 JUMPI PUSH2 0x665 PUSH2 0xCAA JUMP JUMPDEST JUMP JUMPDEST PUSH1 0x2 DUP1 SLOAD PUSH2 0x674 SWAP1 PUSH2 0xF03 JUMP JUMPDEST DUP1 PUSH1 0x1F ADD PUSH1 0x20 DUP1 SWAP2 DIV MUL PUSH1 0x20 ADD PUSH1 0x40 MLOAD SWAP1 DUP2 ADD PUSH1 0x40 MSTORE DUP1 SWAP3 SWAP2 SWAP1 DUP2 DUP2 MSTORE PUSH1 0x20 ADD DUP3 DUP1 SLOAD PUSH2 0x6A0 SWAP1 PUSH2 0xF03 JUMP JUMPDEST DUP1 ISZERO PUSH2 0x6ED JUMPI DUP1 PUSH1 0x1F LT PUSH2 0x6C2 JUMPI PUSH2 0x100 DUP1 DUP4 SLOAD DIV MUL DUP4 MSTORE SWAP2 PUSH1 0x20 ADD SWAP2 PUSH2 0x6ED JUMP JUMPDEST DUP3 ADD SWAP2 SWAP1 PUSH1 0x0 MSTORE PUSH1 0x20 PUSH1 0x0 KECCAK256 SWAP1 JUMPDEST DUP2 SLOAD DUP2 MSTORE SWAP1 PUSH1 0x1 ADD SWAP1 PUSH1 0x20 ADD DUP1 DUP4 GT PUSH2 0x6D0 JUMPI DUP3 SWAP1 SUB PUSH1 0x1F AND DUP3 ADD SWAP2 JUMPDEST POP POP POP POP POP DUP2 JUMP JUMPDEST PUSH1 0x0 DUP1 PUSH1 0x0 DUP1 PUSH1 0x0 DUP1 PUSH1 0x0 DUP1 SLOAD PUSH32 0x0 PUSH32 0x0 PUSH32 0x0 TIMESTAMP GT PUSH2 0x79A JUMPI PUSH2 0x795 TIMESTAMP PUSH32 0x0 PUSH2 0xF3D JUMP JUMPDEST PUSH2 0x79D JUMP JUMPDEST PUSH1 0x0 JUMPDEST PUSH1 0x1 SLOAD PUSH1 0x5 SLOAD SWAP5 SWAP13 SWAP4 SWAP12 POP SWAP2 SWAP10 POP SWAP8 POP PUSH1 0xFF DUP1 DUP3 AND SWAP8 POP PUSH2 0x100 SWAP1 SWAP2 DIV AND SWAP5 POP SWAP1 SWAP3 POP SWAP1 POP JUMP JUMPDEST PUSH1 0x3 DUP1 SLOAD PUSH2 0x674 SWAP1 PUSH2 0xF03 JUMP JUMPDEST PUSH1 0x0 PUSH32 0x0 PUSH1 0x0 SUB PUSH2 0x801 JUMPI POP PUSH1 0x0 SWAP1 JUMP JUMPDEST PUSH32 0x0 PUSH1 0x0 SLOAD PUSH1 0x64 PUSH2 0x831 SWAP2 SWAP1 PUSH2 0xF50 JUMP JUMPDEST PUSH2 0x83B SWAP2 SWAP1 PUSH2 0xF67 JUMP JUMPDEST SWAP1 POP SWAP1 JUMP JUMPDEST PUSH1 0x1 SLOAD PUSH1 0x0 SWAP1 PUSH1 0xFF AND ISZERO DUP1 ISZERO PUSH2 0x83B JUMPI POP POP PUSH32 0x0 TIMESTAMP GT ISZERO SWAP1 JUMP JUMPDEST PUSH1 0x5 DUP2 DUP2 SLOAD DUP2 LT PUSH2 0x889 JUMPI PUSH1 0x0 DUP1 REVERT JUMPDEST PUSH1 0x0 SWAP2 DUP3 MSTORE PUSH1 0x20 SWAP1 SWAP2 KECCAK256 ADD SLOAD PUSH1 0x1 PUSH1 0x1 PUSH1 0xA0 SHL SUB AND SWAP1 POP DUP2 JUMP JUMPDEST PUSH32 0x0 TIMESTAMP GT PUSH2 0x8E3 JUMPI PUSH1 0x40 MLOAD PUSH4 0x640D0145 PUSH1 0xE1 SHL DUP2 MSTORE PUSH1 0x4 ADD PUSH1 0x40 MLOAD DUP1 SWAP2 SUB SWAP1 REVERT JUMPDEST PUSH1 0x1 SLOAD PUSH1 0xFF AND ISZERO PUSH2 0x907 JUMPI PUSH1 0x40 MLOAD PUSH4 0x475A2535 PUSH1 0xE0 SHL DUP2 MSTORE PUSH1 0x4 ADD PUSH1 0x40 MLOAD DUP1 SWAP2 SUB SWAP1 REVERT JUMPDEST PUSH2 0x665 PUSH2 0x5C3 JUMP JUMPDEST PUSH1 0x60 PUSH1 0x5 DUP1 SLOAD DUP1 PUSH1 0x20 MUL PUSH1 0x20 ADD PUSH1 0x40 MLOAD SWAP1 DUP2 ADD PUSH1 0x40 MSTORE DUP1 SWAP3 SWAP2 SWAP1 DUP2 DUP2 MSTORE PUSH1 0x20 ADD DUP3 DUP1 SLOAD DUP1 ISZERO PUSH2 0x967 JUMPI PUSH1 0x20 MUL DUP3 ADD SWAP2 SWAP1 PUSH1 0x0 MSTORE PUSH1 0x20 PUSH1 0x0 KECCAK256 SWAP1 JUMPDEST DUP2 SLOAD PUSH1 0x1 PUSH1 0x1 PUSH1 0xA0 SHL SUB AND DUP2 MSTORE PUSH1 0x1 SWAP1 SWAP2 ADD SWAP1 PUSH1 0x20 ADD DUP1 DUP4 GT PUSH2 0x949 JUMPI JUMPDEST POP POP POP POP POP SWAP1 POP SWAP1 JUMP JUMPDEST PUSH1 0x1 SLOAD PUSH1 0xFF AND PUSH2 0x9C3 JUMPI PUSH32 0x0 TIMESTAMP GT PUSH2 0x9BB JUMPI PUSH1 0x40 MLOAD PUSH4 0x640D0145 PUSH1 0xE1 SHL DUP2 MSTORE PUSH1 0x4 ADD PUSH1 0x40 MLOAD DUP1 SWAP2 SUB SWAP1 REVERT JUMPDEST PUSH2 0x9C3 PUSH2 0x5C3 JUMP JUMPDEST PUSH1 0x1 SLOAD PUSH2 0x100 SWAP1 DIV PUSH1 0xFF AND ISZERO PUSH2 0x9EC JUMPI PUSH1 0x40 MLOAD PUSH4 0x8F8E29A5 PUSH1 0xE0 SHL DUP2 MSTORE PUSH1 0x4 ADD PUSH1 0x40 MLOAD DUP1 SWAP2 SUB SWAP1 REVERT JUMPDEST CALLER PUSH1 0x0 SWAP1 DUP2 MSTORE PUSH1 0x4 PUSH1 0x20 MSTORE PUSH1 0x40 DUP2 KECCAK256 SLOAD SWAP1 DUP2 SWAP1 SUB PUSH2 0xA1D JUMPI PUSH1 0x40 MLOAD PUSH4 0x1971FBF3 PUSH1 0xE2 SHL DUP2 MSTORE PUSH1 0x4 ADD PUSH1 0x40 MLOAD DUP1 SWAP2 SUB SWAP1 REVERT JUMPDEST CALLER PUSH1 0x0 SWAP1 DUP2 MSTORE PUSH1 0x4 PUSH1 0x20 MSTORE PUSH1 0x40 DUP2 KECCAK256 DUP2 SWAP1 SSTORE PUSH2 0xA37 PUSH2 0xDA4 JUMP JUMPDEST SWAP1 POP PUSH1 0x0 DUP1 SLOAD DUP3 DUP5 PUSH2 0xA49 SWAP2 SWAP1 PUSH2 0xF50 JUMP JUMPDEST PUSH2 0xA53 SWAP2 SWAP1 PUSH2 0xF67 JUMP JUMPDEST SWAP1 POP PUSH1 0x0 PUSH2 0xA61 DUP3 DUP6 PUSH2 0xF3D JUMP JUMPDEST PUSH1 0x40 MLOAD SWAP1 SWAP2 POP PUSH1 0x0 SWAP1 CALLER SWAP1 DUP4 SWAP1 DUP4 DUP2 DUP2 DUP2 DUP6 DUP8 GAS CALL SWAP3 POP POP POP RETURNDATASIZE DUP1 PUSH1 0x0 DUP2 EQ PUSH2 0xAA6 JUMPI PUSH1 0x40 MLOAD SWAP2 POP PUSH1 0x1F NOT PUSH1 0x3F RETURNDATASIZE ADD AND DUP3 ADD PUSH1 0x40 MSTORE RETURNDATASIZE DUP3 MSTORE RETURNDATASIZE PUSH1 0x0 PUSH1 0x20 DUP5 ADD RETURNDATACOPY PUSH2 0xAAB JUMP JUMPDEST PUSH1 0x60 SWAP2 POP JUMPDEST POP POP SWAP1 POP DUP1 PUSH2 0xACD JUMPI PUSH1 0x40 MLOAD PUSH4 0x12171D83 PUSH1 0xE3 SHL DUP2 MSTORE PUSH1 0x4 ADD PUSH1 0x40 MLOAD DUP1 SWAP2 SUB SWAP1 REVERT JUMPDEST PUSH1 0x40 MLOAD DUP3 DUP2 MSTORE CALLER SWAP1 PUSH32 0xA171B6942063C6F2800CE40A780EDCE37BAA2B618571B11EEDD1E69E626E7D76 SWAP1 PUSH1 0x20 ADD PUSH1 0x40 MLOAD DUP1 SWAP2 SUB SWAP1 LOG2 POP POP POP POP POP JUMP JUMPDEST PUSH32 0x0 TIMESTAMP GT ISZERO PUSH2 0xB4A JUMPI PUSH1 0x40 MLOAD PUSH4 0x8320B483 PUSH1 0xE0 SHL DUP2 MSTORE PUSH1 0x4 ADD PUSH1 0x40 MLOAD DUP1 SWAP2 SUB SWAP1 REVERT JUMPDEST CALLVALUE PUSH1 0x0 SUB PUSH2 0xB6B JUMPI PUSH1 0x40 MLOAD PUSH4 0x1F2A2005 PUSH1 0xE0 SHL DUP2 MSTORE PUSH1 0x4 ADD PUSH1 0x40 MLOAD DUP1 SWAP2 SUB SWAP1 REVERT JUMPDEST PUSH1 0x1 SLOAD PUSH1 0xFF AND ISZERO PUSH2 0xB8F JUMPI PUSH1 0x40 MLOAD PUSH4 0x475A2535 PUSH1 0xE0 SHL DUP2 MSTORE PUSH1 0x4 ADD PUSH1 0x40 MLOAD DUP1 SWAP2 SUB SWAP1 REVERT JUMPDEST CALLER PUSH1 0x0 SWAP1 DUP2 MSTORE PUSH1 0x4 PUSH1 0x20 MSTORE PUSH1 0x40 DUP2 KECCAK256 SLOAD SWAP1 SUB PUSH2 0xBE8 JUMPI PUSH1 0x5 DUP1 SLOAD PUSH1 0x1 DUP2 ADD DUP3 SSTORE PUSH1 0x0 SWAP2 SWAP1 SWAP2 MSTORE PUSH32 0x36B6384B5ECA791C62761152D0C79BB0604C104A5FB6F4EB0703F3154BB3DB0 ADD DUP1 SLOAD PUSH1 0x1 PUSH1 0x1 PUSH1 0xA0 SHL SUB NOT AND CALLER OR SWAP1 SSTORE JUMPDEST CALLER PUSH1 0x0 SWAP1 DUP2 MSTORE PUSH1 0x4 PUSH1 0x20 MSTORE PUSH1 0x40 DUP2 KECCAK256 DUP1 SLOAD CALLVALUE SWAP3 SWAP1 PUSH2 0xC07 SWAP1 DUP5 SWAP1 PUSH2 0xE06 JUMP JUMPDEST SWAP3 POP POP DUP2 SWAP1 SSTORE POP CALLVALUE PUSH1 0x0 DUP1 DUP3 DUP3 SLOAD PUSH2 0xC1F SWAP2 SWAP1 PUSH2 0xE06 JUMP JUMPDEST SWAP1 SWAP2 SSTORE POP POP PUSH1 0x0 SLOAD PUSH1 0x40 MLOAD CALLER SWAP2 PUSH32 0xD2DFF949D20E874CC6BA1DCEFB840FB8CF6000A4197BFB69ACCFEA5A32443FF5 SWAP2 PUSH2 0xC60 SWAP2 CALLVALUE DUP3 MSTORE PUSH1 0x20 DUP3 ADD MSTORE PUSH1 0x40 ADD SWAP1 JUMP JUMPDEST PUSH1 0x40 MLOAD DUP1 SWAP2 SUB SWAP1 LOG2 PUSH32 0x0 PUSH1 0x0 SLOAD LT ISZERO DUP1 ISZERO PUSH2 0xC9D JUMPI POP PUSH1 0x1 SLOAD PUSH1 0xFF AND ISZERO JUMPDEST ISZERO PUSH2 0x665 JUMPI PUSH2 0x665 PUSH2 0x5C3 JUMP JUMPDEST PUSH1 0x0 DUP1 SLOAD PUSH1 0x40 MLOAD PUSH1 0x1 PUSH1 0x1 PUSH1 0xA0 SHL SUB PUSH32 0x0 AND SWAP2 SWAP1 DUP4 DUP2 DUP2 DUP2 DUP6 DUP8 GAS CALL SWAP3 POP POP POP RETURNDATASIZE DUP1 PUSH1 0x0 DUP2 EQ PUSH2 0xD15 JUMPI PUSH1 0x40 MLOAD SWAP2 POP PUSH1 0x1F NOT PUSH1 0x3F RETURNDATASIZE ADD AND DUP3 ADD PUSH1 0x40 MSTORE RETURNDATASIZE DUP3 MSTORE RETURNDATASIZE PUSH1 0x0 PUSH1 0x20 DUP5 ADD RETURNDATACOPY PUSH2 0xD1A JUMP JUMPDEST PUSH1 0x60 SWAP2 POP JUMPDEST POP POP SWAP1 POP DUP1 PUSH2 0xD3C JUMPI PUSH1 0x40 MLOAD PUSH4 0x12171D83 PUSH1 0xE3 SHL DUP2 MSTORE PUSH1 0x4 ADD PUSH1 0x40 MLOAD DUP1 SWAP2 SUB SWAP1 REVERT JUMPDEST PUSH32 0x0 PUSH1 0x1 PUSH1 0x1 PUSH1 0xA0 SHL SUB AND PUSH32 0x221C08A06B07A64803B3787861A3F276212FCCCB51C2E6234077A9B8CB13047A PUSH1 0x0 SLOAD PUSH1 0x40 MLOAD PUSH2 0xD99 SWAP2 DUP2 MSTORE PUSH1 0x20 ADD SWAP1 JUMP JUMPDEST PUSH1 0x40 MLOAD DUP1 SWAP2 SUB SWAP1 LOG2 POP JUMP JUMPDEST PUSH1 0x0 DUP1 PUSH2 0x3E8 PUSH1 0x0 SLOAD PUSH2 0xDB7 SWAP2 SWAP1 PUSH2 0xF67 JUMP JUMPDEST SWAP1 POP PUSH7 0x38D7EA4C68000 PUSH8 0x16345785D8A0000 DUP2 DUP4 LT ISZERO PUSH2 0xDD9 JUMPI POP SWAP3 SWAP2 POP POP JUMP JUMPDEST DUP1 DUP4 GT ISZERO PUSH2 0xDE8 JUMPI SWAP4 SWAP3 POP POP POP JUMP JUMPDEST POP SWAP1 SWAP3 SWAP2 POP POP JUMP JUMPDEST PUSH4 0x4E487B71 PUSH1 0xE0 SHL PUSH1 0x0 MSTORE PUSH1 0x11 PUSH1 0x4 MSTORE PUSH1 0x24 PUSH1 0x0 REVERT JUMPDEST DUP1 DUP3 ADD DUP1 DUP3 GT ISZERO PUSH2 0xE19 JUMPI PUSH2 0xE19 PUSH2 0xDF0 JUMP JUMPDEST SWAP3 SWAP2 POP POP JUMP JUMPDEST PUSH1 0x0 PUSH1 0x20 DUP1 DUP4 MSTORE DUP4 MLOAD DUP1 DUP3 DUP6 ADD MSTORE PUSH1 0x0 JUMPDEST DUP2 DUP2 LT ISZERO PUSH2 0xE4C JUMPI DUP6 DUP2 ADD DUP4 ADD MLOAD DUP6 DUP3 ADD PUSH1 0x40 ADD MSTORE DUP3 ADD PUSH2 0xE30 JUMP JUMPDEST POP PUSH1 0x0 PUSH1 0x40 DUP3 DUP7 ADD ADD MSTORE PUSH1 0x40 PUSH1 0x1F NOT PUSH1 0x1F DUP4 ADD AND DUP6 ADD ADD SWAP3 POP POP POP SWAP3 SWAP2 POP POP JUMP JUMPDEST PUSH1 0x0 PUSH1 0x20 DUP3 DUP5 SUB SLT ISZERO PUSH2 0xE7F JUMPI PUSH1 0x0 DUP1 REVERT JUMPDEST DUP2 CALLDATALOAD PUSH1 0x1 PUSH1 0x1 PUSH1 0xA0 SHL SUB DUP2 AND DUP2 EQ PUSH2 0xE96 JUMPI PUSH1 0x0 DUP1 REVERT JUMPDEST SWAP4 SWAP3 POP POP POP JUMP JUMPDEST PUSH1 0x0 PUSH1 0x20 DUP3 DUP5 SUB SLT ISZERO PUSH2 0xEAF JUMPI PUSH1 0x0 DUP1 REVERT JUMPDEST POP CALLDATALOAD SWAP2 SWAP1 POP JUMP JUMPDEST PUSH1 0x20 DUP1 DUP3 MSTORE DUP3 MLOAD DUP3 DUP3 ADD DUP2 SWAP1 MSTORE PUSH1 0x0 SWAP2 SWAP1 DUP5 DUP3 ADD SWAP1 PUSH1 0x40 DUP6 ADD SWAP1 DUP5 JUMPDEST DUP2 DUP2 LT ISZERO PUSH2 0xEF7 JUMPI DUP4 MLOAD PUSH1 0x1 PUSH1 0x1 PUSH1 0xA0 SHL SUB AND DUP4 MSTORE SWAP3 DUP5 ADD SWAP3 SWAP2 DUP5 ADD SWAP2 PUSH1 0x1 ADD PUSH2 0xED2 JUMP JUMPDEST POP SWAP1 SWAP7 SWAP6 POP POP POP POP POP POP JUMP JUMPDEST PUSH1 0x1 DUP2 DUP2 SHR SWAP1 DUP3 AND DUP1 PUSH2 0xF17 JUMPI PUSH1 0x7F DUP3 AND SWAP2 POP JUMPDEST PUSH1 0x20 DUP3 LT DUP2 SUB PUSH2 0xF37 JUMPI PUSH4 0x4E487B71 PUSH1 0xE0 SHL PUSH1 0x0 MSTORE PUSH1 0x22 PUSH1 0x4 MSTORE PUSH1 0x24 PUSH1 0x0 REVERT JUMPDEST POP SWAP2 SWAP1 POP JUMP JUMPDEST DUP2 DUP2 SUB DUP2 DUP2 GT ISZERO PUSH2 0xE19 JUMPI PUSH2 0xE19 PUSH2 0xDF0 JUMP JUMPDEST DUP1 DUP3 MUL DUP2 ISZERO DUP3 DUP3 DIV DUP5 EQ OR PUSH2 0xE19 JUMPI PUSH2 0xE19 PUSH2 0xDF0 JUMP JUMPDEST PUSH1 0x0 DUP3 PUSH2 0xF84 JUMPI PUSH4 0x4E487B71 PUSH1 0xE0 SHL PUSH1 0x0 MSTORE PUSH1 0x12 PUSH1 0x4 MSTORE PUSH1 0x24 PUSH1 0x0 REVERT JUMPDEST POP DIV SWAP1 JUMP INVALID LOG2 PUSH5 0x6970667358 0x22 SLT KECCAK256 0xE2 PUSH4 0x9401A73D 0xE0 0xC8 0xD1 DUP1 SGT MSTORE 0xE GAS 0x2E NUMBER 0xB0 PUSH16 0xC1EBE9647C2DEEE519AEE80C059E6473 PUSH16 0x6C634300081400330000000000000000 "},"methodIdentifiers":{"campaignDescription()":"110842cb","campaignName()":"0724fda9","claimRefund()":"b5545a3c","company()":"6904c94d","contribute()":"d7bb99ba","contributions(address)":"42e94c90","contributors(uint256)":"3cb5d100","creator()":"02d05d3f","deadline()":"29dcb0cf","finalize()":"4bb278f3","getCampaignStatus()":"10550515","getContribution(address)":"21eff7fc","getContributors()":"af157c19","getProgressPercentage()":"1931136c","isActive()":"22f3e2d4","isFinalized()":"8d4e4083","isSuccessful()":"ec4cd0cf","masterWallet()":"fc0d0117","targetAmount()":"953b8fb8","totalRaised()":"c5c4744c"}}}}}